{
  "_format": "hh-sol-artifact-1",
  "contractName": "ThredCore",
  "sourceName": "contracts/ThredCore/ThredCore.sol",
  "abi": [
    {
      "anonymous": false,
      "inputs": [
        {
          "indexed": true,
          "internalType": "address",
          "name": "account",
          "type": "address"
        },
        {
          "indexed": true,
          "internalType": "address",
          "name": "operator",
          "type": "address"
        },
        {
          "indexed": false,
          "internalType": "bool",
          "name": "approved",
          "type": "bool"
        }
      ],
      "name": "ApprovalForAll",
      "type": "event"
    },
    {
      "anonymous": false,
      "inputs": [
        {
          "indexed": false,
          "internalType": "uint8",
          "name": "version",
          "type": "uint8"
        }
      ],
      "name": "Initialized",
      "type": "event"
    },
    {
      "anonymous": false,
      "inputs": [
        {
          "indexed": true,
          "internalType": "uint256",
          "name": "tokenId",
          "type": "uint256"
        },
        {
          "indexed": true,
          "internalType": "uint256",
          "name": "price",
          "type": "uint256"
        },
        {
          "indexed": true,
          "internalType": "address",
          "name": "user",
          "type": "address"
        }
      ],
      "name": "Install",
      "type": "event"
    },
    {
      "anonymous": false,
      "inputs": [
        {
          "indexed": false,
          "internalType": "address",
          "name": "account",
          "type": "address"
        }
      ],
      "name": "Paused",
      "type": "event"
    },
    {
      "anonymous": false,
      "inputs": [
        {
          "indexed": true,
          "internalType": "uint256",
          "name": "id",
          "type": "uint256"
        },
        {
          "indexed": false,
          "internalType": "bool",
          "name": "bounded",
          "type": "bool"
        }
      ],
      "name": "Soulbound",
      "type": "event"
    },
    {
      "anonymous": false,
      "inputs": [
        {
          "indexed": true,
          "internalType": "address",
          "name": "operator",
          "type": "address"
        },
        {
          "indexed": true,
          "internalType": "address",
          "name": "from",
          "type": "address"
        },
        {
          "indexed": true,
          "internalType": "address",
          "name": "to",
          "type": "address"
        },
        {
          "indexed": false,
          "internalType": "uint256[]",
          "name": "ids",
          "type": "uint256[]"
        },
        {
          "indexed": false,
          "internalType": "uint256[]",
          "name": "values",
          "type": "uint256[]"
        }
      ],
      "name": "TransferBatch",
      "type": "event"
    },
    {
      "anonymous": false,
      "inputs": [
        {
          "indexed": true,
          "internalType": "address",
          "name": "operator",
          "type": "address"
        },
        {
          "indexed": true,
          "internalType": "address",
          "name": "from",
          "type": "address"
        },
        {
          "indexed": true,
          "internalType": "address",
          "name": "to",
          "type": "address"
        },
        {
          "indexed": false,
          "internalType": "uint256",
          "name": "id",
          "type": "uint256"
        },
        {
          "indexed": false,
          "internalType": "uint256",
          "name": "value",
          "type": "uint256"
        }
      ],
      "name": "TransferSingle",
      "type": "event"
    },
    {
      "anonymous": false,
      "inputs": [
        {
          "indexed": false,
          "internalType": "string",
          "name": "value",
          "type": "string"
        },
        {
          "indexed": true,
          "internalType": "uint256",
          "name": "id",
          "type": "uint256"
        }
      ],
      "name": "URI",
      "type": "event"
    },
    {
      "anonymous": false,
      "inputs": [
        {
          "indexed": true,
          "internalType": "uint256",
          "name": "tokenId",
          "type": "uint256"
        },
        {
          "indexed": true,
          "internalType": "address",
          "name": "user",
          "type": "address"
        }
      ],
      "name": "Uninstall",
      "type": "event"
    },
    {
      "anonymous": false,
      "inputs": [
        {
          "indexed": false,
          "internalType": "address",
          "name": "account",
          "type": "address"
        }
      ],
      "name": "Unpaused",
      "type": "event"
    },
    {
      "inputs": [
        {
          "internalType": "address",
          "name": "account",
          "type": "address"
        },
        {
          "internalType": "uint256",
          "name": "id",
          "type": "uint256"
        }
      ],
      "name": "balanceOf",
      "outputs": [
        {
          "internalType": "uint256",
          "name": "",
          "type": "uint256"
        }
      ],
      "stateMutability": "view",
      "type": "function"
    },
    {
      "inputs": [
        {
          "internalType": "address[]",
          "name": "accounts",
          "type": "address[]"
        },
        {
          "internalType": "uint256[]",
          "name": "ids",
          "type": "uint256[]"
        }
      ],
      "name": "balanceOfBatch",
      "outputs": [
        {
          "internalType": "uint256[]",
          "name": "",
          "type": "uint256[]"
        }
      ],
      "stateMutability": "view",
      "type": "function"
    },
    {
      "inputs": [
        {
          "components": [
            {
              "internalType": "string",
              "name": "name",
              "type": "string"
            },
            {
              "internalType": "string",
              "name": "id",
              "type": "string"
            },
            {
              "internalType": "address",
              "name": "pay_address",
              "type": "address"
            },
            {
              "internalType": "uint256",
              "name": "category",
              "type": "uint256"
            },
            {
              "internalType": "uint256",
              "name": "price",
              "type": "uint256"
            },
            {
              "internalType": "uint256",
              "name": "created",
              "type": "uint256"
            },
            {
              "internalType": "uint256",
              "name": "modified",
              "type": "uint256"
            },
            {
              "internalType": "uint256",
              "name": "chainId",
              "type": "uint256"
            },
            {
              "internalType": "bytes",
              "name": "signature",
              "type": "bytes"
            }
          ],
          "internalType": "struct ThredCore.SmartUtil",
          "name": "util",
          "type": "tuple"
        },
        {
          "internalType": "address[]",
          "name": "to",
          "type": "address[]"
        }
      ],
      "name": "buySmartUtil",
      "outputs": [],
      "stateMutability": "payable",
      "type": "function"
    },
    {
      "inputs": [],
      "name": "deployerAddress",
      "outputs": [
        {
          "internalType": "address",
          "name": "",
          "type": "address"
        }
      ],
      "stateMutability": "view",
      "type": "function"
    },
    {
      "inputs": [
        {
          "internalType": "string",
          "name": "id",
          "type": "string"
        },
        {
          "internalType": "address",
          "name": "creator",
          "type": "address"
        }
      ],
      "name": "fetchDownloads",
      "outputs": [
        {
          "internalType": "uint256",
          "name": "",
          "type": "uint256"
        }
      ],
      "stateMutability": "view",
      "type": "function"
    },
    {
      "inputs": [
        {
          "internalType": "address[]",
          "name": "payoutAddresses",
          "type": "address[]"
        }
      ],
      "name": "fetchPayouts",
      "outputs": [
        {
          "internalType": "uint256[]",
          "name": "",
          "type": "uint256[]"
        }
      ],
      "stateMutability": "view",
      "type": "function"
    },
    {
      "inputs": [
        {
          "internalType": "address",
          "name": "user",
          "type": "address"
        }
      ],
      "name": "fetchRep",
      "outputs": [
        {
          "internalType": "uint256",
          "name": "",
          "type": "uint256"
        }
      ],
      "stateMutability": "view",
      "type": "function"
    },
    {
      "inputs": [
        {
          "internalType": "uint256",
          "name": "tokenId",
          "type": "uint256"
        }
      ],
      "name": "getAppIdForToken",
      "outputs": [
        {
          "internalType": "string",
          "name": "",
          "type": "string"
        }
      ],
      "stateMutability": "view",
      "type": "function"
    },
    {
      "inputs": [],
      "name": "getChainID",
      "outputs": [
        {
          "internalType": "uint256",
          "name": "",
          "type": "uint256"
        }
      ],
      "stateMutability": "view",
      "type": "function"
    },
    {
      "inputs": [
        {
          "internalType": "address",
          "name": "owner",
          "type": "address"
        },
        {
          "internalType": "string",
          "name": "domain",
          "type": "string"
        },
        {
          "internalType": "string",
          "name": "version",
          "type": "string"
        }
      ],
      "name": "initialize",
      "outputs": [],
      "stateMutability": "nonpayable",
      "type": "function"
    },
    {
      "inputs": [
        {
          "internalType": "address",
          "name": "account",
          "type": "address"
        },
        {
          "internalType": "address",
          "name": "operator",
          "type": "address"
        }
      ],
      "name": "isApprovedForAll",
      "outputs": [
        {
          "internalType": "bool",
          "name": "",
          "type": "bool"
        }
      ],
      "stateMutability": "view",
      "type": "function"
    },
    {
      "inputs": [
        {
          "internalType": "uint256",
          "name": "id",
          "type": "uint256"
        }
      ],
      "name": "isSoulbound",
      "outputs": [
        {
          "internalType": "bool",
          "name": "",
          "type": "bool"
        }
      ],
      "stateMutability": "view",
      "type": "function"
    },
    {
      "inputs": [],
      "name": "pause",
      "outputs": [],
      "stateMutability": "nonpayable",
      "type": "function"
    },
    {
      "inputs": [],
      "name": "paused",
      "outputs": [
        {
          "internalType": "bool",
          "name": "",
          "type": "bool"
        }
      ],
      "stateMutability": "view",
      "type": "function"
    },
    {
      "inputs": [
        {
          "internalType": "address",
          "name": "from",
          "type": "address"
        },
        {
          "internalType": "address",
          "name": "to",
          "type": "address"
        },
        {
          "internalType": "uint256[]",
          "name": "ids",
          "type": "uint256[]"
        },
        {
          "internalType": "uint256[]",
          "name": "amounts",
          "type": "uint256[]"
        },
        {
          "internalType": "bytes",
          "name": "data",
          "type": "bytes"
        }
      ],
      "name": "safeBatchTransferFrom",
      "outputs": [],
      "stateMutability": "nonpayable",
      "type": "function"
    },
    {
      "inputs": [
        {
          "internalType": "address",
          "name": "from",
          "type": "address"
        },
        {
          "internalType": "address",
          "name": "to",
          "type": "address"
        },
        {
          "internalType": "uint256",
          "name": "id",
          "type": "uint256"
        },
        {
          "internalType": "uint256",
          "name": "amount",
          "type": "uint256"
        },
        {
          "internalType": "bytes",
          "name": "data",
          "type": "bytes"
        }
      ],
      "name": "safeTransferFrom",
      "outputs": [],
      "stateMutability": "nonpayable",
      "type": "function"
    },
    {
      "inputs": [
        {
          "internalType": "address",
          "name": "operator",
          "type": "address"
        },
        {
          "internalType": "bool",
          "name": "approved",
          "type": "bool"
        }
      ],
      "name": "setApprovalForAll",
      "outputs": [],
      "stateMutability": "nonpayable",
      "type": "function"
    },
    {
      "inputs": [
        {
          "internalType": "bytes4",
          "name": "interfaceId",
          "type": "bytes4"
        }
      ],
      "name": "supportsInterface",
      "outputs": [
        {
          "internalType": "bool",
          "name": "",
          "type": "bool"
        }
      ],
      "stateMutability": "view",
      "type": "function"
    },
    {
      "inputs": [],
      "name": "unpause",
      "outputs": [],
      "stateMutability": "nonpayable",
      "type": "function"
    },
    {
      "inputs": [
        {
          "internalType": "uint256",
          "name": "",
          "type": "uint256"
        }
      ],
      "name": "uri",
      "outputs": [
        {
          "internalType": "string",
          "name": "",
          "type": "string"
        }
      ],
      "stateMutability": "view",
      "type": "function"
    },
    {
      "inputs": [],
      "name": "withDrawFunds",
      "outputs": [],
      "stateMutability": "nonpayable",
      "type": "function"
    }
  ],
  "bytecode": "0x608060405234801561001057600080fd5b506131a5806100206000396000f3fe6080604052600436106101295760003560e01c806374eff2b8116100ab578063b78da3861161006f578063b78da38614610328578063bbedeb1f1461033d578063d7dc43a514610374578063e985e9c514610394578063efdee94f146103dd578063f242432a1461041657610129565b806374eff2b81461028f5780638456cb59146102a257806390657147146102b7578063911ec470146102d7578063a22cb4651461030857610129565b80633f4ba83a116100f25780633f4ba83a146102005780634e1273f414610215578063564b81ef146102425780635c975abb14610257578063608595b51461026f57610129565b8062fdd58e1461012e57806301ffc9a7146101615780630e89341c146101915780632eb2c2d6146101be57806338cfbce6146101e0575b600080fd5b34801561013a57600080fd5b5061014e61014936600461284d565b610436565b6040519081526020015b60405180910390f35b34801561016d57600080fd5b5061018161017c36600461297f565b6104ce565b6040519015158152602001610158565b34801561019d57600080fd5b506101b16101ac366004612a9f565b610522565b6040516101589190612c50565b3480156101ca57600080fd5b506101de6101d936600461269c565b6105b6565b005b3480156101ec57600080fd5b506101b16101fb366004612a9f565b610602565b34801561020c57600080fd5b506101de610620565b34801561022157600080fd5b506102356102303660046128b5565b610675565b6040516101589190612c18565b34801561024e57600080fd5b5061014e6107d6565b34801561026357600080fd5b5060655460ff16610181565b34801561027b57600080fd5b5061014e61028a3660046129b7565b6107db565b6101de61029d366004612a32565b610824565b3480156102ae57600080fd5b506101de610ca1565b3480156102c357600080fd5b506101de6102d23660046127dd565b610cf4565b3480156102e357600080fd5b506101816102f2366004612a9f565b6000908152610130602052604090205460ff1690565b34801561031457600080fd5b506101de6103233660046127a3565b610e57565b34801561033457600080fd5b506101de610e66565b34801561034957600080fd5b5061014e610358366004612650565b6001600160a01b03166000908152610134602052604090205490565b34801561038057600080fd5b5061023561038f366004612876565b61101a565b3480156103a057600080fd5b506101816103af36600461266a565b6001600160a01b03918216600090815260fe6020908152604080832093909416825291909152205460ff1690565b3480156103e957600080fd5b5061012f546103fe906001600160a01b031681565b6040516001600160a01b039091168152602001610158565b34801561042257600080fd5b506101de610431366004612741565b611111565b60006001600160a01b0383166104a65760405162461bcd60e51b815260206004820152602a60248201527f455243313135353a2061646472657373207a65726f206973206e6f742061207660448201526930b634b21037bbb732b960b11b60648201526084015b60405180910390fd5b50600090815260fd602090815260408083206001600160a01b03949094168352929052205490565b60006001600160e01b03198216636cdb3d1360e11b14806104ff57506001600160e01b031982166303a24d0760e21b145b8061051a57506301ffc9a760e01b6001600160e01b03198316145b90505b919050565b606060ff805461053190612fb4565b80601f016020809104026020016040519081016040528092919081815260200182805461055d90612fb4565b80156105aa5780601f1061057f576101008083540402835291602001916105aa565b820191906000526020600020905b81548152906001019060200180831161058d57829003601f168201915b50505050509050919050565b6001600160a01b0385163314806105d257506105d285336103af565b6105ee5760405162461bcd60e51b815260040161049d90612c63565b6105fb8585858585611156565b5050505050565b60008181526101366020526040902080546060919061053190612fb4565b61012f546001600160a01b0316331461066b5760405162461bcd60e51b815260206004820152600d60248201526c556e617574686f72697a65642160981b604482015260640161049d565b61067361136e565b565b606081518351146106da5760405162461bcd60e51b815260206004820152602960248201527f455243313135353a206163636f756e747320616e6420696473206c656e677468604482015268040dad2e6dac2e8c6d60bb1b606482015260840161049d565b600083516001600160401b0381111561070357634e487b7160e01b600052604160045260246000fd5b60405190808252806020026020018201604052801561072c578160200160208202803683370190505b50905060005b84518110156107ce5761079385828151811061075e57634e487b7160e01b600052603260045260246000fd5b602002602001015185838151811061078657634e487b7160e01b600052603260045260246000fd5b6020026020010151610436565b8282815181106107b357634e487b7160e01b600052603260045260246000fd5b60209081029190910101526107c78161301b565b9050610732565b509392505050565b465b90565b6000808484846040516020016107f393929190612b4c565b60408051601f19818403018152918152815160209283012060009081526101359092529020549150505b9392505050565b600260015414156108775760405162461bcd60e51b815260206004820152601f60248201527f5265656e7472616e637947756172643a207265656e7472616e742063616c6c00604482015260640161049d565b600260015560655460ff16156108c45760405162461bcd60e51b8152602060048201526012602482015271151c985b9cd858dd1a5b99c814185d5cd95960721b604482015260640161049d565b8061091d5760405162461bcd60e51b815260206004820152602360248201527f496e76616c696420546f204c656e6774682e204d757374206265203e2074686160448201526206e20360ec1b606482015260840161049d565b6000610928846113c0565b90506109326107d6565b8460e00135146109985760405162461bcd60e51b815260206004820152602b60248201527f54686973206974656d206973206e6f7420636f6d70617469626c65207769746860448201526a103a3434b99031b430b4b760a91b606482015260840161049d565b60006109a860808601358461141a565b90508034146109ee5760405162461bcd60e51b8152602060048201526012602482015271496e73756666696369656e742046756e647360701b604482015260640161049d565b60006109fd6020870187612dd4565b84604051602001610a1093929190612b4c565b60408051601f198184030181529181528151602092830120600081815261013390935291205490915080610a6557610a4d61013280546001019055565b50610132546000828152610133602052604090208190555b610a726020880188612dd4565b600083815261013660205260409020610a8c929091612408565b5060005b85811015610b7357610ae8878783818110610abb57634e487b7160e01b600052603260045260246000fd5b9050602002016020810190610ad09190612650565b83600160405180602001604052806000815250611426565b610af382600161155a565b868682818110610b1357634e487b7160e01b600052603260045260246000fd5b9050602002016020810190610b289190612650565b6001600160a01b03168860800135837f9abbe2d43ce5c6460b50f15fe34cc22819e299866306d2c6de46b3a5cc05019860405160405180910390a4610b6c8161301b565b9050610a90565b5060008281526101356020526040902054610b8e90866115b2565b60008381526101356020526040812091909155610bac8460026115be565b90506000610bba8583611603565b9050610bf5816101316000610bd560608e0160408f01612650565b6001600160a01b03168152602081019190915260400160002054906115b2565b6101316000610c0a60608d0160408e01612650565b6001600160a01b039081168252602080830193909352604091820160009081209490945561012f54168352610131909152902054610c4890836115b2565b61012f546001600160a01b031660009081526101316020526040902055610c758660808b013560c861160f565b6001600160a01b0390961660009081526101346020526040902095909555505060018055505050505050565b61012f546001600160a01b03163314610cec5760405162461bcd60e51b815260206004820152600d60248201526c556e617574686f72697a65642160981b604482015260640161049d565b610673611651565b600054610100900460ff1615808015610d145750600054600160ff909116105b80610d2e5750303b158015610d2e575060005460ff166001145b610d915760405162461bcd60e51b815260206004820152602e60248201527f496e697469616c697a61626c653a20636f6e747261637420697320616c72656160448201526d191e481a5b9a5d1a585b1a5e995960921b606482015260840161049d565b6000805460ff191660011790558015610db4576000805461ff0019166101001790555b610dbc61168e565b610dc46116bd565b610de56040518060800160405280604f8152602001613121604f91396116ec565b610def838361171f565b61012f80546001600160a01b0319166001600160a01b0386161790558015610e51576000805461ff0019169055604051600181527f7f26b83ff96e1f2b6a682f133852f6798a09c465da95921460cefb38474024989060200160405180910390a15b50505050565b610e62338383611750565b5050565b60026001541415610eb95760405162461bcd60e51b815260206004820152601f60248201527f5265656e7472616e637947756172643a207265656e7472616e742063616c6c00604482015260640161049d565b600260015560655460ff161580610edb575061012f546001600160a01b031633145b610f1c5760405162461bcd60e51b8152602060048201526012602482015271151c985b9cd858dd1a5b99c814185d5cd95960721b604482015260640161049d565b336000908152610131602052604090205480610f715760405162461bcd60e51b81526020600482015260146024820152732737ba3434b733903a37903bb4ba34323930bb9760611b604482015260640161049d565b604051600090339083908381818185875af1925050503d8060008114610fb3576040519150601f19603f3d011682016040523d82523d6000602084013e610fb8565b606091505b50509050806110015760405162461bcd60e51b815260206004820152601560248201527429b7b6b2ba3434b733903bb2b73a103bb937b7339760591b604482015260640161049d565b5050336000908152610131602052604081205560018055565b60606000826001600160401b0381111561104457634e487b7160e01b600052604160045260246000fd5b60405190808252806020026020018201604052801561106d578160200160208202803683370190505b50905060005b838110156107ce5761013160008686848181106110a057634e487b7160e01b600052603260045260246000fd5b90506020020160208101906110b59190612650565b6001600160a01b03166001600160a01b03168152602001908152602001600020548282815181106110f657634e487b7160e01b600052603260045260246000fd5b602090810291909101015261110a8161301b565b9050611073565b6001600160a01b03851633148061112d575061112d85336103af565b6111495760405162461bcd60e51b815260040161049d90612c63565b6105fb8585858585611831565b81518351146111b85760405162461bcd60e51b815260206004820152602860248201527f455243313135353a2069647320616e6420616d6f756e7473206c656e677468206044820152670dad2e6dac2e8c6d60c31b606482015260840161049d565b6001600160a01b0384166111de5760405162461bcd60e51b815260040161049d90612cfa565b336111ed81878787878761197b565b60005b84518110156112f257600085828151811061121b57634e487b7160e01b600052603260045260246000fd5b60200260200101519050600085838151811061124757634e487b7160e01b600052603260045260246000fd5b602090810291909101810151600084815260fd835260408082206001600160a01b038e1683529093529190912054909150818110156112985760405162461bcd60e51b815260040161049d90612d3f565b600083815260fd602090815260408083206001600160a01b038e8116855292528083208585039055908b168252812080548492906112d7908490612e3b565b92505081905550505050806112eb9061301b565b90506111f0565b50846001600160a01b0316866001600160a01b0316826001600160a01b03167f4a39dc06d4c0dbc64b70af90fd698a233a518aa5d07e595d983b8c0526c8f7fb8787604051611342929190612c2b565b60405180910390a4611358818787878787611a46565b611366818787878787611acf565b505050505050565b611376611c3a565b6065805460ff191690557f5db9ee0a495bf2e6ff9c91a7834c1ba4fdd244a5e8aa4e537bd38aeae4b073aa335b6040516001600160a01b03909116815260200160405180910390a1565b6000806113cc83611c83565b905061081d816113e0610100860186612dd4565b8080601f016020809104026020016040519081016040528093929190818152602001838380828437600092019190915250611d8f92505050565b600061081d8284612f7e565b6001600160a01b0384166114865760405162461bcd60e51b815260206004820152602160248201527f455243313135353a206d696e7420746f20746865207a65726f206164647265736044820152607360f81b606482015260840161049d565b33600061149285611dab565b9050600061149f85611dab565b90506114b08360008985858961197b565b600086815260fd602090815260408083206001600160a01b038b168452909152812080548792906114e2908490612e3b565b909155505060408051878152602081018790526001600160a01b03808a1692600092918716917fc3d58168c5ae7397731d063d5bbf3d657854427343f4c083240f7aacaa2d0f62910160405180910390a461154283600089858589611a46565b61155183600089898989611e04565b50505050505050565b60008281526101306020908152604091829020805460ff1916841515908117909155915191825283917fe0abe9435049152fa612635eac4022235b6f5c156ecf799bdac41b11b9fa2211910160405180910390a25050565b600061081d8284612e3b565b6000806115ec6115d06002600a612eb0565b6115db906064612f7e565b6115e686606461141a565b90611ece565b905060006115fa828561141a565b95945050505050565b600061081d8284612f9d565b600061164961162961162285600a611ece565b84906115b2565b6001600160a01b03861660009081526101346020526040902054906115b2565b949350505050565b611659611eda565b6065805460ff191660011790557f62e78cea01bee320cd4e420270b5ea74000d11b0c9f74754ebdbfc544b05a2586113a33390565b600054610100900460ff166116b55760405162461bcd60e51b815260040161049d90612d89565b610673611f20565b600054610100900460ff166116e45760405162461bcd60e51b815260040161049d90612d89565b610673611f4d565b600054610100900460ff166117135760405162461bcd60e51b815260040161049d90612d89565b61171c81611f80565b50565b600054610100900460ff166117465760405162461bcd60e51b815260040161049d90612d89565b610e628282611fb0565b816001600160a01b0316836001600160a01b031614156117c45760405162461bcd60e51b815260206004820152602960248201527f455243313135353a2073657474696e6720617070726f76616c20737461747573604482015268103337b91039b2b63360b91b606482015260840161049d565b6001600160a01b03838116600081815260fe6020908152604080832094871680845294825291829020805460ff191686151590811790915591519182527f17307eab39ab6107e8899845ad3d59bd9653f200f220920489ca2b5937696c31910160405180910390a3505050565b6001600160a01b0384166118575760405162461bcd60e51b815260040161049d90612cfa565b33600061186385611dab565b9050600061187085611dab565b905061188083898985858961197b565b600086815260fd602090815260408083206001600160a01b038c168452909152902054858110156118c35760405162461bcd60e51b815260040161049d90612d3f565b600087815260fd602090815260408083206001600160a01b038d8116855292528083208985039055908a16825281208054889290611902908490612e3b565b909155505060408051888152602081018890526001600160a01b03808b16928c821692918816917fc3d58168c5ae7397731d063d5bbf3d657854427343f4c083240f7aacaa2d0f62910160405180910390a4611962848a8a86868a611a46565b611970848a8a8a8a8a611e04565b505050505050505050565b60005b8351811015611551576119c88482815181106119aa57634e487b7160e01b600052603260045260246000fd5b60200260200101516000908152610130602052604090205460ff1690565b15611a36576001600160a01b03861615806119ea57506001600160a01b038516155b611a365760405162461bcd60e51b815260206004820152601b60248201527f536f756c626f756e642c204e6f6e2d5472616e7366657261626c650000000000604482015260640161049d565b611a3f8161301b565b905061197e565b60005b8351811015611551576001600160a01b038516611abf57856001600160a01b0316848281518110611a8a57634e487b7160e01b600052603260045260246000fd5b60200260200101517fbf6ee8d3b279c99757fe8e0b3019bb6249544494b14dba9b2ceed2585f9ba1a060405160405180910390a35b611ac88161301b565b9050611a49565b6001600160a01b0384163b156113665760405163bc197c8160e01b81526001600160a01b0385169063bc197c8190611b139089908990889088908890600401612b75565b602060405180830381600087803b158015611b2d57600080fd5b505af1925050508015611b5d575060408051601f3d908101601f19168201909252611b5a9181019061299b565b60015b611c0a57611b69613062565b806308c379a01415611ba35750611b7e613079565b80611b895750611ba5565b8060405162461bcd60e51b815260040161049d9190612c50565b505b60405162461bcd60e51b815260206004820152603460248201527f455243313135353a207472616e7366657220746f206e6f6e20455243313135356044820152732932b1b2b4bb32b91034b6b83632b6b2b73a32b960611b606482015260840161049d565b6001600160e01b0319811663bc197c8160e01b146115515760405162461bcd60e51b815260040161049d90612cb2565b60655460ff166106735760405162461bcd60e51b815260206004820152601460248201527314185d5cd8589b194e881b9bdd081c185d5cd95960621b604482015260640161049d565b600061051a7f29f059543ab0cc4d5410157bd4928e0d52781563c806025742d7bf1958239950611cb38480612dd4565b604051611cc1929190612b3c565b604051908190039020611cd76020860186612dd4565b604051611ce5929190612b3c565b6040518091039020856040016020810190611d009190612650565b866060013587608001358860a001358960c001358a60e00135604051602001611d7499989796959493929190988952602089019790975260408801959095526001600160a01b03939093166060870152608086019190915260a085015260c084015260e08301526101008201526101200190565b60405160208183030381529060405280519060200120611ff1565b6000806000611d9e858561203f565b915091506107ce81612085565b60408051600180825281830190925260609160009190602080830190803683370190505090508281600081518110611df357634e487b7160e01b600052603260045260246000fd5b602090810291909101015292915050565b6001600160a01b0384163b156113665760405163f23a6e6160e01b81526001600160a01b0385169063f23a6e6190611e489089908990889088908890600401612bd3565b602060405180830381600087803b158015611e6257600080fd5b505af1925050508015611e92575060408051601f3d908101601f19168201909252611e8f9181019061299b565b60015b611e9e57611b69613062565b6001600160e01b0319811663f23a6e6160e01b146115515760405162461bcd60e51b815260040161049d90612cb2565b600061081d8284612e53565b60655460ff16156106735760405162461bcd60e51b815260206004820152601060248201526f14185d5cd8589b194e881c185d5cd95960821b604482015260640161049d565b600054610100900460ff16611f475760405162461bcd60e51b815260040161049d90612d89565b60018055565b600054610100900460ff16611f745760405162461bcd60e51b815260040161049d90612d89565b6065805460ff19169055565b600054610100900460ff16611fa75760405162461bcd60e51b815260040161049d90612d89565b61171c81612288565b600054610100900460ff16611fd75760405162461bcd60e51b815260040161049d90612d89565b815160209283012081519190920120609791909155609855565b600061051a611ffe61229b565b8360405161190160f01b6020820152602281018390526042810182905260009060620160405160208183030381529060405280519060200120905092915050565b6000808251604114156120765760208301516040840151606085015160001a61206a8782858561231b565b9450945050505061207e565b506000905060025b9250929050565b60008160048111156120a757634e487b7160e01b600052602160045260246000fd5b14156120b25761171c565b60018160048111156120d457634e487b7160e01b600052602160045260246000fd5b14156121225760405162461bcd60e51b815260206004820152601860248201527f45434453413a20696e76616c6964207369676e61747572650000000000000000604482015260640161049d565b600281600481111561214457634e487b7160e01b600052602160045260246000fd5b14156121925760405162461bcd60e51b815260206004820152601f60248201527f45434453413a20696e76616c6964207369676e6174757265206c656e67746800604482015260640161049d565b60038160048111156121b457634e487b7160e01b600052602160045260246000fd5b141561220d5760405162461bcd60e51b815260206004820152602260248201527f45434453413a20696e76616c6964207369676e6174757265202773272076616c604482015261756560f01b606482015260840161049d565b600481600481111561222f57634e487b7160e01b600052602160045260246000fd5b141561171c5760405162461bcd60e51b815260206004820152602260248201527f45434453413a20696e76616c6964207369676e6174757265202776272076616c604482015261756560f01b606482015260840161049d565b8051610e629060ff90602084019061248c565b60006123167f8b73c3c69bb8fe3d512ecc4cf759cc79239f7b179b0ffacaa9a75d522b39400f6122ca60975490565b6098546040805160208101859052908101839052606081018290524660808201523060a082015260009060c0016040516020818303038152906040528051906020012090509392505050565b905090565b6000807f7fffffffffffffffffffffffffffffff5d576e7357a4501ddfe92f46681b20a083111561235257506000905060036123ff565b8460ff16601b1415801561236a57508460ff16601c14155b1561237b57506000905060046123ff565b6040805160008082526020820180845289905260ff881692820192909252606081018690526080810185905260019060a0016020604051602081039080840390855afa1580156123cf573d6000803e3d6000fd5b5050604051601f1901519150506001600160a01b0381166123f8576000600192509250506123ff565b9150600090505b94509492505050565b82805461241490612fb4565b90600052602060002090601f016020900481019282612436576000855561247c565b82601f1061244f5782800160ff1982351617855561247c565b8280016001018555821561247c579182015b8281111561247c578235825591602001919060010190612461565b50612488929150612500565b5090565b82805461249890612fb4565b90600052602060002090601f0160209004810192826124ba576000855561247c565b82601f106124d357805160ff191683800117855561247c565b8280016001018555821561247c579182015b8281111561247c5782518255916020019190600101906124e5565b5b808211156124885760008155600101612501565b80356001600160a01b038116811461051d57600080fd5b60008083601f84011261253d578182fd5b5081356001600160401b03811115612553578182fd5b6020830191508360208260051b850101111561207e57600080fd5b600082601f83011261257e578081fd5b8135602061258b82612e18565b6040516125988282612fef565b8381528281019150858301600585901b870184018810156125b7578586fd5b855b858110156125d5578135845292840192908401906001016125b9565b5090979650505050505050565b600082601f8301126125f2578081fd5b81356001600160401b0381111561260b5761260b61304c565b604051612622601f8301601f191660200182612fef565b818152846020838601011115612636578283fd5b816020850160208301379081016020019190915292915050565b600060208284031215612661578081fd5b61081d82612515565b6000806040838503121561267c578081fd5b61268583612515565b915061269360208401612515565b90509250929050565b600080600080600060a086880312156126b3578081fd5b6126bc86612515565b94506126ca60208701612515565b935060408601356001600160401b03808211156126e5578283fd5b6126f189838a0161256e565b94506060880135915080821115612706578283fd5b61271289838a0161256e565b93506080880135915080821115612727578283fd5b50612734888289016125e2565b9150509295509295909350565b600080600080600060a08688031215612758578081fd5b61276186612515565b945061276f60208701612515565b9350604086013592506060860135915060808601356001600160401b03811115612797578182fd5b612734888289016125e2565b600080604083850312156127b5578182fd5b6127be83612515565b9150602083013580151581146127d2578182fd5b809150509250929050565b6000806000606084860312156127f1578283fd5b6127fa84612515565b925060208401356001600160401b0380821115612815578384fd5b612821878388016125e2565b93506040860135915080821115612836578283fd5b50612843868287016125e2565b9150509250925092565b6000806040838503121561285f578182fd5b61286883612515565b946020939093013593505050565b60008060208385031215612888578182fd5b82356001600160401b0381111561289d578283fd5b6128a98582860161252c565b90969095509350505050565b600080604083850312156128c7578182fd5b82356001600160401b03808211156128dd578384fd5b818501915085601f8301126128f0578384fd5b813560206128fd82612e18565b60405161290a8282612fef565b8381528281019150858301600585901b870184018b1015612929578889fd5b8896505b848710156129525761293e81612515565b83526001969096019591830191830161292d565b5096505086013592505080821115612968578283fd5b506129758582860161256e565b9150509250929050565b600060208284031215612990578081fd5b813561081d8161310a565b6000602082840312156129ac578081fd5b815161081d8161310a565b6000806000604084860312156129cb578081fd5b83356001600160401b03808211156129e1578283fd5b818601915086601f8301126129f4578283fd5b813581811115612a02578384fd5b876020828501011115612a13578384fd5b602092830195509350612a299186019050612515565b90509250925092565b600080600060408486031215612a46578081fd5b83356001600160401b0380821115612a5c578283fd5b908501906101208288031215612a70578283fd5b90935060208501359080821115612a85578283fd5b50612a928682870161252c565b9497909650939450505050565b600060208284031215612ab0578081fd5b5035919050565b6000815180845260208085019450808401835b83811015612ae657815187529582019590820190600101612aca565b509495945050505050565b60008151808452815b81811015612b1657602081850181015186830182015201612afa565b81811115612b275782602083870101525b50601f01601f19169290920160200192915050565b6000828483379101908152919050565b6000838583375060609190911b6bffffffffffffffffffffffff19169101908152601401919050565b6001600160a01b0386811682528516602082015260a060408201819052600090612ba190830186612ab7565b8281036060840152612bb38186612ab7565b90508281036080840152612bc78185612af1565b98975050505050505050565b6001600160a01b03868116825285166020820152604081018490526060810183905260a060808201819052600090612c0d90830184612af1565b979650505050505050565b60006020825261081d6020830184612ab7565b600060408252612c3e6040830185612ab7565b82810360208401526115fa8185612ab7565b60006020825261081d6020830184612af1565b6020808252602f908201527f455243313135353a2063616c6c6572206973206e6f7420746f6b656e206f776e60408201526e195c881b9bdc88185c1c1c9bdd9959608a1b606082015260800190565b60208082526028908201527f455243313135353a204552433131353552656365697665722072656a656374656040820152676420746f6b656e7360c01b606082015260800190565b60208082526025908201527f455243313135353a207472616e7366657220746f20746865207a65726f206164604082015264647265737360d81b606082015260800190565b6020808252602a908201527f455243313135353a20696e73756666696369656e742062616c616e636520666f60408201526939103a3930b739b332b960b11b606082015260800190565b6020808252602b908201527f496e697469616c697a61626c653a20636f6e7472616374206973206e6f74206960408201526a6e697469616c697a696e6760a81b606082015260800190565b6000808335601e19843603018112612dea578283fd5b8301803591506001600160401b03821115612e03578283fd5b60200191503681900382131561207e57600080fd5b60006001600160401b03821115612e3157612e3161304c565b5060051b60200190565b60008219821115612e4e57612e4e613036565b500190565b600082612e6e57634e487b7160e01b81526012600452602481fd5b500490565b80825b6001808611612e8557506123ff565b818704821115612e9757612e97613036565b80861615612ea457918102915b9490941c938002612e76565b600061081d6000198484600082612ec95750600161081d565b81612ed65750600061081d565b8160018114612eec5760028114612ef657612f23565b600191505061081d565b60ff841115612f0757612f07613036565b6001841b915084821115612f1d57612f1d613036565b5061081d565b5060208310610133831016604e8410600b8410161715612f56575081810a83811115612f5157612f51613036565b61081d565b612f638484846001612e73565b808604821115612f7557612f75613036565b02949350505050565b6000816000190483118215151615612f9857612f98613036565b500290565b600082821015612faf57612faf613036565b500390565b600181811c90821680612fc857607f821691505b60208210811415612fe957634e487b7160e01b600052602260045260246000fd5b50919050565b601f8201601f191681016001600160401b03811182821017156130145761301461304c565b6040525050565b600060001982141561302f5761302f613036565b5060010190565b634e487b7160e01b600052601160045260246000fd5b634e487b7160e01b600052604160045260246000fd5b600060033d11156107d857600481823e5160e01c90565b600060443d1015613089576107d8565b6040516003193d81016004833e81513d6001600160401b0381602484011181841117156130ba5750505050506107d8565b82850191508151818111156130d4575050505050506107d8565b843d87010160208285010111156130f0575050505050506107d8565b6130ff60208286010187612fef565b509094505050505090565b6001600160e01b03198116811461171c57600080fdfe68747470733a2f2f73746f726167652e676f6f676c65617069732e636f6d2f74687265642d70726f746f636f6c2e61707073706f742e636f6d2f736d6172742d7574696c732f7b69647d2e6a736f6ea26469706673582212202a402f4c67bdcef0fd287170e02caa2009cb4a3d19cfb4dd73e4871923974b3564736f6c63430008030033",
  "linkReferences": {},
  "deployedLinkReferences": {}
}