{
  "_format": "hh-sol-artifact-1",
  "contractName": "ThredCore",
  "sourceName": "contracts/ThredCore/ThredCore.sol",
  "abi": [
    {
      "anonymous": false,
      "inputs": [
        {
          "indexed": true,
          "internalType": "address",
          "name": "account",
          "type": "address"
        },
        {
          "indexed": true,
          "internalType": "address",
          "name": "operator",
          "type": "address"
        },
        {
          "indexed": false,
          "internalType": "bool",
          "name": "approved",
          "type": "bool"
        }
      ],
      "name": "ApprovalForAll",
      "type": "event"
    },
    {
      "anonymous": false,
      "inputs": [
        {
          "indexed": false,
          "internalType": "uint8",
          "name": "version",
          "type": "uint8"
        }
      ],
      "name": "Initialized",
      "type": "event"
    },
    {
      "anonymous": false,
      "inputs": [
        {
          "indexed": true,
          "internalType": "uint256",
          "name": "tokenId",
          "type": "uint256"
        },
        {
          "indexed": true,
          "internalType": "address",
          "name": "signer",
          "type": "address"
        },
        {
          "indexed": true,
          "internalType": "address",
          "name": "user",
          "type": "address"
        }
      ],
      "name": "Install",
      "type": "event"
    },
    {
      "anonymous": false,
      "inputs": [
        {
          "indexed": false,
          "internalType": "address",
          "name": "account",
          "type": "address"
        }
      ],
      "name": "Paused",
      "type": "event"
    },
    {
      "anonymous": false,
      "inputs": [
        {
          "indexed": true,
          "internalType": "uint256",
          "name": "id",
          "type": "uint256"
        },
        {
          "indexed": false,
          "internalType": "bool",
          "name": "bounded",
          "type": "bool"
        }
      ],
      "name": "Soulbound",
      "type": "event"
    },
    {
      "anonymous": false,
      "inputs": [
        {
          "indexed": true,
          "internalType": "address",
          "name": "operator",
          "type": "address"
        },
        {
          "indexed": true,
          "internalType": "address",
          "name": "from",
          "type": "address"
        },
        {
          "indexed": true,
          "internalType": "address",
          "name": "to",
          "type": "address"
        },
        {
          "indexed": false,
          "internalType": "uint256[]",
          "name": "ids",
          "type": "uint256[]"
        },
        {
          "indexed": false,
          "internalType": "uint256[]",
          "name": "values",
          "type": "uint256[]"
        }
      ],
      "name": "TransferBatch",
      "type": "event"
    },
    {
      "anonymous": false,
      "inputs": [
        {
          "indexed": true,
          "internalType": "address",
          "name": "operator",
          "type": "address"
        },
        {
          "indexed": true,
          "internalType": "address",
          "name": "from",
          "type": "address"
        },
        {
          "indexed": true,
          "internalType": "address",
          "name": "to",
          "type": "address"
        },
        {
          "indexed": false,
          "internalType": "uint256",
          "name": "id",
          "type": "uint256"
        },
        {
          "indexed": false,
          "internalType": "uint256",
          "name": "value",
          "type": "uint256"
        }
      ],
      "name": "TransferSingle",
      "type": "event"
    },
    {
      "anonymous": false,
      "inputs": [
        {
          "indexed": false,
          "internalType": "string",
          "name": "value",
          "type": "string"
        },
        {
          "indexed": true,
          "internalType": "uint256",
          "name": "id",
          "type": "uint256"
        }
      ],
      "name": "URI",
      "type": "event"
    },
    {
      "anonymous": false,
      "inputs": [
        {
          "indexed": true,
          "internalType": "uint256",
          "name": "tokenId",
          "type": "uint256"
        },
        {
          "indexed": true,
          "internalType": "address",
          "name": "user",
          "type": "address"
        }
      ],
      "name": "Uninstall",
      "type": "event"
    },
    {
      "anonymous": false,
      "inputs": [
        {
          "indexed": false,
          "internalType": "address",
          "name": "account",
          "type": "address"
        }
      ],
      "name": "Unpaused",
      "type": "event"
    },
    {
      "inputs": [
        {
          "internalType": "address",
          "name": "account",
          "type": "address"
        },
        {
          "internalType": "uint256",
          "name": "id",
          "type": "uint256"
        }
      ],
      "name": "balanceOf",
      "outputs": [
        {
          "internalType": "uint256",
          "name": "",
          "type": "uint256"
        }
      ],
      "stateMutability": "view",
      "type": "function"
    },
    {
      "inputs": [
        {
          "internalType": "address[]",
          "name": "accounts",
          "type": "address[]"
        },
        {
          "internalType": "uint256[]",
          "name": "ids",
          "type": "uint256[]"
        }
      ],
      "name": "balanceOfBatch",
      "outputs": [
        {
          "internalType": "uint256[]",
          "name": "",
          "type": "uint256[]"
        }
      ],
      "stateMutability": "view",
      "type": "function"
    },
    {
      "inputs": [
        {
          "components": [
            {
              "internalType": "string",
              "name": "id",
              "type": "string"
            },
            {
              "internalType": "address",
              "name": "signer",
              "type": "address"
            },
            {
              "internalType": "address",
              "name": "payAddress",
              "type": "address"
            },
            {
              "internalType": "address",
              "name": "feeAddress",
              "type": "address"
            },
            {
              "internalType": "uint256",
              "name": "fee",
              "type": "uint256"
            },
            {
              "internalType": "uint256",
              "name": "price",
              "type": "uint256"
            },
            {
              "internalType": "uint256",
              "name": "chainId",
              "type": "uint256"
            },
            {
              "internalType": "uint256",
              "name": "version",
              "type": "uint256"
            },
            {
              "internalType": "bytes",
              "name": "signature",
              "type": "bytes"
            }
          ],
          "internalType": "struct ThredCore.SmartUtil",
          "name": "util",
          "type": "tuple"
        }
      ],
      "name": "buySmartUtil",
      "outputs": [],
      "stateMutability": "payable",
      "type": "function"
    },
    {
      "inputs": [],
      "name": "deployerAddress",
      "outputs": [
        {
          "internalType": "address",
          "name": "",
          "type": "address"
        }
      ],
      "stateMutability": "view",
      "type": "function"
    },
    {
      "inputs": [
        {
          "internalType": "address",
          "name": "user",
          "type": "address"
        }
      ],
      "name": "fetchAppsForUser",
      "outputs": [
        {
          "internalType": "string[]",
          "name": "",
          "type": "string[]"
        }
      ],
      "stateMutability": "view",
      "type": "function"
    },
    {
      "inputs": [
        {
          "internalType": "string",
          "name": "id",
          "type": "string"
        },
        {
          "internalType": "address",
          "name": "signer",
          "type": "address"
        }
      ],
      "name": "fetchDownloads",
      "outputs": [
        {
          "internalType": "uint256",
          "name": "",
          "type": "uint256"
        }
      ],
      "stateMutability": "view",
      "type": "function"
    },
    {
      "inputs": [
        {
          "internalType": "address[]",
          "name": "payoutAddresses",
          "type": "address[]"
        }
      ],
      "name": "fetchPayouts",
      "outputs": [
        {
          "internalType": "uint256[]",
          "name": "",
          "type": "uint256[]"
        }
      ],
      "stateMutability": "view",
      "type": "function"
    },
    {
      "inputs": [
        {
          "internalType": "address",
          "name": "user",
          "type": "address"
        }
      ],
      "name": "fetchRep",
      "outputs": [
        {
          "internalType": "uint256",
          "name": "",
          "type": "uint256"
        }
      ],
      "stateMutability": "view",
      "type": "function"
    },
    {
      "inputs": [
        {
          "internalType": "uint256",
          "name": "tokenId",
          "type": "uint256"
        }
      ],
      "name": "getAppIdForToken",
      "outputs": [
        {
          "internalType": "string",
          "name": "",
          "type": "string"
        }
      ],
      "stateMutability": "view",
      "type": "function"
    },
    {
      "inputs": [],
      "name": "getChainID",
      "outputs": [
        {
          "internalType": "uint256",
          "name": "",
          "type": "uint256"
        }
      ],
      "stateMutability": "view",
      "type": "function"
    },
    {
      "inputs": [
        {
          "internalType": "address",
          "name": "owner",
          "type": "address"
        },
        {
          "internalType": "string",
          "name": "domain",
          "type": "string"
        },
        {
          "internalType": "string",
          "name": "version",
          "type": "string"
        }
      ],
      "name": "initialize",
      "outputs": [],
      "stateMutability": "nonpayable",
      "type": "function"
    },
    {
      "inputs": [
        {
          "internalType": "address",
          "name": "account",
          "type": "address"
        },
        {
          "internalType": "address",
          "name": "operator",
          "type": "address"
        }
      ],
      "name": "isApprovedForAll",
      "outputs": [
        {
          "internalType": "bool",
          "name": "",
          "type": "bool"
        }
      ],
      "stateMutability": "view",
      "type": "function"
    },
    {
      "inputs": [
        {
          "internalType": "uint256",
          "name": "id",
          "type": "uint256"
        }
      ],
      "name": "isSoulbound",
      "outputs": [
        {
          "internalType": "bool",
          "name": "",
          "type": "bool"
        }
      ],
      "stateMutability": "view",
      "type": "function"
    },
    {
      "inputs": [],
      "name": "pause",
      "outputs": [],
      "stateMutability": "nonpayable",
      "type": "function"
    },
    {
      "inputs": [],
      "name": "paused",
      "outputs": [
        {
          "internalType": "bool",
          "name": "",
          "type": "bool"
        }
      ],
      "stateMutability": "view",
      "type": "function"
    },
    {
      "inputs": [
        {
          "internalType": "address",
          "name": "from",
          "type": "address"
        },
        {
          "internalType": "address",
          "name": "to",
          "type": "address"
        },
        {
          "internalType": "uint256[]",
          "name": "ids",
          "type": "uint256[]"
        },
        {
          "internalType": "uint256[]",
          "name": "amounts",
          "type": "uint256[]"
        },
        {
          "internalType": "bytes",
          "name": "data",
          "type": "bytes"
        }
      ],
      "name": "safeBatchTransferFrom",
      "outputs": [],
      "stateMutability": "nonpayable",
      "type": "function"
    },
    {
      "inputs": [
        {
          "internalType": "address",
          "name": "from",
          "type": "address"
        },
        {
          "internalType": "address",
          "name": "to",
          "type": "address"
        },
        {
          "internalType": "uint256",
          "name": "id",
          "type": "uint256"
        },
        {
          "internalType": "uint256",
          "name": "amount",
          "type": "uint256"
        },
        {
          "internalType": "bytes",
          "name": "data",
          "type": "bytes"
        }
      ],
      "name": "safeTransferFrom",
      "outputs": [],
      "stateMutability": "nonpayable",
      "type": "function"
    },
    {
      "inputs": [
        {
          "internalType": "address",
          "name": "operator",
          "type": "address"
        },
        {
          "internalType": "bool",
          "name": "approved",
          "type": "bool"
        }
      ],
      "name": "setApprovalForAll",
      "outputs": [],
      "stateMutability": "nonpayable",
      "type": "function"
    },
    {
      "inputs": [
        {
          "internalType": "bytes4",
          "name": "interfaceId",
          "type": "bytes4"
        }
      ],
      "name": "supportsInterface",
      "outputs": [
        {
          "internalType": "bool",
          "name": "",
          "type": "bool"
        }
      ],
      "stateMutability": "view",
      "type": "function"
    },
    {
      "inputs": [],
      "name": "unpause",
      "outputs": [],
      "stateMutability": "nonpayable",
      "type": "function"
    },
    {
      "inputs": [
        {
          "internalType": "uint256",
          "name": "",
          "type": "uint256"
        }
      ],
      "name": "uri",
      "outputs": [
        {
          "internalType": "string",
          "name": "",
          "type": "string"
        }
      ],
      "stateMutability": "view",
      "type": "function"
    },
    {
      "inputs": [],
      "name": "withDrawFunds",
      "outputs": [],
      "stateMutability": "nonpayable",
      "type": "function"
    }
  ],
  "bytecode": "0x608060405234801561001057600080fd5b50613384806100206000396000f3fe6080604052600436106101345760003560e01c80638456cb59116100ab578063bbedeb1f1161006f578063bbedeb1f14610348578063d2ab9a831461037f578063d7dc43a5146103ac578063e985e9c5146103cc578063efdee94f14610415578063f242432a1461044e57610134565b80638456cb59146102ad57806390657147146102c2578063911ec470146102e2578063a22cb46514610313578063b78da3861461033357610134565b80633f4ba83a116100fd5780633f4ba83a1461020b57806345d2dc88146102205780634e1273f414610233578063564b81ef146102605780635c975abb14610275578063608595b51461028d57610134565b8062fdd58e1461013957806301ffc9a71461016c5780630e89341c1461019c5780632eb2c2d6146101c957806338cfbce6146101eb575b600080fd5b34801561014557600080fd5b506101596101543660046129d0565b61046e565b6040519081526020015b60405180910390f35b34801561017857600080fd5b5061018c610187366004612b32565b610506565b6040519015158152602001610163565b3480156101a857600080fd5b506101bc6101b7366004612c1d565b61055a565b6040516101639190612e2f565b3480156101d557600080fd5b506101e96101e436600461281f565b6105ee565b005b3480156101f757600080fd5b506101bc610206366004612c1d565b61063a565b34801561021757600080fd5b506101e9610658565b6101e961022e366004612be5565b6106ad565b34801561023f57600080fd5b5061025361024e366004612a68565b61098b565b6040516101639190612df7565b34801561026c57600080fd5b50610159610aec565b34801561028157600080fd5b5060655460ff1661018c565b34801561029957600080fd5b506101596102a8366004612b6a565b610af1565b3480156102b957600080fd5b506101e9610b3a565b3480156102ce57600080fd5b506101e96102dd366004612960565b610b8d565b3480156102ee57600080fd5b5061018c6102fd366004612c1d565b6000908152610130602052604090205460ff1690565b34801561031f57600080fd5b506101e961032e366004612926565b610cf0565b34801561033f57600080fd5b506101e9610cff565b34801561035457600080fd5b506101596103633660046127d3565b6001600160a01b03166000908152610134602052604090205490565b34801561038b57600080fd5b5061039f61039a3660046127d3565b610eb3565b6040516101639190612d96565b3480156103b857600080fd5b506102536103c73660046129f9565b610f83565b3480156103d857600080fd5b5061018c6103e73660046127ed565b6001600160a01b03918216600090815260fe6020908152604080832093909416825291909152205460ff1690565b34801561042157600080fd5b5061012f54610436906001600160a01b031681565b6040516001600160a01b039091168152602001610163565b34801561045a57600080fd5b506101e96104693660046128c4565b61107a565b60006001600160a01b0383166104de5760405162461bcd60e51b815260206004820152602a60248201527f455243313135353a2061646472657373207a65726f206973206e6f742061207660448201526930b634b21037bbb732b960b11b60648201526084015b60405180910390fd5b50600090815260fd602090815260408083206001600160a01b03949094168352929052205490565b60006001600160e01b03198216636cdb3d1360e11b148061053757506001600160e01b031982166303a24d0760e21b145b8061055257506301ffc9a760e01b6001600160e01b03198316145b90505b919050565b606060ff805461056990613193565b80601f016020809104026020016040519081016040528092919081815260200182805461059590613193565b80156105e25780601f106105b7576101008083540402835291602001916105e2565b820191906000526020600020905b8154815290600101906020018083116105c557829003601f168201915b50505050509050919050565b6001600160a01b03851633148061060a575061060a85336103e7565b6106265760405162461bcd60e51b81526004016104d590612e42565b61063385858585856110bf565b5050505050565b60008181526101366020526040902080546060919061056990613193565b61012f546001600160a01b031633146106a35760405162461bcd60e51b815260206004820152600d60248201526c556e617574686f72697a65642160981b60448201526064016104d5565b6106ab6112d7565b565b600260015414156107005760405162461bcd60e51b815260206004820152601f60248201527f5265656e7472616e637947756172643a207265656e7472616e742063616c6c0060448201526064016104d5565b600260015560655460ff161561074d5760405162461bcd60e51b8152602060048201526012602482015271151c985b9cd858dd1a5b99c814185d5cd95960721b60448201526064016104d5565b600061075882611329565b905061076a60408301602084016127d3565b6001600160a01b0316816001600160a01b0316146107e15760405162461bcd60e51b815260206004820152602e60248201527f556e617574686f72697a6564205369676e65722e204170702063616e206e6f7460448201526d1031329034b739ba30b63632b21760911b60648201526084016104d5565b8160a0013534146108295760405162461bcd60e51b8152602060048201526012602482015271496e73756666696369656e742046756e647360701b60448201526064016104d5565b610831610aec565b8260c00135146108975760405162461bcd60e51b815260206004820152602b60248201527f54686973206974656d206973206e6f7420636f6d70617469626c65207769746860448201526a103a3434b99031b430b4b760a91b60648201526084016104d5565b60006108a38380612fb3565b836040516020016108b693929190612cca565b60408051601f198184030181529181528151602092830120600081815261013790935291205490915060e0840135101561094e5760405162461bcd60e51b815260206004820152603360248201527f5369676e617475726520457870697265642e20506c65617365207573652061206044820152726e6577657220617070207369676e617475726560681b60648201526084016104d5565b60008181526101376020526040902060e0840135905561096f838383611383565b61097883611477565b61098283836115c0565b50506001805550565b606081518351146109f05760405162461bcd60e51b815260206004820152602960248201527f455243313135353a206163636f756e747320616e6420696473206c656e677468604482015268040dad2e6dac2e8c6d60bb1b60648201526084016104d5565b600083516001600160401b03811115610a1957634e487b7160e01b600052604160045260246000fd5b604051908082528060200260200182016040528015610a42578160200160208202803683370190505b50905060005b8451811015610ae457610aa9858281518110610a7457634e487b7160e01b600052603260045260246000fd5b6020026020010151858381518110610a9c57634e487b7160e01b600052603260045260246000fd5b602002602001015161046e565b828281518110610ac957634e487b7160e01b600052603260045260246000fd5b6020908102919091010152610add816131fa565b9050610a48565b509392505050565b465b90565b600080848484604051602001610b0993929190612cca565b60408051601f19818403018152918152815160209283012060009081526101359092529020549150505b9392505050565b61012f546001600160a01b03163314610b855760405162461bcd60e51b815260206004820152600d60248201526c556e617574686f72697a65642160981b60448201526064016104d5565b6106ab6115ee565b600054610100900460ff1615808015610bad5750600054600160ff909116105b80610bc75750303b158015610bc7575060005460ff166001145b610c2a5760405162461bcd60e51b815260206004820152602e60248201527f496e697469616c697a61626c653a20636f6e747261637420697320616c72656160448201526d191e481a5b9a5d1a585b1a5e995960921b60648201526084016104d5565b6000805460ff191660011790558015610c4d576000805461ff0019166101001790555b610c5561162b565b610c5d61165a565b610c7e6040518060800160405280604f8152602001613300604f9139611689565b610c8883836116bc565b61012f80546001600160a01b0319166001600160a01b0386161790558015610cea576000805461ff0019169055604051600181527f7f26b83ff96e1f2b6a682f133852f6798a09c465da95921460cefb38474024989060200160405180910390a15b50505050565b610cfb3383836116ed565b5050565b60026001541415610d525760405162461bcd60e51b815260206004820152601f60248201527f5265656e7472616e637947756172643a207265656e7472616e742063616c6c0060448201526064016104d5565b600260015560655460ff161580610d74575061012f546001600160a01b031633145b610db55760405162461bcd60e51b8152602060048201526012602482015271151c985b9cd858dd1a5b99c814185d5cd95960721b60448201526064016104d5565b336000908152610131602052604090205480610e0a5760405162461bcd60e51b81526020600482015260146024820152732737ba3434b733903a37903bb4ba34323930bb9760611b60448201526064016104d5565b604051600090339083908381818185875af1925050503d8060008114610e4c576040519150601f19603f3d011682016040523d82523d6000602084013e610e51565b606091505b5050905080610e9a5760405162461bcd60e51b815260206004820152601560248201527429b7b6b2ba3434b733903bb2b73a103bb937b7339760591b60448201526064016104d5565b5050336000908152610131602052604081205560018055565b60606000610ec16101325490565b90506000816001600160401b03811115610eeb57634e487b7160e01b600052604160045260246000fd5b604051908082528060200260200182016040528015610f1e57816020015b6060815260200190600190039081610f095790505b50905060005b82811015610ae4576000610f38868361046e565b1115610f7357610f478161063a565b828281518110610f6757634e487b7160e01b600052603260045260246000fd5b60200260200101819052505b610f7c816131fa565b9050610f24565b60606000826001600160401b03811115610fad57634e487b7160e01b600052604160045260246000fd5b604051908082528060200260200182016040528015610fd6578160200160208202803683370190505b50905060005b83811015610ae457610131600086868481811061100957634e487b7160e01b600052603260045260246000fd5b905060200201602081019061101e91906127d3565b6001600160a01b03166001600160a01b031681526020019081526020016000205482828151811061105f57634e487b7160e01b600052603260045260246000fd5b6020908102919091010152611073816131fa565b9050610fdc565b6001600160a01b038516331480611096575061109685336103e7565b6110b25760405162461bcd60e51b81526004016104d590612e42565b61063385858585856117ce565b81518351146111215760405162461bcd60e51b815260206004820152602860248201527f455243313135353a2069647320616e6420616d6f756e7473206c656e677468206044820152670dad2e6dac2e8c6d60c31b60648201526084016104d5565b6001600160a01b0384166111475760405162461bcd60e51b81526004016104d590612ed9565b33611156818787878787611918565b60005b845181101561125b57600085828151811061118457634e487b7160e01b600052603260045260246000fd5b6020026020010151905060008583815181106111b057634e487b7160e01b600052603260045260246000fd5b602090810291909101810151600084815260fd835260408082206001600160a01b038e1683529093529190912054909150818110156112015760405162461bcd60e51b81526004016104d590612f1e565b600083815260fd602090815260408083206001600160a01b038e8116855292528083208585039055908b1682528120805484929061124090849061301a565b9250508190555050505080611254906131fa565b9050611159565b50846001600160a01b0316866001600160a01b0316826001600160a01b03167f4a39dc06d4c0dbc64b70af90fd698a233a518aa5d07e595d983b8c0526c8f7fb87876040516112ab929190612e0a565b60405180910390a46112c18187878787876119ec565b6112cf818787878787611a75565b505050505050565b6112df611be0565b6065805460ff191690557f5db9ee0a495bf2e6ff9c91a7834c1ba4fdd244a5e8aa4e537bd38aeae4b073aa335b6040516001600160a01b03909116815260200160405180910390a1565b60008061133583611c29565b9050610b3381611349610100860186612fb3565b8080601f016020809104026020016040519081016040528093929190818152602001838380828437600092019190915250611d2692505050565b60008181526101336020526040902054806113bf576113a761013280546001019055565b50610132546000828152610133602052604090208190555b6113c98480612fb3565b6000838152610136602052604090206113e39290916125cd565b506114003382600160405180602001604052806000815250611d42565b61140b816001611e6d565b60405133906001600160a01b0385169083907f8b71218a96aa03ec6471183a969f2c9c2730e8f91c3f2aecd51913aaf511c7ec90600090a46000828152610135602052604090205461145e906001611ec5565b6000928352610135602052604090922091909155505050565b60006114888260a001356002611ed1565b9050600061149e8360a001358460800135611ed1565b905060006114ba826114b460a087013586611f16565b90611f16565b90506114f58161013160006114d56060890160408a016127d3565b6001600160a01b0316815260208101919091526040016000205490611ec5565b610131600061150a60608801604089016127d3565b6001600160a01b03166001600160a01b031681526020019081526020016000208190555061154a8261013160008760600160208101906114d591906127d3565b610131600061155f60808801606089016127d3565b6001600160a01b039081168252602080830193909352604091820160009081209490945561012f5416835261013190915290205461159d9084611ec5565b61012f546001600160a01b03166000908152610131602052604090205550505050565b6115d0818360a0013560c8611f22565b6001600160a01b039091166000908152610134602052604090205550565b6115f6611f64565b6065805460ff191660011790557f62e78cea01bee320cd4e420270b5ea74000d11b0c9f74754ebdbfc544b05a25861130c3390565b600054610100900460ff166116525760405162461bcd60e51b81526004016104d590612f68565b6106ab611faa565b600054610100900460ff166116815760405162461bcd60e51b81526004016104d590612f68565b6106ab611fd7565b600054610100900460ff166116b05760405162461bcd60e51b81526004016104d590612f68565b6116b98161200a565b50565b600054610100900460ff166116e35760405162461bcd60e51b81526004016104d590612f68565b610cfb828261203a565b816001600160a01b0316836001600160a01b031614156117615760405162461bcd60e51b815260206004820152602960248201527f455243313135353a2073657474696e6720617070726f76616c20737461747573604482015268103337b91039b2b63360b91b60648201526084016104d5565b6001600160a01b03838116600081815260fe6020908152604080832094871680845294825291829020805460ff191686151590811790915591519182527f17307eab39ab6107e8899845ad3d59bd9653f200f220920489ca2b5937696c31910160405180910390a3505050565b6001600160a01b0384166117f45760405162461bcd60e51b81526004016104d590612ed9565b3360006118008561207b565b9050600061180d8561207b565b905061181d838989858589611918565b600086815260fd602090815260408083206001600160a01b038c168452909152902054858110156118605760405162461bcd60e51b81526004016104d590612f1e565b600087815260fd602090815260408083206001600160a01b038d8116855292528083208985039055908a1682528120805488929061189f90849061301a565b909155505060408051888152602081018890526001600160a01b03808b16928c821692918816917fc3d58168c5ae7397731d063d5bbf3d657854427343f4c083240f7aacaa2d0f62910160405180910390a46118ff848a8a86868a6119ec565b61190d848a8a8a8a8a6120d4565b505050505050505050565b60005b83518110156119e35761196584828151811061194757634e487b7160e01b600052603260045260246000fd5b60200260200101516000908152610130602052604090205460ff1690565b156119d3576001600160a01b038616158061198757506001600160a01b038516155b6119d35760405162461bcd60e51b815260206004820152601b60248201527f536f756c626f756e642c204e6f6e2d5472616e7366657261626c65000000000060448201526064016104d5565b6119dc816131fa565b905061191b565b50505050505050565b60005b83518110156119e3576001600160a01b038516611a6557856001600160a01b0316848281518110611a3057634e487b7160e01b600052603260045260246000fd5b60200260200101517fbf6ee8d3b279c99757fe8e0b3019bb6249544494b14dba9b2ceed2585f9ba1a060405160405180910390a35b611a6e816131fa565b90506119ef565b6001600160a01b0384163b156112cf5760405163bc197c8160e01b81526001600160a01b0385169063bc197c8190611ab99089908990889088908890600401612cf3565b602060405180830381600087803b158015611ad357600080fd5b505af1925050508015611b03575060408051601f3d908101601f19168201909252611b0091810190612b4e565b60015b611bb057611b0f613241565b806308c379a01415611b495750611b24613258565b80611b2f5750611b4b565b8060405162461bcd60e51b81526004016104d59190612e2f565b505b60405162461bcd60e51b815260206004820152603460248201527f455243313135353a207472616e7366657220746f206e6f6e20455243313135356044820152732932b1b2b4bb32b91034b6b83632b6b2b73a32b960611b60648201526084016104d5565b6001600160e01b0319811663bc197c8160e01b146119e35760405162461bcd60e51b81526004016104d590612e91565b60655460ff166106ab5760405162461bcd60e51b815260206004820152601460248201527314185d5cd8589b194e881b9bdd081c185d5cd95960621b60448201526064016104d5565b60006105527f4d9b8ac653c49ba16041b793b146b575ec4f60cf3a4bff6525fd310b47cfc61c611c598480612fb3565b604051611c67929190612cba565b6040518091039020846020016020810190611c8291906127d3565b611c9260608701604088016127d3565b611ca260808801606089016127d3565b6040805160208101969096528501939093526001600160a01b0391821660608501528116608084810191909152911660a0838101919091529085013560c0838101919091529085013560e08381019190915290850135610100830152840135610120820152610140016040516020818303038152906040528051906020012061219e565b6000806000611d3585856121ec565b91509150610ae481612232565b6001600160a01b038416611da25760405162461bcd60e51b815260206004820152602160248201527f455243313135353a206d696e7420746f20746865207a65726f206164647265736044820152607360f81b60648201526084016104d5565b336000611dae8561207b565b90506000611dbb8561207b565b9050611dcc83600089858589611918565b600086815260fd602090815260408083206001600160a01b038b16845290915281208054879290611dfe90849061301a565b909155505060408051878152602081018790526001600160a01b03808a1692600092918716917fc3d58168c5ae7397731d063d5bbf3d657854427343f4c083240f7aacaa2d0f62910160405180910390a4611e5e836000898585896119ec565b6119e3836000898989896120d4565b60008281526101306020908152604091829020805460ff1916841515908117909155915191825283917fe0abe9435049152fa612635eac4022235b6f5c156ecf799bdac41b11b9fa2211910160405180910390a25050565b6000610b33828461301a565b600080611eff611ee36002600a61308f565b611eee90606461315d565b611ef9866064612435565b90612441565b90506000611f0d8285612435565b95945050505050565b6000610b33828461317c565b6000611f5c611f3c611f3585600a612441565b8490611ec5565b6001600160a01b0386166000908152610134602052604090205490611ec5565b949350505050565b60655460ff16156106ab5760405162461bcd60e51b815260206004820152601060248201526f14185d5cd8589b194e881c185d5cd95960821b60448201526064016104d5565b600054610100900460ff16611fd15760405162461bcd60e51b81526004016104d590612f68565b60018055565b600054610100900460ff16611ffe5760405162461bcd60e51b81526004016104d590612f68565b6065805460ff19169055565b600054610100900460ff166120315760405162461bcd60e51b81526004016104d590612f68565b6116b98161244d565b600054610100900460ff166120615760405162461bcd60e51b81526004016104d590612f68565b815160209283012081519190920120609791909155609855565b604080516001808252818301909252606091600091906020808301908036833701905050905082816000815181106120c357634e487b7160e01b600052603260045260246000fd5b602090810291909101015292915050565b6001600160a01b0384163b156112cf5760405163f23a6e6160e01b81526001600160a01b0385169063f23a6e61906121189089908990889088908890600401612d51565b602060405180830381600087803b15801561213257600080fd5b505af1925050508015612162575060408051601f3d908101601f1916820190925261215f91810190612b4e565b60015b61216e57611b0f613241565b6001600160e01b0319811663f23a6e6160e01b146119e35760405162461bcd60e51b81526004016104d590612e91565b60006105526121ab612460565b8360405161190160f01b6020820152602281018390526042810182905260009060620160405160208183030381529060405280519060200120905092915050565b6000808251604114156122235760208301516040840151606085015160001a612217878285856124e0565b9450945050505061222b565b506000905060025b9250929050565b600081600481111561225457634e487b7160e01b600052602160045260246000fd5b141561225f576116b9565b600181600481111561228157634e487b7160e01b600052602160045260246000fd5b14156122cf5760405162461bcd60e51b815260206004820152601860248201527f45434453413a20696e76616c6964207369676e6174757265000000000000000060448201526064016104d5565b60028160048111156122f157634e487b7160e01b600052602160045260246000fd5b141561233f5760405162461bcd60e51b815260206004820152601f60248201527f45434453413a20696e76616c6964207369676e6174757265206c656e6774680060448201526064016104d5565b600381600481111561236157634e487b7160e01b600052602160045260246000fd5b14156123ba5760405162461bcd60e51b815260206004820152602260248201527f45434453413a20696e76616c6964207369676e6174757265202773272076616c604482015261756560f01b60648201526084016104d5565b60048160048111156123dc57634e487b7160e01b600052602160045260246000fd5b14156116b95760405162461bcd60e51b815260206004820152602260248201527f45434453413a20696e76616c6964207369676e6174757265202776272076616c604482015261756560f01b60648201526084016104d5565b6000610b33828461315d565b6000610b338284613032565b8051610cfb9060ff906020840190612651565b60006124db7f8b73c3c69bb8fe3d512ecc4cf759cc79239f7b179b0ffacaa9a75d522b39400f61248f60975490565b6098546040805160208101859052908101839052606081018290524660808201523060a082015260009060c0016040516020818303038152906040528051906020012090509392505050565b905090565b6000807f7fffffffffffffffffffffffffffffff5d576e7357a4501ddfe92f46681b20a083111561251757506000905060036125c4565b8460ff16601b1415801561252f57508460ff16601c14155b1561254057506000905060046125c4565b6040805160008082526020820180845289905260ff881692820192909252606081018690526080810185905260019060a0016020604051602081039080840390855afa158015612594573d6000803e3d6000fd5b5050604051601f1901519150506001600160a01b0381166125bd576000600192509250506125c4565b9150600090505b94509492505050565b8280546125d990613193565b90600052602060002090601f0160209004810192826125fb5760008555612641565b82601f106126145782800160ff19823516178555612641565b82800160010185558215612641579182015b82811115612641578235825591602001919060010190612626565b5061264d9291506126c5565b5090565b82805461265d90613193565b90600052602060002090601f01602090048101928261267f5760008555612641565b82601f1061269857805160ff1916838001178555612641565b82800160010185558215612641579182015b828111156126415782518255916020019190600101906126aa565b5b8082111561264d57600081556001016126c6565b80356001600160a01b038116811461055557600080fd5b600082601f830112612701578081fd5b8135602061270e82612ff7565b60405161271b82826131ce565b8381528281019150858301600585901b8701840188101561273a578586fd5b855b858110156127585781358452928401929084019060010161273c565b5090979650505050505050565b600082601f830112612775578081fd5b81356001600160401b0381111561278e5761278e61322b565b6040516127a5601f8301601f1916602001826131ce565b8181528460208386010111156127b9578283fd5b816020850160208301379081016020019190915292915050565b6000602082840312156127e4578081fd5b610b33826126da565b600080604083850312156127ff578081fd5b612808836126da565b9150612816602084016126da565b90509250929050565b600080600080600060a08688031215612836578081fd5b61283f866126da565b945061284d602087016126da565b935060408601356001600160401b0380821115612868578283fd5b61287489838a016126f1565b94506060880135915080821115612889578283fd5b61289589838a016126f1565b935060808801359150808211156128aa578283fd5b506128b788828901612765565b9150509295509295909350565b600080600080600060a086880312156128db578081fd5b6128e4866126da565b94506128f2602087016126da565b9350604086013592506060860135915060808601356001600160401b0381111561291a578182fd5b6128b788828901612765565b60008060408385031215612938578182fd5b612941836126da565b915060208301358015158114612955578182fd5b809150509250929050565b600080600060608486031215612974578283fd5b61297d846126da565b925060208401356001600160401b0380821115612998578384fd5b6129a487838801612765565b935060408601359150808211156129b9578283fd5b506129c686828701612765565b9150509250925092565b600080604083850312156129e2578182fd5b6129eb836126da565b946020939093013593505050565b60008060208385031215612a0b578182fd5b82356001600160401b0380821115612a21578384fd5b818501915085601f830112612a34578384fd5b813581811115612a42578485fd5b8660208260051b8501011115612a56578485fd5b60209290920196919550909350505050565b60008060408385031215612a7a578182fd5b82356001600160401b0380821115612a90578384fd5b818501915085601f830112612aa3578384fd5b81356020612ab082612ff7565b604051612abd82826131ce565b8381528281019150858301600585901b870184018b1015612adc578889fd5b8896505b84871015612b0557612af1816126da565b835260019690960195918301918301612ae0565b5096505086013592505080821115612b1b578283fd5b50612b28858286016126f1565b9150509250929050565b600060208284031215612b43578081fd5b8135610b33816132e9565b600060208284031215612b5f578081fd5b8151610b33816132e9565b600080600060408486031215612b7e578081fd5b83356001600160401b0380821115612b94578283fd5b818601915086601f830112612ba7578283fd5b813581811115612bb5578384fd5b876020828501011115612bc6578384fd5b602092830195509350612bdc91860190506126da565b90509250925092565b600060208284031215612bf6578081fd5b81356001600160401b03811115612c0b578182fd5b82016101208185031215610b33578182fd5b600060208284031215612c2e578081fd5b5035919050565b6000815180845260208085019450808401835b83811015612c6457815187529582019590820190600101612c48565b509495945050505050565b60008151808452815b81811015612c9457602081850181015186830182015201612c78565b81811115612ca55782602083870101525b50601f01601f19169290920160200192915050565b6000828483379101908152919050565b6000838583375060609190911b6bffffffffffffffffffffffff19169101908152601401919050565b6001600160a01b0386811682528516602082015260a060408201819052600090612d1f90830186612c35565b8281036060840152612d318186612c35565b90508281036080840152612d458185612c6f565b98975050505050505050565b6001600160a01b03868116825285166020820152604081018490526060810183905260a060808201819052600090612d8b90830184612c6f565b979650505050505050565b6000602080830181845280855180835260408601915060408160051b8701019250838701855b82811015612dea57603f19888603018452612dd8858351612c6f565b94509285019290850190600101612dbc565b5092979650505050505050565b600060208252610b336020830184612c35565b600060408252612e1d6040830185612c35565b8281036020840152611f0d8185612c35565b600060208252610b336020830184612c6f565b6020808252602f908201527f455243313135353a2063616c6c6572206973206e6f7420746f6b656e206f776e60408201526e195c881b9bdc88185c1c1c9bdd9959608a1b606082015260800190565b60208082526028908201527f455243313135353a204552433131353552656365697665722072656a656374656040820152676420746f6b656e7360c01b606082015260800190565b60208082526025908201527f455243313135353a207472616e7366657220746f20746865207a65726f206164604082015264647265737360d81b606082015260800190565b6020808252602a908201527f455243313135353a20696e73756666696369656e742062616c616e636520666f60408201526939103a3930b739b332b960b11b606082015260800190565b6020808252602b908201527f496e697469616c697a61626c653a20636f6e7472616374206973206e6f74206960408201526a6e697469616c697a696e6760a81b606082015260800190565b6000808335601e19843603018112612fc9578283fd5b8301803591506001600160401b03821115612fe2578283fd5b60200191503681900382131561222b57600080fd5b60006001600160401b038211156130105761301061322b565b5060051b60200190565b6000821982111561302d5761302d613215565b500190565b60008261304d57634e487b7160e01b81526012600452602481fd5b500490565b80825b600180861161306457506125c4565b81870482111561307657613076613215565b8086161561308357918102915b9490941c938002613055565b6000610b3360001984846000826130a857506001610b33565b816130b557506000610b33565b81600181146130cb57600281146130d557613102565b6001915050610b33565b60ff8411156130e6576130e6613215565b6001841b9150848211156130fc576130fc613215565b50610b33565b5060208310610133831016604e8410600b8410161715613135575081810a8381111561313057613130613215565b610b33565b6131428484846001613052565b80860482111561315457613154613215565b02949350505050565b600081600019048311821515161561317757613177613215565b500290565b60008282101561318e5761318e613215565b500390565b600181811c908216806131a757607f821691505b602082108114156131c857634e487b7160e01b600052602260045260246000fd5b50919050565b601f8201601f191681016001600160401b03811182821017156131f3576131f361322b565b6040525050565b600060001982141561320e5761320e613215565b5060010190565b634e487b7160e01b600052601160045260246000fd5b634e487b7160e01b600052604160045260246000fd5b600060033d1115610aee57600481823e5160e01c90565b600060443d101561326857610aee565b6040516003193d81016004833e81513d6001600160401b038160248401118184111715613299575050505050610aee565b82850191508151818111156132b357505050505050610aee565b843d87010160208285010111156132cf57505050505050610aee565b6132de602082860101876131ce565b509094505050505090565b6001600160e01b0319811681146116b957600080fdfe68747470733a2f2f73746f726167652e676f6f676c65617069732e636f6d2f74687265642d70726f746f636f6c2e61707073706f742e636f6d2f736d6172742d7574696c732f7b69647d2e6a736f6ea264697066735822122003fc3ce8d0cd46e77f297fbd00167956067324930410f88b8148d13afe2d1a7a64736f6c63430008030033",
  "linkReferences": {},
  "deployedLinkReferences": {}
}