{
  "_format": "hh-sol-artifact-1",
  "contractName": "ThredCore",
  "sourceName": "contracts/ThredCore/ThredCore.sol",
  "abi": [
    {
      "anonymous": false,
      "inputs": [
        {
          "indexed": true,
          "internalType": "address",
          "name": "account",
          "type": "address"
        },
        {
          "indexed": true,
          "internalType": "address",
          "name": "operator",
          "type": "address"
        },
        {
          "indexed": false,
          "internalType": "bool",
          "name": "approved",
          "type": "bool"
        }
      ],
      "name": "ApprovalForAll",
      "type": "event"
    },
    {
      "anonymous": false,
      "inputs": [
        {
          "indexed": false,
          "internalType": "uint8",
          "name": "version",
          "type": "uint8"
        }
      ],
      "name": "Initialized",
      "type": "event"
    },
    {
      "anonymous": false,
      "inputs": [
        {
          "indexed": true,
          "internalType": "uint256",
          "name": "tokenId",
          "type": "uint256"
        },
        {
          "indexed": true,
          "internalType": "address",
          "name": "signer",
          "type": "address"
        },
        {
          "indexed": true,
          "internalType": "address",
          "name": "user",
          "type": "address"
        }
      ],
      "name": "Install",
      "type": "event"
    },
    {
      "anonymous": false,
      "inputs": [
        {
          "indexed": false,
          "internalType": "address",
          "name": "account",
          "type": "address"
        }
      ],
      "name": "Paused",
      "type": "event"
    },
    {
      "anonymous": false,
      "inputs": [
        {
          "indexed": true,
          "internalType": "uint256",
          "name": "id",
          "type": "uint256"
        },
        {
          "indexed": false,
          "internalType": "bool",
          "name": "bounded",
          "type": "bool"
        }
      ],
      "name": "Soulbound",
      "type": "event"
    },
    {
      "anonymous": false,
      "inputs": [
        {
          "indexed": true,
          "internalType": "address",
          "name": "operator",
          "type": "address"
        },
        {
          "indexed": true,
          "internalType": "address",
          "name": "from",
          "type": "address"
        },
        {
          "indexed": true,
          "internalType": "address",
          "name": "to",
          "type": "address"
        },
        {
          "indexed": false,
          "internalType": "uint256[]",
          "name": "ids",
          "type": "uint256[]"
        },
        {
          "indexed": false,
          "internalType": "uint256[]",
          "name": "values",
          "type": "uint256[]"
        }
      ],
      "name": "TransferBatch",
      "type": "event"
    },
    {
      "anonymous": false,
      "inputs": [
        {
          "indexed": true,
          "internalType": "address",
          "name": "operator",
          "type": "address"
        },
        {
          "indexed": true,
          "internalType": "address",
          "name": "from",
          "type": "address"
        },
        {
          "indexed": true,
          "internalType": "address",
          "name": "to",
          "type": "address"
        },
        {
          "indexed": false,
          "internalType": "uint256",
          "name": "id",
          "type": "uint256"
        },
        {
          "indexed": false,
          "internalType": "uint256",
          "name": "value",
          "type": "uint256"
        }
      ],
      "name": "TransferSingle",
      "type": "event"
    },
    {
      "anonymous": false,
      "inputs": [
        {
          "indexed": false,
          "internalType": "string",
          "name": "value",
          "type": "string"
        },
        {
          "indexed": true,
          "internalType": "uint256",
          "name": "id",
          "type": "uint256"
        }
      ],
      "name": "URI",
      "type": "event"
    },
    {
      "anonymous": false,
      "inputs": [
        {
          "indexed": true,
          "internalType": "uint256",
          "name": "tokenId",
          "type": "uint256"
        },
        {
          "indexed": true,
          "internalType": "address",
          "name": "user",
          "type": "address"
        }
      ],
      "name": "Uninstall",
      "type": "event"
    },
    {
      "anonymous": false,
      "inputs": [
        {
          "indexed": false,
          "internalType": "address",
          "name": "account",
          "type": "address"
        }
      ],
      "name": "Unpaused",
      "type": "event"
    },
    {
      "inputs": [
        {
          "internalType": "address",
          "name": "account",
          "type": "address"
        },
        {
          "internalType": "uint256",
          "name": "id",
          "type": "uint256"
        }
      ],
      "name": "balanceOf",
      "outputs": [
        {
          "internalType": "uint256",
          "name": "",
          "type": "uint256"
        }
      ],
      "stateMutability": "view",
      "type": "function"
    },
    {
      "inputs": [
        {
          "internalType": "address[]",
          "name": "accounts",
          "type": "address[]"
        },
        {
          "internalType": "uint256[]",
          "name": "ids",
          "type": "uint256[]"
        }
      ],
      "name": "balanceOfBatch",
      "outputs": [
        {
          "internalType": "uint256[]",
          "name": "",
          "type": "uint256[]"
        }
      ],
      "stateMutability": "view",
      "type": "function"
    },
    {
      "inputs": [
        {
          "components": [
            {
              "internalType": "string",
              "name": "id",
              "type": "string"
            },
            {
              "internalType": "address",
              "name": "signer",
              "type": "address"
            },
            {
              "internalType": "address",
              "name": "payAddress",
              "type": "address"
            },
            {
              "internalType": "address",
              "name": "feeAddress",
              "type": "address"
            },
            {
              "internalType": "uint256",
              "name": "fee",
              "type": "uint256"
            },
            {
              "internalType": "uint256",
              "name": "price",
              "type": "uint256"
            },
            {
              "internalType": "uint256",
              "name": "chainId",
              "type": "uint256"
            },
            {
              "internalType": "uint256",
              "name": "version",
              "type": "uint256"
            },
            {
              "internalType": "bool",
              "name": "listed",
              "type": "bool"
            },
            {
              "internalType": "bytes",
              "name": "signature",
              "type": "bytes"
            }
          ],
          "internalType": "struct ThredCore.SmartUtil",
          "name": "util",
          "type": "tuple"
        }
      ],
      "name": "buySmartUtil",
      "outputs": [],
      "stateMutability": "payable",
      "type": "function"
    },
    {
      "inputs": [],
      "name": "deployerAddress",
      "outputs": [
        {
          "internalType": "address",
          "name": "",
          "type": "address"
        }
      ],
      "stateMutability": "view",
      "type": "function"
    },
    {
      "inputs": [
        {
          "internalType": "address",
          "name": "user",
          "type": "address"
        }
      ],
      "name": "fetchAppsForUser",
      "outputs": [
        {
          "internalType": "string[]",
          "name": "",
          "type": "string[]"
        }
      ],
      "stateMutability": "view",
      "type": "function"
    },
    {
      "inputs": [
        {
          "internalType": "string",
          "name": "id",
          "type": "string"
        },
        {
          "internalType": "address",
          "name": "signer",
          "type": "address"
        }
      ],
      "name": "fetchDownloads",
      "outputs": [
        {
          "internalType": "uint256",
          "name": "",
          "type": "uint256"
        }
      ],
      "stateMutability": "view",
      "type": "function"
    },
    {
      "inputs": [
        {
          "internalType": "address[]",
          "name": "payoutAddresses",
          "type": "address[]"
        }
      ],
      "name": "fetchPayouts",
      "outputs": [
        {
          "internalType": "uint256[]",
          "name": "",
          "type": "uint256[]"
        }
      ],
      "stateMutability": "view",
      "type": "function"
    },
    {
      "inputs": [
        {
          "internalType": "address",
          "name": "user",
          "type": "address"
        }
      ],
      "name": "fetchRep",
      "outputs": [
        {
          "internalType": "uint256",
          "name": "",
          "type": "uint256"
        }
      ],
      "stateMutability": "view",
      "type": "function"
    },
    {
      "inputs": [
        {
          "internalType": "uint256",
          "name": "tokenId",
          "type": "uint256"
        }
      ],
      "name": "getAppIdForToken",
      "outputs": [
        {
          "internalType": "string",
          "name": "",
          "type": "string"
        }
      ],
      "stateMutability": "view",
      "type": "function"
    },
    {
      "inputs": [],
      "name": "getChainID",
      "outputs": [
        {
          "internalType": "uint256",
          "name": "",
          "type": "uint256"
        }
      ],
      "stateMutability": "view",
      "type": "function"
    },
    {
      "inputs": [
        {
          "internalType": "address",
          "name": "owner",
          "type": "address"
        },
        {
          "internalType": "string",
          "name": "domain",
          "type": "string"
        },
        {
          "internalType": "string",
          "name": "version",
          "type": "string"
        }
      ],
      "name": "initialize",
      "outputs": [],
      "stateMutability": "nonpayable",
      "type": "function"
    },
    {
      "inputs": [
        {
          "internalType": "address",
          "name": "account",
          "type": "address"
        },
        {
          "internalType": "address",
          "name": "operator",
          "type": "address"
        }
      ],
      "name": "isApprovedForAll",
      "outputs": [
        {
          "internalType": "bool",
          "name": "",
          "type": "bool"
        }
      ],
      "stateMutability": "view",
      "type": "function"
    },
    {
      "inputs": [
        {
          "internalType": "uint256",
          "name": "id",
          "type": "uint256"
        }
      ],
      "name": "isSoulbound",
      "outputs": [
        {
          "internalType": "bool",
          "name": "",
          "type": "bool"
        }
      ],
      "stateMutability": "view",
      "type": "function"
    },
    {
      "inputs": [],
      "name": "pause",
      "outputs": [],
      "stateMutability": "nonpayable",
      "type": "function"
    },
    {
      "inputs": [],
      "name": "paused",
      "outputs": [
        {
          "internalType": "bool",
          "name": "",
          "type": "bool"
        }
      ],
      "stateMutability": "view",
      "type": "function"
    },
    {
      "inputs": [
        {
          "internalType": "address",
          "name": "from",
          "type": "address"
        },
        {
          "internalType": "address",
          "name": "to",
          "type": "address"
        },
        {
          "internalType": "uint256[]",
          "name": "ids",
          "type": "uint256[]"
        },
        {
          "internalType": "uint256[]",
          "name": "amounts",
          "type": "uint256[]"
        },
        {
          "internalType": "bytes",
          "name": "data",
          "type": "bytes"
        }
      ],
      "name": "safeBatchTransferFrom",
      "outputs": [],
      "stateMutability": "nonpayable",
      "type": "function"
    },
    {
      "inputs": [
        {
          "internalType": "address",
          "name": "from",
          "type": "address"
        },
        {
          "internalType": "address",
          "name": "to",
          "type": "address"
        },
        {
          "internalType": "uint256",
          "name": "id",
          "type": "uint256"
        },
        {
          "internalType": "uint256",
          "name": "amount",
          "type": "uint256"
        },
        {
          "internalType": "bytes",
          "name": "data",
          "type": "bytes"
        }
      ],
      "name": "safeTransferFrom",
      "outputs": [],
      "stateMutability": "nonpayable",
      "type": "function"
    },
    {
      "inputs": [
        {
          "internalType": "address",
          "name": "operator",
          "type": "address"
        },
        {
          "internalType": "bool",
          "name": "approved",
          "type": "bool"
        }
      ],
      "name": "setApprovalForAll",
      "outputs": [],
      "stateMutability": "nonpayable",
      "type": "function"
    },
    {
      "inputs": [
        {
          "internalType": "bytes4",
          "name": "interfaceId",
          "type": "bytes4"
        }
      ],
      "name": "supportsInterface",
      "outputs": [
        {
          "internalType": "bool",
          "name": "",
          "type": "bool"
        }
      ],
      "stateMutability": "view",
      "type": "function"
    },
    {
      "inputs": [],
      "name": "unpause",
      "outputs": [],
      "stateMutability": "nonpayable",
      "type": "function"
    },
    {
      "inputs": [
        {
          "internalType": "uint256",
          "name": "",
          "type": "uint256"
        }
      ],
      "name": "uri",
      "outputs": [
        {
          "internalType": "string",
          "name": "",
          "type": "string"
        }
      ],
      "stateMutability": "view",
      "type": "function"
    },
    {
      "inputs": [],
      "name": "withDrawFunds",
      "outputs": [],
      "stateMutability": "nonpayable",
      "type": "function"
    }
  ],
  "bytecode": "0x608060405234801561001057600080fd5b50613424806100206000396000f3fe6080604052600436106101345760003560e01c806390657147116100ab578063bbedeb1f1161006f578063bbedeb1f14610348578063d2ab9a831461037f578063d7dc43a5146103ac578063e985e9c5146103cc578063efdee94f14610415578063f242432a1461044e57610134565b806390657147146102af578063911ec470146102cf578063a22cb46514610300578063b267274514610320578063b78da3861461033357610134565b80633f4ba83a116100fd5780633f4ba83a1461020b5780634e1273f414610220578063564b81ef1461024d5780635c975abb14610262578063608595b51461027a5780638456cb591461029a57610134565b8062fdd58e1461013957806301ffc9a71461016c5780630e89341c1461019c5780632eb2c2d6146101c957806338cfbce6146101eb575b600080fd5b34801561014557600080fd5b50610159610154366004612a56565b61046e565b6040519081526020015b60405180910390f35b34801561017857600080fd5b5061018c610187366004612bd2565b610506565b6040519015158152602001610163565b3480156101a857600080fd5b506101bc6101b7366004612cbd565b61055a565b6040516101639190612ecf565b3480156101d557600080fd5b506101e96101e43660046128b6565b6105ee565b005b3480156101f757600080fd5b506101bc610206366004612cbd565b61063a565b34801561021757600080fd5b506101e9610658565b34801561022c57600080fd5b5061024061023b366004612aee565b6106ad565b6040516101639190612e97565b34801561025957600080fd5b5061015961080e565b34801561026e57600080fd5b5060655460ff1661018c565b34801561028657600080fd5b50610159610295366004612c0a565b610813565b3480156102a657600080fd5b506101e961085c565b3480156102bb57600080fd5b506101e96102ca3660046129e6565b6108af565b3480156102db57600080fd5b5061018c6102ea366004612cbd565b6000908152610130602052604090205460ff1690565b34801561030c57600080fd5b506101e961031b3660046129bd565b610a12565b6101e961032e366004612c85565b610a21565b34801561033f57600080fd5b506101e9610d67565b34801561035457600080fd5b5061015961036336600461286a565b6001600160a01b03166000908152610134602052604090205490565b34801561038b57600080fd5b5061039f61039a36600461286a565b610f1b565b6040516101639190612e36565b3480156103b857600080fd5b506102406103c7366004612a7f565b610ff5565b3480156103d857600080fd5b5061018c6103e7366004612884565b6001600160a01b03918216600090815260fe6020908152604080832093909416825291909152205460ff1690565b34801561042157600080fd5b5061012f54610436906001600160a01b031681565b6040516001600160a01b039091168152602001610163565b34801561045a57600080fd5b506101e961046936600461295b565b6110ec565b60006001600160a01b0383166104de5760405162461bcd60e51b815260206004820152602a60248201527f455243313135353a2061646472657373207a65726f206973206e6f742061207660448201526930b634b21037bbb732b960b11b60648201526084015b60405180910390fd5b50600090815260fd602090815260408083206001600160a01b03949094168352929052205490565b60006001600160e01b03198216636cdb3d1360e11b148061053757506001600160e01b031982166303a24d0760e21b145b8061055257506301ffc9a760e01b6001600160e01b03198316145b90505b919050565b606060ff805461056990613233565b80601f016020809104026020016040519081016040528092919081815260200182805461059590613233565b80156105e25780601f106105b7576101008083540402835291602001916105e2565b820191906000526020600020905b8154815290600101906020018083116105c557829003601f168201915b50505050509050919050565b6001600160a01b03851633148061060a575061060a85336103e7565b6106265760405162461bcd60e51b81526004016104d590612ee2565b6106338585858585611131565b5050505050565b60008181526101366020526040902080546060919061056990613233565b61012f546001600160a01b031633146106a35760405162461bcd60e51b815260206004820152600d60248201526c556e617574686f72697a65642160981b60448201526064016104d5565b6106ab611349565b565b606081518351146107125760405162461bcd60e51b815260206004820152602960248201527f455243313135353a206163636f756e747320616e6420696473206c656e677468604482015268040dad2e6dac2e8c6d60bb1b60648201526084016104d5565b600083516001600160401b0381111561073b57634e487b7160e01b600052604160045260246000fd5b604051908082528060200260200182016040528015610764578160200160208202803683370190505b50905060005b8451811015610806576107cb85828151811061079657634e487b7160e01b600052603260045260246000fd5b60200260200101518583815181106107be57634e487b7160e01b600052603260045260246000fd5b602002602001015161046e565b8282815181106107eb57634e487b7160e01b600052603260045260246000fd5b60209081029190910101526107ff8161329a565b905061076a565b509392505050565b465b90565b60008084848460405160200161082b93929190612d6a565b60408051601f19818403018152918152815160209283012060009081526101359092529020549150505b9392505050565b61012f546001600160a01b031633146108a75760405162461bcd60e51b815260206004820152600d60248201526c556e617574686f72697a65642160981b60448201526064016104d5565b6106ab61139b565b600054610100900460ff16158080156108cf5750600054600160ff909116105b806108e95750303b1580156108e9575060005460ff166001145b61094c5760405162461bcd60e51b815260206004820152602e60248201527f496e697469616c697a61626c653a20636f6e747261637420697320616c72656160448201526d191e481a5b9a5d1a585b1a5e995960921b60648201526084016104d5565b6000805460ff19166001179055801561096f576000805461ff0019166101001790555b6109776113d8565b61097f611407565b6109a06040518060800160405280604f81526020016133a0604f9139611436565b6109aa8383611469565b61012f80546001600160a01b0319166001600160a01b0386161790558015610a0c576000805461ff0019169055604051600181527f7f26b83ff96e1f2b6a682f133852f6798a09c465da95921460cefb38474024989060200160405180910390a15b50505050565b610a1d33838361149a565b5050565b60026001541415610a745760405162461bcd60e51b815260206004820152601f60248201527f5265656e7472616e637947756172643a207265656e7472616e742063616c6c0060448201526064016104d5565b600260015560655460ff1615610ac15760405162461bcd60e51b8152602060048201526012602482015271151c985b9cd858dd1a5b99c814185d5cd95960721b60448201526064016104d5565b6000610acc8261157b565b9050610ade604083016020840161286a565b6001600160a01b0316816001600160a01b031614610b555760405162461bcd60e51b815260206004820152602e60248201527f556e617574686f72697a6564205369676e65722e204170702063616e206e6f7460448201526d1031329034b739ba30b63632b21760911b60648201526084016104d5565b8160a001353414610b9d5760405162461bcd60e51b8152602060048201526012602482015271496e73756666696369656e742046756e647360701b60448201526064016104d5565b610ba561080e565b8260c0013514610c0b5760405162461bcd60e51b815260206004820152602b60248201527f54686973206974656d206973206e6f7420636f6d70617469626c65207769746860448201526a103a3434b99031b430b4b760a91b60648201526084016104d5565b6000610c178380613053565b83604051602001610c2a93929190612d6a565b60408051601f198184030181529181528151602092830120600081815261013790935291205490915060e08401351015610cc25760405162461bcd60e51b815260206004820152603360248201527f5369676e617475726520457870697265642e20506c65617365207573652061206044820152726e6577657220617070207369676e617475726560681b60648201526084016104d5565b610cd461012084016101008501612bb8565b610d2a5760405162461bcd60e51b815260206004820152602160248201527f417070206973206e6f7420617661696c61626c6520666f7220646f776e6c6f616044820152601960fa1b60648201526084016104d5565b60008181526101376020526040902060e08401359055610d4b8383836115d5565b610d54836116c9565b610d5e8383611812565b50506001805550565b60026001541415610dba5760405162461bcd60e51b815260206004820152601f60248201527f5265656e7472616e637947756172643a207265656e7472616e742063616c6c0060448201526064016104d5565b600260015560655460ff161580610ddc575061012f546001600160a01b031633145b610e1d5760405162461bcd60e51b8152602060048201526012602482015271151c985b9cd858dd1a5b99c814185d5cd95960721b60448201526064016104d5565b336000908152610131602052604090205480610e725760405162461bcd60e51b81526020600482015260146024820152732737ba3434b733903a37903bb4ba34323930bb9760611b60448201526064016104d5565b604051600090339083908381818185875af1925050503d8060008114610eb4576040519150601f19603f3d011682016040523d82523d6000602084013e610eb9565b606091505b5050905080610f025760405162461bcd60e51b815260206004820152601560248201527429b7b6b2ba3434b733903bb2b73a103bb937b7339760591b60448201526064016104d5565b5050336000908152610131602052604081205560018055565b60606000610f296101325490565b90506000816001600160401b03811115610f5357634e487b7160e01b600052604160045260246000fd5b604051908082528060200260200182016040528015610f8657816020015b6060815260200190600190039081610f715790505b50905060005b82811015610806576000610fa5866101548460016130ba565b1115610fe557610fb96102068260016130ba565b828281518110610fd957634e487b7160e01b600052603260045260246000fd5b60200260200101819052505b610fee8161329a565b9050610f8c565b60606000826001600160401b0381111561101f57634e487b7160e01b600052604160045260246000fd5b604051908082528060200260200182016040528015611048578160200160208202803683370190505b50905060005b8381101561080657610131600086868481811061107b57634e487b7160e01b600052603260045260246000fd5b9050602002016020810190611090919061286a565b6001600160a01b03166001600160a01b03168152602001908152602001600020548282815181106110d157634e487b7160e01b600052603260045260246000fd5b60209081029190910101526110e58161329a565b905061104e565b6001600160a01b038516331480611108575061110885336103e7565b6111245760405162461bcd60e51b81526004016104d590612ee2565b6106338585858585611840565b81518351146111935760405162461bcd60e51b815260206004820152602860248201527f455243313135353a2069647320616e6420616d6f756e7473206c656e677468206044820152670dad2e6dac2e8c6d60c31b60648201526084016104d5565b6001600160a01b0384166111b95760405162461bcd60e51b81526004016104d590612f79565b336111c881878787878761198a565b60005b84518110156112cd5760008582815181106111f657634e487b7160e01b600052603260045260246000fd5b60200260200101519050600085838151811061122257634e487b7160e01b600052603260045260246000fd5b602090810291909101810151600084815260fd835260408082206001600160a01b038e1683529093529190912054909150818110156112735760405162461bcd60e51b81526004016104d590612fbe565b600083815260fd602090815260408083206001600160a01b038e8116855292528083208585039055908b168252812080548492906112b29084906130ba565b92505081905550505050806112c69061329a565b90506111cb565b50846001600160a01b0316866001600160a01b0316826001600160a01b03167f4a39dc06d4c0dbc64b70af90fd698a233a518aa5d07e595d983b8c0526c8f7fb878760405161131d929190612eaa565b60405180910390a4611333818787878787611a5e565b611341818787878787611ae7565b505050505050565b611351611c52565b6065805460ff191690557f5db9ee0a495bf2e6ff9c91a7834c1ba4fdd244a5e8aa4e537bd38aeae4b073aa335b6040516001600160a01b03909116815260200160405180910390a1565b6113a3611c9b565b6065805460ff191660011790557f62e78cea01bee320cd4e420270b5ea74000d11b0c9f74754ebdbfc544b05a25861137e3390565b600054610100900460ff166113ff5760405162461bcd60e51b81526004016104d590613008565b6106ab611ce1565b600054610100900460ff1661142e5760405162461bcd60e51b81526004016104d590613008565b6106ab611d0e565b600054610100900460ff1661145d5760405162461bcd60e51b81526004016104d590613008565b61146681611d41565b50565b600054610100900460ff166114905760405162461bcd60e51b81526004016104d590613008565b610a1d8282611d71565b816001600160a01b0316836001600160a01b0316141561150e5760405162461bcd60e51b815260206004820152602960248201527f455243313135353a2073657474696e6720617070726f76616c20737461747573604482015268103337b91039b2b63360b91b60648201526084016104d5565b6001600160a01b03838116600081815260fe6020908152604080832094871680845294825291829020805460ff191686151590811790915591519182527f17307eab39ab6107e8899845ad3d59bd9653f200f220920489ca2b5937696c31910160405180910390a3505050565b60008061158783611db2565b90506108558161159b610120860186613053565b8080601f016020809104026020016040519081016040528093929190818152602001838380828437600092019190915250611ec492505050565b6000818152610133602052604090205480611611576115f961013280546001019055565b50610132546000828152610133602052604090208190555b61161b8480613053565b600083815261013660205260409020611635929091612654565b506116523382600160405180602001604052806000815250611ee0565b61165d81600161200b565b60405133906001600160a01b0385169083907f8b71218a96aa03ec6471183a969f2c9c2730e8f91c3f2aecd51913aaf511c7ec90600090a4600082815261013560205260409020546116b0906001612063565b6000928352610135602052604090922091909155505050565b60006116da8260a00135600261206f565b905060006116f08360a00135846080013561206f565b9050600061170c8261170660a0870135866120b4565b906120b4565b90506117478161013160006117276060890160408a0161286a565b6001600160a01b0316815260208101919091526040016000205490612063565b610131600061175c606088016040890161286a565b6001600160a01b03166001600160a01b031681526020019081526020016000208190555061179c826101316000876060016020810190611727919061286a565b61013160006117b1608088016060890161286a565b6001600160a01b039081168252602080830193909352604091820160009081209490945561012f541683526101319091529020546117ef9084612063565b61012f546001600160a01b03166000908152610131602052604090205550505050565b611822818360a0013560c86120c0565b6001600160a01b039091166000908152610134602052604090205550565b6001600160a01b0384166118665760405162461bcd60e51b81526004016104d590612f79565b33600061187285612102565b9050600061187f85612102565b905061188f83898985858961198a565b600086815260fd602090815260408083206001600160a01b038c168452909152902054858110156118d25760405162461bcd60e51b81526004016104d590612fbe565b600087815260fd602090815260408083206001600160a01b038d8116855292528083208985039055908a168252812080548892906119119084906130ba565b909155505060408051888152602081018890526001600160a01b03808b16928c821692918816917fc3d58168c5ae7397731d063d5bbf3d657854427343f4c083240f7aacaa2d0f62910160405180910390a4611971848a8a86868a611a5e565b61197f848a8a8a8a8a61215b565b505050505050505050565b60005b8351811015611a55576119d78482815181106119b957634e487b7160e01b600052603260045260246000fd5b60200260200101516000908152610130602052604090205460ff1690565b15611a45576001600160a01b03861615806119f957506001600160a01b038516155b611a455760405162461bcd60e51b815260206004820152601b60248201527f536f756c626f756e642c204e6f6e2d5472616e7366657261626c65000000000060448201526064016104d5565b611a4e8161329a565b905061198d565b50505050505050565b60005b8351811015611a55576001600160a01b038516611ad757856001600160a01b0316848281518110611aa257634e487b7160e01b600052603260045260246000fd5b60200260200101517fbf6ee8d3b279c99757fe8e0b3019bb6249544494b14dba9b2ceed2585f9ba1a060405160405180910390a35b611ae08161329a565b9050611a61565b6001600160a01b0384163b156113415760405163bc197c8160e01b81526001600160a01b0385169063bc197c8190611b2b9089908990889088908890600401612d93565b602060405180830381600087803b158015611b4557600080fd5b505af1925050508015611b75575060408051601f3d908101601f19168201909252611b7291810190612bee565b60015b611c2257611b816132e1565b806308c379a01415611bbb5750611b966132f8565b80611ba15750611bbd565b8060405162461bcd60e51b81526004016104d59190612ecf565b505b60405162461bcd60e51b815260206004820152603460248201527f455243313135353a207472616e7366657220746f206e6f6e20455243313135356044820152732932b1b2b4bb32b91034b6b83632b6b2b73a32b960611b60648201526084016104d5565b6001600160e01b0319811663bc197c8160e01b14611a555760405162461bcd60e51b81526004016104d590612f31565b60655460ff166106ab5760405162461bcd60e51b815260206004820152601460248201527314185d5cd8589b194e881b9bdd081c185d5cd95960621b60448201526064016104d5565b60655460ff16156106ab5760405162461bcd60e51b815260206004820152601060248201526f14185d5cd8589b194e881c185d5cd95960821b60448201526064016104d5565b600054610100900460ff16611d085760405162461bcd60e51b81526004016104d590613008565b60018055565b600054610100900460ff16611d355760405162461bcd60e51b81526004016104d590613008565b6065805460ff19169055565b600054610100900460ff16611d685760405162461bcd60e51b81526004016104d590613008565b61146681612225565b600054610100900460ff16611d985760405162461bcd60e51b81526004016104d590613008565b815160209283012081519190920120609791909155609855565b60006105527fda9136afd210b4b1575a5061ce480ca435269e85e978a546eead2a2b2f474b64611de28480613053565b604051611df0929190612d5a565b6040518091039020846020016020810190611e0b919061286a565b611e1b606087016040880161286a565b611e2b608088016060890161286a565b608088013560a089013560c08a013560e08b0135611e516101208d016101008e01612bb8565b60408051602081019b909b528a01989098526001600160a01b0396871660608a015294861660808901529490921660a087015260c086015260e085015261010084019190915261012083015215156101408201526101600160405160208183030381529060405280519060200120612238565b6000806000611ed38585612286565b91509150610806816122cc565b6001600160a01b038416611f405760405162461bcd60e51b815260206004820152602160248201527f455243313135353a206d696e7420746f20746865207a65726f206164647265736044820152607360f81b60648201526084016104d5565b336000611f4c85612102565b90506000611f5985612102565b9050611f6a8360008985858961198a565b600086815260fd602090815260408083206001600160a01b038b16845290915281208054879290611f9c9084906130ba565b909155505060408051878152602081018790526001600160a01b03808a1692600092918716917fc3d58168c5ae7397731d063d5bbf3d657854427343f4c083240f7aacaa2d0f62910160405180910390a4611ffc83600089858589611a5e565b611a558360008989898961215b565b60008281526101306020908152604091829020805460ff1916841515908117909155915191825283917fe0abe9435049152fa612635eac4022235b6f5c156ecf799bdac41b11b9fa2211910160405180910390a25050565b600061085582846130ba565b60008061209d6120816002600a61312f565b61208c9060646131fd565b6120978660646124cf565b906124db565b905060006120ab82856124cf565b95945050505050565b6000610855828461321c565b60006120fa6120da6120d385600a6124db565b8490612063565b6001600160a01b0386166000908152610134602052604090205490612063565b949350505050565b6040805160018082528183019092526060916000919060208083019080368337019050509050828160008151811061214a57634e487b7160e01b600052603260045260246000fd5b602090810291909101015292915050565b6001600160a01b0384163b156113415760405163f23a6e6160e01b81526001600160a01b0385169063f23a6e619061219f9089908990889088908890600401612df1565b602060405180830381600087803b1580156121b957600080fd5b505af19250505080156121e9575060408051601f3d908101601f191682019092526121e691810190612bee565b60015b6121f557611b816132e1565b6001600160e01b0319811663f23a6e6160e01b14611a555760405162461bcd60e51b81526004016104d590612f31565b8051610a1d9060ff9060208401906126d8565b60006105526122456124e7565b8360405161190160f01b6020820152602281018390526042810182905260009060620160405160208183030381529060405280519060200120905092915050565b6000808251604114156122bd5760208301516040840151606085015160001a6122b187828585612567565b945094505050506122c5565b506000905060025b9250929050565b60008160048111156122ee57634e487b7160e01b600052602160045260246000fd5b14156122f957611466565b600181600481111561231b57634e487b7160e01b600052602160045260246000fd5b14156123695760405162461bcd60e51b815260206004820152601860248201527f45434453413a20696e76616c6964207369676e6174757265000000000000000060448201526064016104d5565b600281600481111561238b57634e487b7160e01b600052602160045260246000fd5b14156123d95760405162461bcd60e51b815260206004820152601f60248201527f45434453413a20696e76616c6964207369676e6174757265206c656e6774680060448201526064016104d5565b60038160048111156123fb57634e487b7160e01b600052602160045260246000fd5b14156124545760405162461bcd60e51b815260206004820152602260248201527f45434453413a20696e76616c6964207369676e6174757265202773272076616c604482015261756560f01b60648201526084016104d5565b600481600481111561247657634e487b7160e01b600052602160045260246000fd5b14156114665760405162461bcd60e51b815260206004820152602260248201527f45434453413a20696e76616c6964207369676e6174757265202776272076616c604482015261756560f01b60648201526084016104d5565b600061085582846131fd565b600061085582846130d2565b60006125627f8b73c3c69bb8fe3d512ecc4cf759cc79239f7b179b0ffacaa9a75d522b39400f61251660975490565b6098546040805160208101859052908101839052606081018290524660808201523060a082015260009060c0016040516020818303038152906040528051906020012090509392505050565b905090565b6000807f7fffffffffffffffffffffffffffffff5d576e7357a4501ddfe92f46681b20a083111561259e575060009050600361264b565b8460ff16601b141580156125b657508460ff16601c14155b156125c7575060009050600461264b565b6040805160008082526020820180845289905260ff881692820192909252606081018690526080810185905260019060a0016020604051602081039080840390855afa15801561261b573d6000803e3d6000fd5b5050604051601f1901519150506001600160a01b0381166126445760006001925092505061264b565b9150600090505b94509492505050565b82805461266090613233565b90600052602060002090601f01602090048101928261268257600085556126c8565b82601f1061269b5782800160ff198235161785556126c8565b828001600101855582156126c8579182015b828111156126c85782358255916020019190600101906126ad565b506126d492915061274c565b5090565b8280546126e490613233565b90600052602060002090601f01602090048101928261270657600085556126c8565b82601f1061271f57805160ff19168380011785556126c8565b828001600101855582156126c8579182015b828111156126c8578251825591602001919060010190612731565b5b808211156126d4576000815560010161274d565b80356001600160a01b038116811461055557600080fd5b600082601f830112612788578081fd5b8135602061279582613097565b6040516127a2828261326e565b8381528281019150858301600585901b870184018810156127c1578586fd5b855b858110156127df578135845292840192908401906001016127c3565b5090979650505050505050565b8035801515811461055557600080fd5b600082601f83011261280c578081fd5b81356001600160401b03811115612825576128256132cb565b60405161283c601f8301601f19166020018261326e565b818152846020838601011115612850578283fd5b816020850160208301379081016020019190915292915050565b60006020828403121561287b578081fd5b61085582612761565b60008060408385031215612896578081fd5b61289f83612761565b91506128ad60208401612761565b90509250929050565b600080600080600060a086880312156128cd578081fd5b6128d686612761565b94506128e460208701612761565b935060408601356001600160401b03808211156128ff578283fd5b61290b89838a01612778565b94506060880135915080821115612920578283fd5b61292c89838a01612778565b93506080880135915080821115612941578283fd5b5061294e888289016127fc565b9150509295509295909350565b600080600080600060a08688031215612972578081fd5b61297b86612761565b945061298960208701612761565b9350604086013592506060860135915060808601356001600160401b038111156129b1578182fd5b61294e888289016127fc565b600080604083850312156129cf578182fd5b6129d883612761565b91506128ad602084016127ec565b6000806000606084860312156129fa578283fd5b612a0384612761565b925060208401356001600160401b0380821115612a1e578384fd5b612a2a878388016127fc565b93506040860135915080821115612a3f578283fd5b50612a4c868287016127fc565b9150509250925092565b60008060408385031215612a68578182fd5b612a7183612761565b946020939093013593505050565b60008060208385031215612a91578182fd5b82356001600160401b0380821115612aa7578384fd5b818501915085601f830112612aba578384fd5b813581811115612ac8578485fd5b8660208260051b8501011115612adc578485fd5b60209290920196919550909350505050565b60008060408385031215612b00578182fd5b82356001600160401b0380821115612b16578384fd5b818501915085601f830112612b29578384fd5b81356020612b3682613097565b604051612b43828261326e565b8381528281019150858301600585901b870184018b1015612b62578889fd5b8896505b84871015612b8b57612b7781612761565b835260019690960195918301918301612b66565b5096505086013592505080821115612ba1578283fd5b50612bae85828601612778565b9150509250929050565b600060208284031215612bc9578081fd5b610855826127ec565b600060208284031215612be3578081fd5b813561085581613389565b600060208284031215612bff578081fd5b815161085581613389565b600080600060408486031215612c1e578081fd5b83356001600160401b0380821115612c34578283fd5b818601915086601f830112612c47578283fd5b813581811115612c55578384fd5b876020828501011115612c66578384fd5b602092830195509350612c7c9186019050612761565b90509250925092565b600060208284031215612c96578081fd5b81356001600160401b03811115612cab578182fd5b82016101408185031215610855578182fd5b600060208284031215612cce578081fd5b5035919050565b6000815180845260208085019450808401835b83811015612d0457815187529582019590820190600101612ce8565b509495945050505050565b60008151808452815b81811015612d3457602081850181015186830182015201612d18565b81811115612d455782602083870101525b50601f01601f19169290920160200192915050565b6000828483379101908152919050565b6000838583375060609190911b6bffffffffffffffffffffffff19169101908152601401919050565b6001600160a01b0386811682528516602082015260a060408201819052600090612dbf90830186612cd5565b8281036060840152612dd18186612cd5565b90508281036080840152612de58185612d0f565b98975050505050505050565b6001600160a01b03868116825285166020820152604081018490526060810183905260a060808201819052600090612e2b90830184612d0f565b979650505050505050565b6000602080830181845280855180835260408601915060408160051b8701019250838701855b82811015612e8a57603f19888603018452612e78858351612d0f565b94509285019290850190600101612e5c565b5092979650505050505050565b6000602082526108556020830184612cd5565b600060408252612ebd6040830185612cd5565b82810360208401526120ab8185612cd5565b6000602082526108556020830184612d0f565b6020808252602f908201527f455243313135353a2063616c6c6572206973206e6f7420746f6b656e206f776e60408201526e195c881b9bdc88185c1c1c9bdd9959608a1b606082015260800190565b60208082526028908201527f455243313135353a204552433131353552656365697665722072656a656374656040820152676420746f6b656e7360c01b606082015260800190565b60208082526025908201527f455243313135353a207472616e7366657220746f20746865207a65726f206164604082015264647265737360d81b606082015260800190565b6020808252602a908201527f455243313135353a20696e73756666696369656e742062616c616e636520666f60408201526939103a3930b739b332b960b11b606082015260800190565b6020808252602b908201527f496e697469616c697a61626c653a20636f6e7472616374206973206e6f74206960408201526a6e697469616c697a696e6760a81b606082015260800190565b6000808335601e19843603018112613069578283fd5b8301803591506001600160401b03821115613082578283fd5b6020019150368190038213156122c557600080fd5b60006001600160401b038211156130b0576130b06132cb565b5060051b60200190565b600082198211156130cd576130cd6132b5565b500190565b6000826130ed57634e487b7160e01b81526012600452602481fd5b500490565b80825b6001808611613104575061264b565b818704821115613116576131166132b5565b8086161561312357918102915b9490941c9380026130f5565b6000610855600019848460008261314857506001610855565b8161315557506000610855565b816001811461316b5760028114613175576131a2565b6001915050610855565b60ff841115613186576131866132b5565b6001841b91508482111561319c5761319c6132b5565b50610855565b5060208310610133831016604e8410600b84101617156131d5575081810a838111156131d0576131d06132b5565b610855565b6131e284848460016130f2565b8086048211156131f4576131f46132b5565b02949350505050565b6000816000190483118215151615613217576132176132b5565b500290565b60008282101561322e5761322e6132b5565b500390565b600181811c9082168061324757607f821691505b6020821081141561326857634e487b7160e01b600052602260045260246000fd5b50919050565b601f8201601f191681016001600160401b0381118282101715613293576132936132cb565b6040525050565b60006000198214156132ae576132ae6132b5565b5060010190565b634e487b7160e01b600052601160045260246000fd5b634e487b7160e01b600052604160045260246000fd5b600060033d111561081057600481823e5160e01c90565b600060443d101561330857610810565b6040516003193d81016004833e81513d6001600160401b038160248401118184111715613339575050505050610810565b828501915081518181111561335357505050505050610810565b843d870101602082850101111561336f57505050505050610810565b61337e6020828601018761326e565b509094505050505090565b6001600160e01b03198116811461146657600080fdfe68747470733a2f2f73746f726167652e676f6f676c65617069732e636f6d2f74687265642d70726f746f636f6c2e61707073706f742e636f6d2f736d6172742d7574696c732f7b69647d2e6a736f6ea26469706673582212200bc6d1c601f13db7226b7ff0b9ebd761799df20a6387b0324e5813f4b6aba3f964736f6c63430008030033",
  "linkReferences": {},
  "deployedLinkReferences": {}
}