{
  "_format": "hh-sol-artifact-1",
  "contractName": "ThredCore",
  "sourceName": "contracts/ThredCore/ThredCore.sol",
  "abi": [
    {
      "anonymous": false,
      "inputs": [
        {
          "indexed": true,
          "internalType": "address",
          "name": "account",
          "type": "address"
        },
        {
          "indexed": true,
          "internalType": "address",
          "name": "operator",
          "type": "address"
        },
        {
          "indexed": false,
          "internalType": "bool",
          "name": "approved",
          "type": "bool"
        }
      ],
      "name": "ApprovalForAll",
      "type": "event"
    },
    {
      "anonymous": false,
      "inputs": [
        {
          "indexed": false,
          "internalType": "uint8",
          "name": "version",
          "type": "uint8"
        }
      ],
      "name": "Initialized",
      "type": "event"
    },
    {
      "anonymous": false,
      "inputs": [
        {
          "indexed": true,
          "internalType": "uint256",
          "name": "tokenId",
          "type": "uint256"
        },
        {
          "indexed": true,
          "internalType": "uint256",
          "name": "price",
          "type": "uint256"
        },
        {
          "indexed": true,
          "internalType": "address",
          "name": "user",
          "type": "address"
        }
      ],
      "name": "Install",
      "type": "event"
    },
    {
      "anonymous": false,
      "inputs": [
        {
          "indexed": false,
          "internalType": "address",
          "name": "account",
          "type": "address"
        }
      ],
      "name": "Paused",
      "type": "event"
    },
    {
      "anonymous": false,
      "inputs": [
        {
          "indexed": true,
          "internalType": "uint256",
          "name": "id",
          "type": "uint256"
        },
        {
          "indexed": false,
          "internalType": "bool",
          "name": "bounded",
          "type": "bool"
        }
      ],
      "name": "Soulbound",
      "type": "event"
    },
    {
      "anonymous": false,
      "inputs": [
        {
          "indexed": true,
          "internalType": "address",
          "name": "operator",
          "type": "address"
        },
        {
          "indexed": true,
          "internalType": "address",
          "name": "from",
          "type": "address"
        },
        {
          "indexed": true,
          "internalType": "address",
          "name": "to",
          "type": "address"
        },
        {
          "indexed": false,
          "internalType": "uint256[]",
          "name": "ids",
          "type": "uint256[]"
        },
        {
          "indexed": false,
          "internalType": "uint256[]",
          "name": "values",
          "type": "uint256[]"
        }
      ],
      "name": "TransferBatch",
      "type": "event"
    },
    {
      "anonymous": false,
      "inputs": [
        {
          "indexed": true,
          "internalType": "address",
          "name": "operator",
          "type": "address"
        },
        {
          "indexed": true,
          "internalType": "address",
          "name": "from",
          "type": "address"
        },
        {
          "indexed": true,
          "internalType": "address",
          "name": "to",
          "type": "address"
        },
        {
          "indexed": false,
          "internalType": "uint256",
          "name": "id",
          "type": "uint256"
        },
        {
          "indexed": false,
          "internalType": "uint256",
          "name": "value",
          "type": "uint256"
        }
      ],
      "name": "TransferSingle",
      "type": "event"
    },
    {
      "anonymous": false,
      "inputs": [
        {
          "indexed": false,
          "internalType": "string",
          "name": "value",
          "type": "string"
        },
        {
          "indexed": true,
          "internalType": "uint256",
          "name": "id",
          "type": "uint256"
        }
      ],
      "name": "URI",
      "type": "event"
    },
    {
      "anonymous": false,
      "inputs": [
        {
          "indexed": false,
          "internalType": "address",
          "name": "account",
          "type": "address"
        }
      ],
      "name": "Unpaused",
      "type": "event"
    },
    {
      "inputs": [
        {
          "internalType": "address",
          "name": "account",
          "type": "address"
        },
        {
          "internalType": "uint256",
          "name": "id",
          "type": "uint256"
        }
      ],
      "name": "balanceOf",
      "outputs": [
        {
          "internalType": "uint256",
          "name": "",
          "type": "uint256"
        }
      ],
      "stateMutability": "view",
      "type": "function"
    },
    {
      "inputs": [
        {
          "internalType": "address[]",
          "name": "accounts",
          "type": "address[]"
        },
        {
          "internalType": "uint256[]",
          "name": "ids",
          "type": "uint256[]"
        }
      ],
      "name": "balanceOfBatch",
      "outputs": [
        {
          "internalType": "uint256[]",
          "name": "",
          "type": "uint256[]"
        }
      ],
      "stateMutability": "view",
      "type": "function"
    },
    {
      "inputs": [
        {
          "components": [
            {
              "internalType": "string",
              "name": "name",
              "type": "string"
            },
            {
              "internalType": "string",
              "name": "id",
              "type": "string"
            },
            {
              "internalType": "address",
              "name": "pay_address",
              "type": "address"
            },
            {
              "internalType": "uint256",
              "name": "category",
              "type": "uint256"
            },
            {
              "internalType": "uint256",
              "name": "price",
              "type": "uint256"
            },
            {
              "internalType": "bytes",
              "name": "signature",
              "type": "bytes"
            }
          ],
          "internalType": "struct ThredCore.SmartUtil",
          "name": "util",
          "type": "tuple"
        },
        {
          "internalType": "address[]",
          "name": "to",
          "type": "address[]"
        }
      ],
      "name": "buySmartUtil",
      "outputs": [],
      "stateMutability": "payable",
      "type": "function"
    },
    {
      "inputs": [],
      "name": "deployerAddress",
      "outputs": [
        {
          "internalType": "address",
          "name": "",
          "type": "address"
        }
      ],
      "stateMutability": "view",
      "type": "function"
    },
    {
      "inputs": [
        {
          "internalType": "address[]",
          "name": "payoutAddresses",
          "type": "address[]"
        }
      ],
      "name": "fetchPayouts",
      "outputs": [
        {
          "internalType": "uint256[]",
          "name": "",
          "type": "uint256[]"
        }
      ],
      "stateMutability": "view",
      "type": "function"
    },
    {
      "inputs": [
        {
          "internalType": "address",
          "name": "user",
          "type": "address"
        }
      ],
      "name": "fetchRep",
      "outputs": [
        {
          "internalType": "uint256",
          "name": "",
          "type": "uint256"
        }
      ],
      "stateMutability": "view",
      "type": "function"
    },
    {
      "inputs": [
        {
          "internalType": "address",
          "name": "owner",
          "type": "address"
        },
        {
          "internalType": "string",
          "name": "domain",
          "type": "string"
        },
        {
          "internalType": "string",
          "name": "version",
          "type": "string"
        }
      ],
      "name": "initialize",
      "outputs": [],
      "stateMutability": "nonpayable",
      "type": "function"
    },
    {
      "inputs": [
        {
          "internalType": "address",
          "name": "account",
          "type": "address"
        },
        {
          "internalType": "address",
          "name": "operator",
          "type": "address"
        }
      ],
      "name": "isApprovedForAll",
      "outputs": [
        {
          "internalType": "bool",
          "name": "",
          "type": "bool"
        }
      ],
      "stateMutability": "view",
      "type": "function"
    },
    {
      "inputs": [
        {
          "internalType": "uint256",
          "name": "id",
          "type": "uint256"
        }
      ],
      "name": "isSoulbound",
      "outputs": [
        {
          "internalType": "bool",
          "name": "",
          "type": "bool"
        }
      ],
      "stateMutability": "view",
      "type": "function"
    },
    {
      "inputs": [],
      "name": "pause",
      "outputs": [],
      "stateMutability": "nonpayable",
      "type": "function"
    },
    {
      "inputs": [],
      "name": "paused",
      "outputs": [
        {
          "internalType": "bool",
          "name": "",
          "type": "bool"
        }
      ],
      "stateMutability": "view",
      "type": "function"
    },
    {
      "inputs": [
        {
          "internalType": "address",
          "name": "from",
          "type": "address"
        },
        {
          "internalType": "address",
          "name": "to",
          "type": "address"
        },
        {
          "internalType": "uint256[]",
          "name": "ids",
          "type": "uint256[]"
        },
        {
          "internalType": "uint256[]",
          "name": "amounts",
          "type": "uint256[]"
        },
        {
          "internalType": "bytes",
          "name": "data",
          "type": "bytes"
        }
      ],
      "name": "safeBatchTransferFrom",
      "outputs": [],
      "stateMutability": "nonpayable",
      "type": "function"
    },
    {
      "inputs": [
        {
          "internalType": "address",
          "name": "from",
          "type": "address"
        },
        {
          "internalType": "address",
          "name": "to",
          "type": "address"
        },
        {
          "internalType": "uint256",
          "name": "id",
          "type": "uint256"
        },
        {
          "internalType": "uint256",
          "name": "amount",
          "type": "uint256"
        },
        {
          "internalType": "bytes",
          "name": "data",
          "type": "bytes"
        }
      ],
      "name": "safeTransferFrom",
      "outputs": [],
      "stateMutability": "nonpayable",
      "type": "function"
    },
    {
      "inputs": [
        {
          "internalType": "address",
          "name": "operator",
          "type": "address"
        },
        {
          "internalType": "bool",
          "name": "approved",
          "type": "bool"
        }
      ],
      "name": "setApprovalForAll",
      "outputs": [],
      "stateMutability": "nonpayable",
      "type": "function"
    },
    {
      "inputs": [
        {
          "internalType": "bytes4",
          "name": "interfaceId",
          "type": "bytes4"
        }
      ],
      "name": "supportsInterface",
      "outputs": [
        {
          "internalType": "bool",
          "name": "",
          "type": "bool"
        }
      ],
      "stateMutability": "view",
      "type": "function"
    },
    {
      "inputs": [],
      "name": "unpause",
      "outputs": [],
      "stateMutability": "nonpayable",
      "type": "function"
    },
    {
      "inputs": [
        {
          "internalType": "uint256",
          "name": "",
          "type": "uint256"
        }
      ],
      "name": "uri",
      "outputs": [
        {
          "internalType": "string",
          "name": "",
          "type": "string"
        }
      ],
      "stateMutability": "view",
      "type": "function"
    },
    {
      "inputs": [],
      "name": "withDrawFunds",
      "outputs": [],
      "stateMutability": "nonpayable",
      "type": "function"
    }
  ],
  "bytecode": "0x608060405234801561001057600080fd5b50612e4d806100206000396000f3fe6080604052600436106101085760003560e01c80639065714711610095578063bbedeb1f11610064578063bbedeb1f146102c4578063d7dc43a5146102fb578063e985e9c51461031b578063efdee94f14610364578063f242432a1461039d57610108565b8063906571471461023e578063911ec4701461025e578063a22cb4651461028f578063b78da386146102af57610108565b80632eb2c2d6116100dc5780632eb2c2d6146101b25780633f4ba83a146101d25780634e1273f4146101e75780635c975abb146102145780638456cb591461022957610108565b8062fdd58e1461010d57806301ffc9a71461014057806308befbf4146101705780630e89341c14610185575b600080fd5b34801561011957600080fd5b5061012d610128366004612571565b6103bd565b6040519081526020015b60405180910390f35b34801561014c57600080fd5b5061016061015b3660046126a3565b610455565b6040519015158152602001610137565b61018361017e3660046126db565b6104a9565b005b34801561019157600080fd5b506101a56101a0366004612747565b61086a565b60405161013791906128f8565b3480156101be57600080fd5b506101836101cd3660046123c0565b6108fe565b3480156101de57600080fd5b5061018361094a565b3480156101f357600080fd5b506102076102023660046125d9565b61099f565b60405161013791906128c0565b34801561022057600080fd5b50610160610b00565b34801561023557600080fd5b50610183610b0a565b34801561024a57600080fd5b50610183610259366004612501565b610b5d565b34801561026a57600080fd5b50610160610279366004612747565b6000908152610130602052604090205460ff1690565b34801561029b57600080fd5b506101836102aa3660046124c7565b610cc0565b3480156102bb57600080fd5b50610183610ccf565b3480156102d057600080fd5b5061012d6102df366004612374565b6001600160a01b03166000908152610134602052604090205490565b34801561030757600080fd5b5061020761031636600461259a565b610e85565b34801561032757600080fd5b5061016061033636600461238e565b6001600160a01b03918216600090815260fe6020908152604080832093909416825291909152205460ff1690565b34801561037057600080fd5b5061012f54610385906001600160a01b031681565b6040516001600160a01b039091168152602001610137565b3480156103a957600080fd5b506101836103b8366004612465565b610f7c565b60006001600160a01b03831661042d5760405162461bcd60e51b815260206004820152602a60248201527f455243313135353a2061646472657373207a65726f206973206e6f742061207660448201526930b634b21037bbb732b960b11b60648201526084015b60405180910390fd5b50600090815260fd602090815260408083206001600160a01b03949094168352929052205490565b60006001600160e01b03198216636cdb3d1360e11b148061048657506001600160e01b031982166303a24d0760e21b145b806104a157506301ffc9a760e01b6001600160e01b03198316145b90505b919050565b600260015414156104fc5760405162461bcd60e51b815260206004820152601f60248201527f5265656e7472616e637947756172643a207265656e7472616e742063616c6c006044820152606401610424565b6002600155610509610b00565b1561054b5760405162461bcd60e51b8152602060048201526012602482015271151c985b9cd858dd1a5b99c814185d5cd95960721b6044820152606401610424565b600181116105a75760405162461bcd60e51b815260206004820152602360248201527f496e76616c696420546f204c656e6774682e204d757374206265203e2074686160448201526206e20360ec1b6064820152608401610424565b60006105b284610fc1565b905060006105c4608086013584611021565b905080341461060a5760405162461bcd60e51b8152602060048201526012602482015271496e73756666696369656e742046756e647360701b6044820152606401610424565b60006106196020870187612a7c565b8460405160200161062c939291906127f4565b60408051601f1981840301815291815281516020928301206000818152610133909352912054909150806106815761066961013280546001019055565b50610132546000828152610133602052604090208190555b60005b85811015610767576106dc8787838181106106af57634e487b7160e01b600052603260045260246000fd5b90506020020160208101906106c49190612374565b8360016040518060200160405280600081525061102d565b6106e7826001611152565b86868281811061070757634e487b7160e01b600052603260045260246000fd5b905060200201602081019061071c9190612374565b6001600160a01b03168860800135837f9abbe2d43ce5c6460b50f15fe34cc22819e299866306d2c6de46b3a5cc05019860405160405180910390a461076081612cc3565b9050610684565b5060006107758460026111aa565b9050600061078385836111ef565b90506107be81610131600061079e60608e0160408f01612374565b6001600160a01b03168152602081019190915260400160002054906111fb565b61013160006107d360608d0160408e01612374565b6001600160a01b039081168252602080830193909352604091820160009081209490945561012f5416835261013190915290205461081190836111fb565b61012f546001600160a01b03166000908152610131602052604090205561083e8660808b013560c8611207565b6001600160a01b0390961660009081526101346020526040902095909555505060018055505050505050565b606060ff805461087990612c5c565b80601f01602080910402602001604051908101604052809291908181526020018280546108a590612c5c565b80156108f25780601f106108c7576101008083540402835291602001916108f2565b820191906000526020600020905b8154815290600101906020018083116108d557829003601f168201915b50505050509050919050565b6001600160a01b03851633148061091a575061091a8533610336565b6109365760405162461bcd60e51b81526004016104249061290b565b6109438585858585611249565b5050505050565b61012f546001600160a01b031633146109955760405162461bcd60e51b815260206004820152600d60248201526c556e617574686f72697a65642160981b6044820152606401610424565b61099d611453565b565b60608151835114610a045760405162461bcd60e51b815260206004820152602960248201527f455243313135353a206163636f756e747320616e6420696473206c656e677468604482015268040dad2e6dac2e8c6d60bb1b6064820152608401610424565b600083516001600160401b03811115610a2d57634e487b7160e01b600052604160045260246000fd5b604051908082528060200260200182016040528015610a56578160200160208202803683370190505b50905060005b8451811015610af857610abd858281518110610a8857634e487b7160e01b600052603260045260246000fd5b6020026020010151858381518110610ab057634e487b7160e01b600052603260045260246000fd5b60200260200101516103bd565b828281518110610add57634e487b7160e01b600052603260045260246000fd5b6020908102919091010152610af181612cc3565b9050610a5c565b509392505050565b60655460ff165b90565b61012f546001600160a01b03163314610b555760405162461bcd60e51b815260206004820152600d60248201526c556e617574686f72697a65642160981b6044820152606401610424565b61099d6114a5565b600054610100900460ff1615808015610b7d5750600054600160ff909116105b80610b975750303b158015610b97575060005460ff166001145b610bfa5760405162461bcd60e51b815260206004820152602e60248201527f496e697469616c697a61626c653a20636f6e747261637420697320616c72656160448201526d191e481a5b9a5d1a585b1a5e995960921b6064820152608401610424565b6000805460ff191660011790558015610c1d576000805461ff0019166101001790555b610c256114e2565b610c2d611511565b610c4e6040518060800160405280604f8152602001612dc9604f9139611540565b610c588383611573565b61012f80546001600160a01b0319166001600160a01b0386161790558015610cba576000805461ff0019169055604051600181527f7f26b83ff96e1f2b6a682f133852f6798a09c465da95921460cefb38474024989060200160405180910390a15b50505050565b610ccb3383836115a4565b5050565b60026001541415610d225760405162461bcd60e51b815260206004820152601f60248201527f5265656e7472616e637947756172643a207265656e7472616e742063616c6c006044820152606401610424565b6002600155610d2f610b00565b1580610d46575061012f546001600160a01b031633145b610d875760405162461bcd60e51b8152602060048201526012602482015271151c985b9cd858dd1a5b99c814185d5cd95960721b6044820152606401610424565b336000908152610131602052604090205480610ddc5760405162461bcd60e51b81526020600482015260146024820152732737ba3434b733903a37903bb4ba34323930bb9760611b6044820152606401610424565b604051600090339083908381818185875af1925050503d8060008114610e1e576040519150601f19603f3d011682016040523d82523d6000602084013e610e23565b606091505b5050905080610e6c5760405162461bcd60e51b815260206004820152601560248201527429b7b6b2ba3434b733903bb2b73a103bb937b7339760591b6044820152606401610424565b5050336000908152610131602052604081205560018055565b60606000826001600160401b03811115610eaf57634e487b7160e01b600052604160045260246000fd5b604051908082528060200260200182016040528015610ed8578160200160208202803683370190505b50905060005b83811015610af8576101316000868684818110610f0b57634e487b7160e01b600052603260045260246000fd5b9050602002016020810190610f209190612374565b6001600160a01b03166001600160a01b0316815260200190815260200160002054828281518110610f6157634e487b7160e01b600052603260045260246000fd5b6020908102919091010152610f7581612cc3565b9050610ede565b6001600160a01b038516331480610f985750610f988533610336565b610fb45760405162461bcd60e51b81526004016104249061290b565b6109438585858585611685565b600080610fcd836117c1565b905061101a81610fe060a0860186612a7c565b8080601f0160208091040260200160405190810160405280939291908181526020018383808284376000920191909152506118a492505050565b9392505050565b600061101a8284612c26565b6001600160a01b03841661108d5760405162461bcd60e51b815260206004820152602160248201527f455243313135353a206d696e7420746f20746865207a65726f206164647265736044820152607360f81b6064820152608401610424565b336000611099856118c0565b905060006110a6856118c0565b90506110b783600089858589611919565b600086815260fd602090815260408083206001600160a01b038b168452909152812080548792906110e9908490612ae3565b909155505060408051878152602081018790526001600160a01b03808a1692600092918716917fc3d58168c5ae7397731d063d5bbf3d657854427343f4c083240f7aacaa2d0f62910160405180910390a4611149836000898989896119e4565b50505050505050565b60008281526101306020908152604091829020805460ff1916841515908117909155915191825283917fe0abe9435049152fa612635eac4022235b6f5c156ecf799bdac41b11b9fa2211910160405180910390a25050565b6000806111d86111bc6002600a612b58565b6111c7906064612c26565b6111d2866064611021565b90611b4f565b905060006111e68285611021565b95945050505050565b600061101a8284612c45565b600061101a8284612ae3565b600061124161122161121a85600a611b4f565b84906111fb565b6001600160a01b03861660009081526101346020526040902054906111fb565b949350505050565b81518351146112ab5760405162461bcd60e51b815260206004820152602860248201527f455243313135353a2069647320616e6420616d6f756e7473206c656e677468206044820152670dad2e6dac2e8c6d60c31b6064820152608401610424565b6001600160a01b0384166112d15760405162461bcd60e51b8152600401610424906129a2565b336112e0818787878787611919565b60005b84518110156113e557600085828151811061130e57634e487b7160e01b600052603260045260246000fd5b60200260200101519050600085838151811061133a57634e487b7160e01b600052603260045260246000fd5b602090810291909101810151600084815260fd835260408082206001600160a01b038e16835290935291909120549091508181101561138b5760405162461bcd60e51b8152600401610424906129e7565b600083815260fd602090815260408083206001600160a01b038e8116855292528083208585039055908b168252812080548492906113ca908490612ae3565b92505081905550505050806113de90612cc3565b90506112e3565b50846001600160a01b0316866001600160a01b0316826001600160a01b03167f4a39dc06d4c0dbc64b70af90fd698a233a518aa5d07e595d983b8c0526c8f7fb87876040516114359291906128d3565b60405180910390a461144b818787878787611b5b565b505050505050565b61145b611c25565b6065805460ff191690557f5db9ee0a495bf2e6ff9c91a7834c1ba4fdd244a5e8aa4e537bd38aeae4b073aa335b6040516001600160a01b03909116815260200160405180910390a1565b6114ad611c70565b6065805460ff191660011790557f62e78cea01bee320cd4e420270b5ea74000d11b0c9f74754ebdbfc544b05a2586114883390565b600054610100900460ff166115095760405162461bcd60e51b815260040161042490612a31565b61099d611cb8565b600054610100900460ff166115385760405162461bcd60e51b815260040161042490612a31565b61099d611ce5565b600054610100900460ff166115675760405162461bcd60e51b815260040161042490612a31565b61157081611d18565b50565b600054610100900460ff1661159a5760405162461bcd60e51b815260040161042490612a31565b610ccb8282611d48565b816001600160a01b0316836001600160a01b031614156116185760405162461bcd60e51b815260206004820152602960248201527f455243313135353a2073657474696e6720617070726f76616c20737461747573604482015268103337b91039b2b63360b91b6064820152608401610424565b6001600160a01b03838116600081815260fe6020908152604080832094871680845294825291829020805460ff191686151590811790915591519182527f17307eab39ab6107e8899845ad3d59bd9653f200f220920489ca2b5937696c31910160405180910390a3505050565b6001600160a01b0384166116ab5760405162461bcd60e51b8152600401610424906129a2565b3360006116b7856118c0565b905060006116c4856118c0565b90506116d4838989858589611919565b600086815260fd602090815260408083206001600160a01b038c168452909152902054858110156117175760405162461bcd60e51b8152600401610424906129e7565b600087815260fd602090815260408083206001600160a01b038d8116855292528083208985039055908a16825281208054889290611756908490612ae3565b909155505060408051888152602081018890526001600160a01b03808b16928c821692918816917fc3d58168c5ae7397731d063d5bbf3d657854427343f4c083240f7aacaa2d0f62910160405180910390a46117b6848a8a8a8a8a6119e4565b505050505050505050565b60006104a17f9243bc2ff840e6b43f8de056f2ebd1166b90d704dc2fcee9a54706e3ff72198a6117f18480612a7c565b6040516117ff9291906127e4565b6040519081900390206118156020860186612a7c565b6040516118239291906127e4565b604051809103902085604001602081019061183e9190612374565b8660600135876080013560405160200161188996959493929190958652602086019490945260408501929092526001600160a01b03166060840152608083015260a082015260c00190565b60405160208183030381529060405280519060200120611d89565b60008060006118b38585611dd7565b91509150610af881611e1d565b6040805160018082528183019092526060916000919060208083019080368337019050509050828160008151811061190857634e487b7160e01b600052603260045260246000fd5b602090810291909101015292915050565b60005b83518110156111495761196684828151811061194857634e487b7160e01b600052603260045260246000fd5b60200260200101516000908152610130602052604090205460ff1690565b156119d4576001600160a01b038616158061198857506001600160a01b038516155b6119d45760405162461bcd60e51b815260206004820152601b60248201527f536f756c626f756e642c204e6f6e2d5472616e7366657261626c6500000000006044820152606401610424565b6119dd81612cc3565b905061191c565b6001600160a01b0384163b1561144b5760405163f23a6e6160e01b81526001600160a01b0385169063f23a6e6190611a28908990899088908890889060040161287b565b602060405180830381600087803b158015611a4257600080fd5b505af1925050508015611a72575060408051601f3d908101601f19168201909252611a6f918101906126bf565b60015b611b1f57611a7e612d0a565b806308c379a01415611ab85750611a93612d21565b80611a9e5750611aba565b8060405162461bcd60e51b815260040161042491906128f8565b505b60405162461bcd60e51b815260206004820152603460248201527f455243313135353a207472616e7366657220746f206e6f6e20455243313135356044820152732932b1b2b4bb32b91034b6b83632b6b2b73a32b960611b6064820152608401610424565b6001600160e01b0319811663f23a6e6160e01b146111495760405162461bcd60e51b81526004016104249061295a565b600061101a8284612afb565b6001600160a01b0384163b1561144b5760405163bc197c8160e01b81526001600160a01b0385169063bc197c8190611b9f908990899088908890889060040161281d565b602060405180830381600087803b158015611bb957600080fd5b505af1925050508015611be9575060408051601f3d908101601f19168201909252611be6918101906126bf565b60015b611bf557611a7e612d0a565b6001600160e01b0319811663bc197c8160e01b146111495760405162461bcd60e51b81526004016104249061295a565b611c2d610b00565b61099d5760405162461bcd60e51b815260206004820152601460248201527314185d5cd8589b194e881b9bdd081c185d5cd95960621b6044820152606401610424565b611c78610b00565b1561099d5760405162461bcd60e51b815260206004820152601060248201526f14185d5cd8589b194e881c185d5cd95960821b6044820152606401610424565b600054610100900460ff16611cdf5760405162461bcd60e51b815260040161042490612a31565b60018055565b600054610100900460ff16611d0c5760405162461bcd60e51b815260040161042490612a31565b6065805460ff19169055565b600054610100900460ff16611d3f5760405162461bcd60e51b815260040161042490612a31565b61157081612020565b600054610100900460ff16611d6f5760405162461bcd60e51b815260040161042490612a31565b815160209283012081519190920120609791909155609855565b60006104a1611d96612033565b8360405161190160f01b6020820152602281018390526042810182905260009060620160405160208183030381529060405280519060200120905092915050565b600080825160411415611e0e5760208301516040840151606085015160001a611e02878285856120b3565b94509450505050611e16565b506000905060025b9250929050565b6000816004811115611e3f57634e487b7160e01b600052602160045260246000fd5b1415611e4a57611570565b6001816004811115611e6c57634e487b7160e01b600052602160045260246000fd5b1415611eba5760405162461bcd60e51b815260206004820152601860248201527f45434453413a20696e76616c6964207369676e617475726500000000000000006044820152606401610424565b6002816004811115611edc57634e487b7160e01b600052602160045260246000fd5b1415611f2a5760405162461bcd60e51b815260206004820152601f60248201527f45434453413a20696e76616c6964207369676e6174757265206c656e677468006044820152606401610424565b6003816004811115611f4c57634e487b7160e01b600052602160045260246000fd5b1415611fa55760405162461bcd60e51b815260206004820152602260248201527f45434453413a20696e76616c6964207369676e6174757265202773272076616c604482015261756560f01b6064820152608401610424565b6004816004811115611fc757634e487b7160e01b600052602160045260246000fd5b14156115705760405162461bcd60e51b815260206004820152602260248201527f45434453413a20696e76616c6964207369676e6174757265202776272076616c604482015261756560f01b6064820152608401610424565b8051610ccb9060ff9060208401906121a0565b60006120ae7f8b73c3c69bb8fe3d512ecc4cf759cc79239f7b179b0ffacaa9a75d522b39400f61206260975490565b6098546040805160208101859052908101839052606081018290524660808201523060a082015260009060c0016040516020818303038152906040528051906020012090509392505050565b905090565b6000807f7fffffffffffffffffffffffffffffff5d576e7357a4501ddfe92f46681b20a08311156120ea5750600090506003612197565b8460ff16601b1415801561210257508460ff16601c14155b156121135750600090506004612197565b6040805160008082526020820180845289905260ff881692820192909252606081018690526080810185905260019060a0016020604051602081039080840390855afa158015612167573d6000803e3d6000fd5b5050604051601f1901519150506001600160a01b03811661219057600060019250925050612197565b9150600090505b94509492505050565b8280546121ac90612c5c565b90600052602060002090601f0160209004810192826121ce5760008555612214565b82601f106121e757805160ff1916838001178555612214565b82800160010185558215612214579182015b828111156122145782518255916020019190600101906121f9565b50612220929150612224565b5090565b5b808211156122205760008155600101612225565b80356001600160a01b03811681146104a457600080fd5b60008083601f840112612261578182fd5b5081356001600160401b03811115612277578182fd5b6020830191508360208260051b8501011115611e1657600080fd5b600082601f8301126122a2578081fd5b813560206122af82612ac0565b6040516122bc8282612c97565b8381528281019150858301600585901b870184018810156122db578586fd5b855b858110156122f9578135845292840192908401906001016122dd565b5090979650505050505050565b600082601f830112612316578081fd5b81356001600160401b0381111561232f5761232f612cf4565b604051612346601f8301601f191660200182612c97565b81815284602083860101111561235a578283fd5b816020850160208301379081016020019190915292915050565b600060208284031215612385578081fd5b61101a82612239565b600080604083850312156123a0578081fd5b6123a983612239565b91506123b760208401612239565b90509250929050565b600080600080600060a086880312156123d7578081fd5b6123e086612239565b94506123ee60208701612239565b935060408601356001600160401b0380821115612409578283fd5b61241589838a01612292565b9450606088013591508082111561242a578283fd5b61243689838a01612292565b9350608088013591508082111561244b578283fd5b5061245888828901612306565b9150509295509295909350565b600080600080600060a0868803121561247c578081fd5b61248586612239565b945061249360208701612239565b9350604086013592506060860135915060808601356001600160401b038111156124bb578182fd5b61245888828901612306565b600080604083850312156124d9578182fd5b6124e283612239565b9150602083013580151581146124f6578182fd5b809150509250929050565b600080600060608486031215612515578283fd5b61251e84612239565b925060208401356001600160401b0380821115612539578384fd5b61254587838801612306565b9350604086013591508082111561255a578283fd5b5061256786828701612306565b9150509250925092565b60008060408385031215612583578182fd5b61258c83612239565b946020939093013593505050565b600080602083850312156125ac578182fd5b82356001600160401b038111156125c1578283fd5b6125cd85828601612250565b90969095509350505050565b600080604083850312156125eb578182fd5b82356001600160401b0380821115612601578384fd5b818501915085601f830112612614578384fd5b8135602061262182612ac0565b60405161262e8282612c97565b8381528281019150858301600585901b870184018b101561264d578889fd5b8896505b848710156126765761266281612239565b835260019690960195918301918301612651565b509650508601359250508082111561268c578283fd5b5061269985828601612292565b9150509250929050565b6000602082840312156126b4578081fd5b813561101a81612db2565b6000602082840312156126d0578081fd5b815161101a81612db2565b6000806000604084860312156126ef578081fd5b83356001600160401b0380821115612705578283fd5b9085019060c08288031215612718578283fd5b9093506020850135908082111561272d578283fd5b5061273a86828701612250565b9497909650939450505050565b600060208284031215612758578081fd5b5035919050565b6000815180845260208085019450808401835b8381101561278e57815187529582019590820190600101612772565b509495945050505050565b60008151808452815b818110156127be576020818501810151868301820152016127a2565b818111156127cf5782602083870101525b50601f01601f19169290920160200192915050565b6000828483379101908152919050565b6000838583375060609190911b6bffffffffffffffffffffffff19169101908152601401919050565b6001600160a01b0386811682528516602082015260a0604082018190526000906128499083018661275f565b828103606084015261285b818661275f565b9050828103608084015261286f8185612799565b98975050505050505050565b6001600160a01b03868116825285166020820152604081018490526060810183905260a0608082018190526000906128b590830184612799565b979650505050505050565b60006020825261101a602083018461275f565b6000604082526128e6604083018561275f565b82810360208401526111e6818561275f565b60006020825261101a6020830184612799565b6020808252602f908201527f455243313135353a2063616c6c6572206973206e6f7420746f6b656e206f776e60408201526e195c881b9bdc88185c1c1c9bdd9959608a1b606082015260800190565b60208082526028908201527f455243313135353a204552433131353552656365697665722072656a656374656040820152676420746f6b656e7360c01b606082015260800190565b60208082526025908201527f455243313135353a207472616e7366657220746f20746865207a65726f206164604082015264647265737360d81b606082015260800190565b6020808252602a908201527f455243313135353a20696e73756666696369656e742062616c616e636520666f60408201526939103a3930b739b332b960b11b606082015260800190565b6020808252602b908201527f496e697469616c697a61626c653a20636f6e7472616374206973206e6f74206960408201526a6e697469616c697a696e6760a81b606082015260800190565b6000808335601e19843603018112612a92578283fd5b8301803591506001600160401b03821115612aab578283fd5b602001915036819003821315611e1657600080fd5b60006001600160401b03821115612ad957612ad9612cf4565b5060051b60200190565b60008219821115612af657612af6612cde565b500190565b600082612b1657634e487b7160e01b81526012600452602481fd5b500490565b80825b6001808611612b2d5750612197565b818704821115612b3f57612b3f612cde565b80861615612b4c57918102915b9490941c938002612b1e565b600061101a6000198484600082612b715750600161101a565b81612b7e5750600061101a565b8160018114612b945760028114612b9e57612bcb565b600191505061101a565b60ff841115612baf57612baf612cde565b6001841b915084821115612bc557612bc5612cde565b5061101a565b5060208310610133831016604e8410600b8410161715612bfe575081810a83811115612bf957612bf9612cde565b61101a565b612c0b8484846001612b1b565b808604821115612c1d57612c1d612cde565b02949350505050565b6000816000190483118215151615612c4057612c40612cde565b500290565b600082821015612c5757612c57612cde565b500390565b600181811c90821680612c7057607f821691505b60208210811415612c9157634e487b7160e01b600052602260045260246000fd5b50919050565b601f8201601f191681016001600160401b0381118282101715612cbc57612cbc612cf4565b6040525050565b6000600019821415612cd757612cd7612cde565b5060010190565b634e487b7160e01b600052601160045260246000fd5b634e487b7160e01b600052604160045260246000fd5b600060033d1115610b0757600481823e5160e01c90565b600060443d1015612d3157610b07565b6040516003193d81016004833e81513d6001600160401b038160248401118184111715612d62575050505050610b07565b8285019150815181811115612d7c57505050505050610b07565b843d8701016020828501011115612d9857505050505050610b07565b612da760208286010187612c97565b509094505050505090565b6001600160e01b03198116811461157057600080fdfe68747470733a2f2f73746f726167652e676f6f676c65617069732e636f6d2f74687265642d70726f746f636f6c2e61707073706f742e636f6d2f736d6172742d7574696c732f7b69647d2e6a736f6ea26469706673582212208e049d2220c650e0aaab4aa0dcdf9f26ec10eb8dd67964f51817bccf40ca433464736f6c63430008030033",
  "linkReferences": {},
  "deployedLinkReferences": {}
}