{
  "_format": "hh-sol-artifact-1",
  "contractName": "ThredCore",
  "sourceName": "contracts/ThredCore/ThredCore.sol",
  "abi": [
    {
      "anonymous": false,
      "inputs": [
        {
          "indexed": true,
          "internalType": "address",
          "name": "account",
          "type": "address"
        },
        {
          "indexed": true,
          "internalType": "address",
          "name": "operator",
          "type": "address"
        },
        {
          "indexed": false,
          "internalType": "bool",
          "name": "approved",
          "type": "bool"
        }
      ],
      "name": "ApprovalForAll",
      "type": "event"
    },
    {
      "anonymous": false,
      "inputs": [
        {
          "indexed": false,
          "internalType": "uint8",
          "name": "version",
          "type": "uint8"
        }
      ],
      "name": "Initialized",
      "type": "event"
    },
    {
      "anonymous": false,
      "inputs": [
        {
          "indexed": true,
          "internalType": "uint256",
          "name": "tokenId",
          "type": "uint256"
        },
        {
          "indexed": true,
          "internalType": "address",
          "name": "signer",
          "type": "address"
        },
        {
          "indexed": true,
          "internalType": "address",
          "name": "user",
          "type": "address"
        }
      ],
      "name": "Install",
      "type": "event"
    },
    {
      "anonymous": false,
      "inputs": [
        {
          "indexed": false,
          "internalType": "address",
          "name": "account",
          "type": "address"
        }
      ],
      "name": "Paused",
      "type": "event"
    },
    {
      "anonymous": false,
      "inputs": [
        {
          "indexed": true,
          "internalType": "uint256",
          "name": "id",
          "type": "uint256"
        },
        {
          "indexed": false,
          "internalType": "bool",
          "name": "bounded",
          "type": "bool"
        }
      ],
      "name": "Soulbound",
      "type": "event"
    },
    {
      "anonymous": false,
      "inputs": [
        {
          "indexed": true,
          "internalType": "address",
          "name": "operator",
          "type": "address"
        },
        {
          "indexed": true,
          "internalType": "address",
          "name": "from",
          "type": "address"
        },
        {
          "indexed": true,
          "internalType": "address",
          "name": "to",
          "type": "address"
        },
        {
          "indexed": false,
          "internalType": "uint256[]",
          "name": "ids",
          "type": "uint256[]"
        },
        {
          "indexed": false,
          "internalType": "uint256[]",
          "name": "values",
          "type": "uint256[]"
        }
      ],
      "name": "TransferBatch",
      "type": "event"
    },
    {
      "anonymous": false,
      "inputs": [
        {
          "indexed": true,
          "internalType": "address",
          "name": "operator",
          "type": "address"
        },
        {
          "indexed": true,
          "internalType": "address",
          "name": "from",
          "type": "address"
        },
        {
          "indexed": true,
          "internalType": "address",
          "name": "to",
          "type": "address"
        },
        {
          "indexed": false,
          "internalType": "uint256",
          "name": "id",
          "type": "uint256"
        },
        {
          "indexed": false,
          "internalType": "uint256",
          "name": "value",
          "type": "uint256"
        }
      ],
      "name": "TransferSingle",
      "type": "event"
    },
    {
      "anonymous": false,
      "inputs": [
        {
          "indexed": false,
          "internalType": "string",
          "name": "value",
          "type": "string"
        },
        {
          "indexed": true,
          "internalType": "uint256",
          "name": "id",
          "type": "uint256"
        }
      ],
      "name": "URI",
      "type": "event"
    },
    {
      "anonymous": false,
      "inputs": [
        {
          "indexed": true,
          "internalType": "uint256",
          "name": "tokenId",
          "type": "uint256"
        },
        {
          "indexed": true,
          "internalType": "address",
          "name": "user",
          "type": "address"
        }
      ],
      "name": "Uninstall",
      "type": "event"
    },
    {
      "anonymous": false,
      "inputs": [
        {
          "indexed": false,
          "internalType": "address",
          "name": "account",
          "type": "address"
        }
      ],
      "name": "Unpaused",
      "type": "event"
    },
    {
      "inputs": [
        {
          "internalType": "string",
          "name": "id",
          "type": "string"
        },
        {
          "internalType": "address",
          "name": "signer",
          "type": "address"
        },
        {
          "internalType": "address",
          "name": "user",
          "type": "address"
        }
      ],
      "name": "appInstalled",
      "outputs": [
        {
          "internalType": "bool",
          "name": "",
          "type": "bool"
        }
      ],
      "stateMutability": "view",
      "type": "function"
    },
    {
      "inputs": [
        {
          "internalType": "address",
          "name": "account",
          "type": "address"
        },
        {
          "internalType": "uint256",
          "name": "id",
          "type": "uint256"
        }
      ],
      "name": "balanceOf",
      "outputs": [
        {
          "internalType": "uint256",
          "name": "",
          "type": "uint256"
        }
      ],
      "stateMutability": "view",
      "type": "function"
    },
    {
      "inputs": [
        {
          "internalType": "address[]",
          "name": "accounts",
          "type": "address[]"
        },
        {
          "internalType": "uint256[]",
          "name": "ids",
          "type": "uint256[]"
        }
      ],
      "name": "balanceOfBatch",
      "outputs": [
        {
          "internalType": "uint256[]",
          "name": "",
          "type": "uint256[]"
        }
      ],
      "stateMutability": "view",
      "type": "function"
    },
    {
      "inputs": [
        {
          "components": [
            {
              "internalType": "string",
              "name": "id",
              "type": "string"
            },
            {
              "internalType": "address",
              "name": "signer",
              "type": "address"
            },
            {
              "internalType": "address",
              "name": "payAddress",
              "type": "address"
            },
            {
              "internalType": "address",
              "name": "feeAddress",
              "type": "address"
            },
            {
              "internalType": "uint256",
              "name": "fee",
              "type": "uint256"
            },
            {
              "internalType": "uint256",
              "name": "price",
              "type": "uint256"
            },
            {
              "internalType": "uint256",
              "name": "chainId",
              "type": "uint256"
            },
            {
              "internalType": "uint256",
              "name": "version",
              "type": "uint256"
            },
            {
              "internalType": "bool",
              "name": "listed",
              "type": "bool"
            },
            {
              "internalType": "bytes",
              "name": "signature",
              "type": "bytes"
            }
          ],
          "internalType": "struct ThredCore.SmartUtil",
          "name": "util",
          "type": "tuple"
        }
      ],
      "name": "buySmartUtil",
      "outputs": [],
      "stateMutability": "payable",
      "type": "function"
    },
    {
      "inputs": [],
      "name": "deployerAddress",
      "outputs": [
        {
          "internalType": "address",
          "name": "",
          "type": "address"
        }
      ],
      "stateMutability": "view",
      "type": "function"
    },
    {
      "inputs": [
        {
          "internalType": "address",
          "name": "user",
          "type": "address"
        }
      ],
      "name": "fetchAppsForUser",
      "outputs": [
        {
          "internalType": "string[]",
          "name": "",
          "type": "string[]"
        }
      ],
      "stateMutability": "view",
      "type": "function"
    },
    {
      "inputs": [
        {
          "internalType": "string",
          "name": "id",
          "type": "string"
        },
        {
          "internalType": "address",
          "name": "signer",
          "type": "address"
        }
      ],
      "name": "fetchDownloads",
      "outputs": [
        {
          "internalType": "uint256",
          "name": "",
          "type": "uint256"
        }
      ],
      "stateMutability": "view",
      "type": "function"
    },
    {
      "inputs": [
        {
          "internalType": "address[]",
          "name": "payoutAddresses",
          "type": "address[]"
        }
      ],
      "name": "fetchPayouts",
      "outputs": [
        {
          "internalType": "uint256[]",
          "name": "",
          "type": "uint256[]"
        }
      ],
      "stateMutability": "view",
      "type": "function"
    },
    {
      "inputs": [
        {
          "internalType": "address",
          "name": "user",
          "type": "address"
        }
      ],
      "name": "fetchRep",
      "outputs": [
        {
          "internalType": "uint256",
          "name": "",
          "type": "uint256"
        }
      ],
      "stateMutability": "view",
      "type": "function"
    },
    {
      "inputs": [
        {
          "internalType": "uint256",
          "name": "tokenId",
          "type": "uint256"
        }
      ],
      "name": "getAppIdForToken",
      "outputs": [
        {
          "internalType": "string",
          "name": "",
          "type": "string"
        }
      ],
      "stateMutability": "view",
      "type": "function"
    },
    {
      "inputs": [],
      "name": "getChainID",
      "outputs": [
        {
          "internalType": "uint256",
          "name": "",
          "type": "uint256"
        }
      ],
      "stateMutability": "view",
      "type": "function"
    },
    {
      "inputs": [
        {
          "internalType": "address",
          "name": "owner",
          "type": "address"
        },
        {
          "internalType": "string",
          "name": "domain",
          "type": "string"
        },
        {
          "internalType": "string",
          "name": "version",
          "type": "string"
        }
      ],
      "name": "initialize",
      "outputs": [],
      "stateMutability": "nonpayable",
      "type": "function"
    },
    {
      "inputs": [
        {
          "internalType": "address",
          "name": "account",
          "type": "address"
        },
        {
          "internalType": "address",
          "name": "operator",
          "type": "address"
        }
      ],
      "name": "isApprovedForAll",
      "outputs": [
        {
          "internalType": "bool",
          "name": "",
          "type": "bool"
        }
      ],
      "stateMutability": "view",
      "type": "function"
    },
    {
      "inputs": [
        {
          "internalType": "uint256",
          "name": "id",
          "type": "uint256"
        }
      ],
      "name": "isSoulbound",
      "outputs": [
        {
          "internalType": "bool",
          "name": "",
          "type": "bool"
        }
      ],
      "stateMutability": "view",
      "type": "function"
    },
    {
      "inputs": [],
      "name": "pause",
      "outputs": [],
      "stateMutability": "nonpayable",
      "type": "function"
    },
    {
      "inputs": [],
      "name": "paused",
      "outputs": [
        {
          "internalType": "bool",
          "name": "",
          "type": "bool"
        }
      ],
      "stateMutability": "view",
      "type": "function"
    },
    {
      "inputs": [
        {
          "internalType": "address",
          "name": "from",
          "type": "address"
        },
        {
          "internalType": "address",
          "name": "to",
          "type": "address"
        },
        {
          "internalType": "uint256[]",
          "name": "ids",
          "type": "uint256[]"
        },
        {
          "internalType": "uint256[]",
          "name": "amounts",
          "type": "uint256[]"
        },
        {
          "internalType": "bytes",
          "name": "data",
          "type": "bytes"
        }
      ],
      "name": "safeBatchTransferFrom",
      "outputs": [],
      "stateMutability": "nonpayable",
      "type": "function"
    },
    {
      "inputs": [
        {
          "internalType": "address",
          "name": "from",
          "type": "address"
        },
        {
          "internalType": "address",
          "name": "to",
          "type": "address"
        },
        {
          "internalType": "uint256",
          "name": "id",
          "type": "uint256"
        },
        {
          "internalType": "uint256",
          "name": "amount",
          "type": "uint256"
        },
        {
          "internalType": "bytes",
          "name": "data",
          "type": "bytes"
        }
      ],
      "name": "safeTransferFrom",
      "outputs": [],
      "stateMutability": "nonpayable",
      "type": "function"
    },
    {
      "inputs": [
        {
          "internalType": "address",
          "name": "operator",
          "type": "address"
        },
        {
          "internalType": "bool",
          "name": "approved",
          "type": "bool"
        }
      ],
      "name": "setApprovalForAll",
      "outputs": [],
      "stateMutability": "nonpayable",
      "type": "function"
    },
    {
      "inputs": [
        {
          "internalType": "bytes4",
          "name": "interfaceId",
          "type": "bytes4"
        }
      ],
      "name": "supportsInterface",
      "outputs": [
        {
          "internalType": "bool",
          "name": "",
          "type": "bool"
        }
      ],
      "stateMutability": "view",
      "type": "function"
    },
    {
      "inputs": [],
      "name": "unpause",
      "outputs": [],
      "stateMutability": "nonpayable",
      "type": "function"
    },
    {
      "inputs": [
        {
          "internalType": "uint256",
          "name": "",
          "type": "uint256"
        }
      ],
      "name": "uri",
      "outputs": [
        {
          "internalType": "string",
          "name": "",
          "type": "string"
        }
      ],
      "stateMutability": "view",
      "type": "function"
    },
    {
      "inputs": [],
      "name": "withDrawFunds",
      "outputs": [],
      "stateMutability": "nonpayable",
      "type": "function"
    }
  ],
  "bytecode": "0x608060405234801561001057600080fd5b50613599806100206000396000f3fe60806040526004361061013f5760003560e01c80638456cb59116100b6578063bbedeb1f1161006f578063bbedeb1f14610373578063d2ab9a83146103aa578063d7dc43a5146103d7578063e985e9c5146103f7578063efdee94f14610440578063f242432a146104795761013f565b80638456cb59146102c557806390657147146102da578063911ec470146102fa578063a22cb4651461032b578063b26727451461034b578063b78da3861461035e5761013f565b80633f4ba83a116101085780633f4ba83a146102165780634e1273f41461022b5780634fe00b6e14610258578063564b81ef146102785780635c975abb1461028d578063608595b5146102a55761013f565b8062fdd58e1461014457806301ffc9a7146101775780630e89341c146101a75780632eb2c2d6146101d457806338cfbce6146101f6575b600080fd5b34801561015057600080fd5b5061016461015f366004612b93565b610499565b6040519081526020015b60405180910390f35b34801561018357600080fd5b50610197610192366004612d0f565b610531565b604051901515815260200161016e565b3480156101b357600080fd5b506101c76101c2366004612e32565b610585565b60405161016e9190613044565b3480156101e057600080fd5b506101f46101ef3660046129f3565b610619565b005b34801561020257600080fd5b506101c7610211366004612e32565b610665565b34801561022257600080fd5b506101f4610683565b34801561023757600080fd5b5061024b610246366004612c2b565b6106d8565b60405161016e919061300c565b34801561026457600080fd5b50610197610273366004612d98565b610839565b34801561028457600080fd5b506101646108a5565b34801561029957600080fd5b5060655460ff16610197565b3480156102b157600080fd5b506101646102c0366004612d47565b6108aa565b3480156102d157600080fd5b506101f46108f3565b3480156102e657600080fd5b506101f46102f5366004612b23565b610946565b34801561030657600080fd5b50610197610315366004612e32565b6000908152610130602052604090205460ff1690565b34801561033757600080fd5b506101f4610346366004612afa565b610aa9565b6101f4610359366004612dfa565b610ab8565b34801561036a57600080fd5b506101f4610e7f565b34801561037f57600080fd5b5061016461038e3660046129a7565b6001600160a01b03166000908152610134602052604090205490565b3480156103b657600080fd5b506103ca6103c53660046129a7565b611033565b60405161016e9190612fab565b3480156103e357600080fd5b5061024b6103f2366004612bbc565b61110d565b34801561040357600080fd5b506101976104123660046129c1565b6001600160a01b03918216600090815260fe6020908152604080832093909416825291909152205460ff1690565b34801561044c57600080fd5b5061012f54610461906001600160a01b031681565b6040516001600160a01b03909116815260200161016e565b34801561048557600080fd5b506101f4610494366004612a98565b611204565b60006001600160a01b0383166105095760405162461bcd60e51b815260206004820152602a60248201527f455243313135353a2061646472657373207a65726f206973206e6f742061207660448201526930b634b21037bbb732b960b11b60648201526084015b60405180910390fd5b50600090815260fd602090815260408083206001600160a01b03949094168352929052205490565b60006001600160e01b03198216636cdb3d1360e11b148061056257506001600160e01b031982166303a24d0760e21b145b8061057d57506301ffc9a760e01b6001600160e01b03198316145b90505b919050565b606060ff8054610594906133a8565b80601f01602080910402602001604051908101604052809291908181526020018280546105c0906133a8565b801561060d5780601f106105e25761010080835404028352916020019161060d565b820191906000526020600020905b8154815290600101906020018083116105f057829003601f168201915b50505050509050919050565b6001600160a01b03851633148061063557506106358533610412565b6106515760405162461bcd60e51b815260040161050090613057565b61065e8585858585611249565b5050505050565b600081815261013660205260409020805460609190610594906133a8565b61012f546001600160a01b031633146106ce5760405162461bcd60e51b815260206004820152600d60248201526c556e617574686f72697a65642160981b6044820152606401610500565b6106d6611461565b565b6060815183511461073d5760405162461bcd60e51b815260206004820152602960248201527f455243313135353a206163636f756e747320616e6420696473206c656e677468604482015268040dad2e6dac2e8c6d60bb1b6064820152608401610500565b600083516001600160401b0381111561076657634e487b7160e01b600052604160045260246000fd5b60405190808252806020026020018201604052801561078f578160200160208202803683370190505b50905060005b8451811015610831576107f68582815181106107c157634e487b7160e01b600052603260045260246000fd5b60200260200101518583815181106107e957634e487b7160e01b600052603260045260246000fd5b6020026020010151610499565b82828151811061081657634e487b7160e01b600052603260045260246000fd5b602090810291909101015261082a8161340f565b9050610795565b509392505050565b60008085858560405160200161085193929190612edf565b60408051601f1981840301815291815281516020928301206000818152610133909352912054909150801561089657600061088c8583610499565b119250505061089d565b6000925050505b949350505050565b465b90565b6000808484846040516020016108c293929190612edf565b60408051601f19818403018152918152815160209283012060009081526101359092529020549150505b9392505050565b61012f546001600160a01b0316331461093e5760405162461bcd60e51b815260206004820152600d60248201526c556e617574686f72697a65642160981b6044820152606401610500565b6106d66114b3565b600054610100900460ff16158080156109665750600054600160ff909116105b806109805750303b158015610980575060005460ff166001145b6109e35760405162461bcd60e51b815260206004820152602e60248201527f496e697469616c697a61626c653a20636f6e747261637420697320616c72656160448201526d191e481a5b9a5d1a585b1a5e995960921b6064820152608401610500565b6000805460ff191660011790558015610a06576000805461ff0019166101001790555b610a0e6114f0565b610a1661151f565b610a376040518060800160405280604f8152602001613515604f913961154e565b610a418383611581565b61012f80546001600160a01b0319166001600160a01b0386161790558015610aa3576000805461ff0019169055604051600181527f7f26b83ff96e1f2b6a682f133852f6798a09c465da95921460cefb38474024989060200160405180910390a15b50505050565b610ab43383836115b2565b5050565b60026001541415610b0b5760405162461bcd60e51b815260206004820152601f60248201527f5265656e7472616e637947756172643a207265656e7472616e742063616c6c006044820152606401610500565b600260015560655460ff1615610b585760405162461bcd60e51b8152602060048201526012602482015271151c985b9cd858dd1a5b99c814185d5cd95960721b6044820152606401610500565b6000610b6382611693565b9050610b7560408301602084016129a7565b6001600160a01b0316816001600160a01b031614610bec5760405162461bcd60e51b815260206004820152602e60248201527f556e617574686f72697a6564205369676e65722e204170702063616e206e6f7460448201526d1031329034b739ba30b63632b21760911b6064820152608401610500565b8160a001353414610c345760405162461bcd60e51b8152602060048201526012602482015271496e73756666696369656e742046756e647360701b6044820152606401610500565b610c3c6108a5565b8260c0013514610ca25760405162461bcd60e51b815260206004820152602b60248201527f54686973206974656d206973206e6f7420636f6d70617469626c65207769746860448201526a103a3434b99031b430b4b760a91b6064820152608401610500565b6000610cae83806131c8565b83604051602001610cc193929190612edf565b60408051601f19818403018152918152815160209283012060008181526101339093529120549091508015610d5957610cfa3382610499565b15610d595760405162461bcd60e51b815260206004820152602960248201527f41707020697320616c726561647920696e7374616c6c6564206f6e20746869736044820152681030b2323932b9b99760b91b6064820152608401610500565b6000828152610137602052604090205460e08501351015610dd85760405162461bcd60e51b815260206004820152603360248201527f5369676e617475726520457870697265642e20506c65617365207573652061206044820152726e6577657220617070207369676e617475726560681b6064820152608401610500565b610dea61012085016101008601612cf5565b610e405760405162461bcd60e51b815260206004820152602160248201527f417070206973206e6f7420617661696c61626c6520666f7220646f776e6c6f616044820152601960fa1b6064820152608401610500565b60008281526101376020526040902060e08501359055610e62848483856116ed565b610e6b846117cf565b610e758484611918565b5050600180555050565b60026001541415610ed25760405162461bcd60e51b815260206004820152601f60248201527f5265656e7472616e637947756172643a207265656e7472616e742063616c6c006044820152606401610500565b600260015560655460ff161580610ef4575061012f546001600160a01b031633145b610f355760405162461bcd60e51b8152602060048201526012602482015271151c985b9cd858dd1a5b99c814185d5cd95960721b6044820152606401610500565b336000908152610131602052604090205480610f8a5760405162461bcd60e51b81526020600482015260146024820152732737ba3434b733903a37903bb4ba34323930bb9760611b6044820152606401610500565b604051600090339083908381818185875af1925050503d8060008114610fcc576040519150601f19603f3d011682016040523d82523d6000602084013e610fd1565b606091505b505090508061101a5760405162461bcd60e51b815260206004820152601560248201527429b7b6b2ba3434b733903bb2b73a103bb937b7339760591b6044820152606401610500565b5050336000908152610131602052604081205560018055565b606060006110416101325490565b90506000816001600160401b0381111561106b57634e487b7160e01b600052604160045260246000fd5b60405190808252806020026020018201604052801561109e57816020015b60608152602001906001900390816110895790505b50905060005b828110156108315760006110bd8661015f84600161322f565b11156110fd576110d161021182600161322f565b8282815181106110f157634e487b7160e01b600052603260045260246000fd5b60200260200101819052505b6111068161340f565b90506110a4565b60606000826001600160401b0381111561113757634e487b7160e01b600052604160045260246000fd5b604051908082528060200260200182016040528015611160578160200160208202803683370190505b50905060005b8381101561083157610131600086868481811061119357634e487b7160e01b600052603260045260246000fd5b90506020020160208101906111a891906129a7565b6001600160a01b03166001600160a01b03168152602001908152602001600020548282815181106111e957634e487b7160e01b600052603260045260246000fd5b60209081029190910101526111fd8161340f565b9050611166565b6001600160a01b03851633148061122057506112208533610412565b61123c5760405162461bcd60e51b815260040161050090613057565b61065e8585858585611946565b81518351146112ab5760405162461bcd60e51b815260206004820152602860248201527f455243313135353a2069647320616e6420616d6f756e7473206c656e677468206044820152670dad2e6dac2e8c6d60c31b6064820152608401610500565b6001600160a01b0384166112d15760405162461bcd60e51b8152600401610500906130ee565b336112e0818787878787611a90565b60005b84518110156113e557600085828151811061130e57634e487b7160e01b600052603260045260246000fd5b60200260200101519050600085838151811061133a57634e487b7160e01b600052603260045260246000fd5b602090810291909101810151600084815260fd835260408082206001600160a01b038e16835290935291909120549091508181101561138b5760405162461bcd60e51b815260040161050090613133565b600083815260fd602090815260408083206001600160a01b038e8116855292528083208585039055908b168252812080548492906113ca90849061322f565b92505081905550505050806113de9061340f565b90506112e3565b50846001600160a01b0316866001600160a01b0316826001600160a01b03167f4a39dc06d4c0dbc64b70af90fd698a233a518aa5d07e595d983b8c0526c8f7fb878760405161143592919061301f565b60405180910390a461144b818787878787611b64565b611459818787878787611bed565b505050505050565b611469611d58565b6065805460ff191690557f5db9ee0a495bf2e6ff9c91a7834c1ba4fdd244a5e8aa4e537bd38aeae4b073aa335b6040516001600160a01b03909116815260200160405180910390a1565b6114bb611da1565b6065805460ff191660011790557f62e78cea01bee320cd4e420270b5ea74000d11b0c9f74754ebdbfc544b05a2586114963390565b600054610100900460ff166115175760405162461bcd60e51b81526004016105009061317d565b6106d6611de7565b600054610100900460ff166115465760405162461bcd60e51b81526004016105009061317d565b6106d6611e14565b600054610100900460ff166115755760405162461bcd60e51b81526004016105009061317d565b61157e81611e47565b50565b600054610100900460ff166115a85760405162461bcd60e51b81526004016105009061317d565b610ab48282611e77565b816001600160a01b0316836001600160a01b031614156116265760405162461bcd60e51b815260206004820152602960248201527f455243313135353a2073657474696e6720617070726f76616c20737461747573604482015268103337b91039b2b63360b91b6064820152608401610500565b6001600160a01b03838116600081815260fe6020908152604080832094871680845294825291829020805460ff191686151590811790915591519182527f17307eab39ab6107e8899845ad3d59bd9653f200f220920489ca2b5937696c31910160405180910390a3505050565b60008061169f83611eb8565b90506108ec816116b36101208601866131c8565b8080601f016020809104026020016040519081016040528093929190818152602001838380828437600092019190915250611fca92505050565b8161171a5761170161013280546001019055565b6101325460008281526101336020526040902081905591505b61172484806131c8565b60008481526101366020526040902061173e929091612752565b5061175b3383600160405180602001604052806000815250611fe6565b611766826001612111565b60405133906001600160a01b0385169084907f8b71218a96aa03ec6471183a969f2c9c2730e8f91c3f2aecd51913aaf511c7ec90600090a4600081815261013560205260409020546117b9906001612169565b6000918252610135602052604090912055505050565b60006117e08260a001356002612175565b905060006117f68360a001358460800135612175565b905060006118128261180c60a0870135866121ba565b906121ba565b905061184d81610131600061182d6060890160408a016129a7565b6001600160a01b0316815260208101919091526040016000205490612169565b610131600061186260608801604089016129a7565b6001600160a01b03166001600160a01b03168152602001908152602001600020819055506118a282610131600087606001602081019061182d91906129a7565b61013160006118b760808801606089016129a7565b6001600160a01b039081168252602080830193909352604091820160009081209490945561012f541683526101319091529020546118f59084612169565b61012f546001600160a01b03166000908152610131602052604090205550505050565b611928818360a0013560c86121c6565b6001600160a01b039091166000908152610134602052604090205550565b6001600160a01b03841661196c5760405162461bcd60e51b8152600401610500906130ee565b33600061197885612200565b9050600061198585612200565b9050611995838989858589611a90565b600086815260fd602090815260408083206001600160a01b038c168452909152902054858110156119d85760405162461bcd60e51b815260040161050090613133565b600087815260fd602090815260408083206001600160a01b038d8116855292528083208985039055908a16825281208054889290611a1790849061322f565b909155505060408051888152602081018890526001600160a01b03808b16928c821692918816917fc3d58168c5ae7397731d063d5bbf3d657854427343f4c083240f7aacaa2d0f62910160405180910390a4611a77848a8a86868a611b64565b611a85848a8a8a8a8a612259565b505050505050505050565b60005b8351811015611b5b57611add848281518110611abf57634e487b7160e01b600052603260045260246000fd5b60200260200101516000908152610130602052604090205460ff1690565b15611b4b576001600160a01b0386161580611aff57506001600160a01b038516155b611b4b5760405162461bcd60e51b815260206004820152601b60248201527f536f756c626f756e642c204e6f6e2d5472616e7366657261626c6500000000006044820152606401610500565b611b548161340f565b9050611a93565b50505050505050565b60005b8351811015611b5b576001600160a01b038516611bdd57856001600160a01b0316848281518110611ba857634e487b7160e01b600052603260045260246000fd5b60200260200101517fbf6ee8d3b279c99757fe8e0b3019bb6249544494b14dba9b2ceed2585f9ba1a060405160405180910390a35b611be68161340f565b9050611b67565b6001600160a01b0384163b156114595760405163bc197c8160e01b81526001600160a01b0385169063bc197c8190611c319089908990889088908890600401612f08565b602060405180830381600087803b158015611c4b57600080fd5b505af1925050508015611c7b575060408051601f3d908101601f19168201909252611c7891810190612d2b565b60015b611d2857611c87613456565b806308c379a01415611cc15750611c9c61346d565b80611ca75750611cc3565b8060405162461bcd60e51b81526004016105009190613044565b505b60405162461bcd60e51b815260206004820152603460248201527f455243313135353a207472616e7366657220746f206e6f6e20455243313135356044820152732932b1b2b4bb32b91034b6b83632b6b2b73a32b960611b6064820152608401610500565b6001600160e01b0319811663bc197c8160e01b14611b5b5760405162461bcd60e51b8152600401610500906130a6565b60655460ff166106d65760405162461bcd60e51b815260206004820152601460248201527314185d5cd8589b194e881b9bdd081c185d5cd95960621b6044820152606401610500565b60655460ff16156106d65760405162461bcd60e51b815260206004820152601060248201526f14185d5cd8589b194e881c185d5cd95960821b6044820152606401610500565b600054610100900460ff16611e0e5760405162461bcd60e51b81526004016105009061317d565b60018055565b600054610100900460ff16611e3b5760405162461bcd60e51b81526004016105009061317d565b6065805460ff19169055565b600054610100900460ff16611e6e5760405162461bcd60e51b81526004016105009061317d565b61157e81612323565b600054610100900460ff16611e9e5760405162461bcd60e51b81526004016105009061317d565b815160209283012081519190920120609791909155609855565b600061057d7fda9136afd210b4b1575a5061ce480ca435269e85e978a546eead2a2b2f474b64611ee884806131c8565b604051611ef6929190612ecf565b6040518091039020846020016020810190611f1191906129a7565b611f2160608701604088016129a7565b611f3160808801606089016129a7565b608088013560a089013560c08a013560e08b0135611f576101208d016101008e01612cf5565b60408051602081019b909b528a01989098526001600160a01b0396871660608a015294861660808901529490921660a087015260c086015260e085015261010084019190915261012083015215156101408201526101600160405160208183030381529060405280519060200120612336565b6000806000611fd98585612384565b91509150610831816123ca565b6001600160a01b0384166120465760405162461bcd60e51b815260206004820152602160248201527f455243313135353a206d696e7420746f20746865207a65726f206164647265736044820152607360f81b6064820152608401610500565b33600061205285612200565b9050600061205f85612200565b905061207083600089858589611a90565b600086815260fd602090815260408083206001600160a01b038b168452909152812080548792906120a290849061322f565b909155505060408051878152602081018790526001600160a01b03808a1692600092918716917fc3d58168c5ae7397731d063d5bbf3d657854427343f4c083240f7aacaa2d0f62910160405180910390a461210283600089858589611b64565b611b5b83600089898989612259565b60008281526101306020908152604091829020805460ff1916841515908117909155915191825283917fe0abe9435049152fa612635eac4022235b6f5c156ecf799bdac41b11b9fa2211910160405180910390a25050565b60006108ec828461322f565b6000806121a36121876002600a6132a4565b612192906064613372565b61219d8660646125cd565b906125d9565b905060006121b182856125cd565b95945050505050565b60006108ec8284613391565b600061089d6121e06121d985600a6125d9565b8490612169565b6001600160a01b0386166000908152610134602052604090205490612169565b6040805160018082528183019092526060916000919060208083019080368337019050509050828160008151811061224857634e487b7160e01b600052603260045260246000fd5b602090810291909101015292915050565b6001600160a01b0384163b156114595760405163f23a6e6160e01b81526001600160a01b0385169063f23a6e619061229d9089908990889088908890600401612f66565b602060405180830381600087803b1580156122b757600080fd5b505af19250505080156122e7575060408051601f3d908101601f191682019092526122e491810190612d2b565b60015b6122f357611c87613456565b6001600160e01b0319811663f23a6e6160e01b14611b5b5760405162461bcd60e51b8152600401610500906130a6565b8051610ab49060ff9060208401906127d6565b600061057d6123436125e5565b8360405161190160f01b6020820152602281018390526042810182905260009060620160405160208183030381529060405280519060200120905092915050565b6000808251604114156123bb5760208301516040840151606085015160001a6123af87828585612665565b945094505050506123c3565b506000905060025b9250929050565b60008160048111156123ec57634e487b7160e01b600052602160045260246000fd5b14156123f75761157e565b600181600481111561241957634e487b7160e01b600052602160045260246000fd5b14156124675760405162461bcd60e51b815260206004820152601860248201527f45434453413a20696e76616c6964207369676e617475726500000000000000006044820152606401610500565b600281600481111561248957634e487b7160e01b600052602160045260246000fd5b14156124d75760405162461bcd60e51b815260206004820152601f60248201527f45434453413a20696e76616c6964207369676e6174757265206c656e677468006044820152606401610500565b60038160048111156124f957634e487b7160e01b600052602160045260246000fd5b14156125525760405162461bcd60e51b815260206004820152602260248201527f45434453413a20696e76616c6964207369676e6174757265202773272076616c604482015261756560f01b6064820152608401610500565b600481600481111561257457634e487b7160e01b600052602160045260246000fd5b141561157e5760405162461bcd60e51b815260206004820152602260248201527f45434453413a20696e76616c6964207369676e6174757265202776272076616c604482015261756560f01b6064820152608401610500565b60006108ec8284613372565b60006108ec8284613247565b60006126607f8b73c3c69bb8fe3d512ecc4cf759cc79239f7b179b0ffacaa9a75d522b39400f61261460975490565b6098546040805160208101859052908101839052606081018290524660808201523060a082015260009060c0016040516020818303038152906040528051906020012090509392505050565b905090565b6000807f7fffffffffffffffffffffffffffffff5d576e7357a4501ddfe92f46681b20a083111561269c5750600090506003612749565b8460ff16601b141580156126b457508460ff16601c14155b156126c55750600090506004612749565b6040805160008082526020820180845289905260ff881692820192909252606081018690526080810185905260019060a0016020604051602081039080840390855afa158015612719573d6000803e3d6000fd5b5050604051601f1901519150506001600160a01b03811661274257600060019250925050612749565b9150600090505b94509492505050565b82805461275e906133a8565b90600052602060002090601f01602090048101928261278057600085556127c6565b82601f106127995782800160ff198235161785556127c6565b828001600101855582156127c6579182015b828111156127c65782358255916020019190600101906127ab565b506127d292915061284a565b5090565b8280546127e2906133a8565b90600052602060002090601f01602090048101928261280457600085556127c6565b82601f1061281d57805160ff19168380011785556127c6565b828001600101855582156127c6579182015b828111156127c657825182559160200191906001019061282f565b5b808211156127d2576000815560010161284b565b80356001600160a01b038116811461058057600080fd5b600082601f830112612886578081fd5b813560206128938261320c565b6040516128a082826133e3565b8381528281019150858301600585901b870184018810156128bf578586fd5b855b858110156128dd578135845292840192908401906001016128c1565b5090979650505050505050565b8035801515811461058057600080fd5b600082601f83011261290a578081fd5b81356001600160401b0381111561292357612923613440565b60405161293a601f8301601f1916602001826133e3565b81815284602083860101111561294e578283fd5b816020850160208301379081016020019190915292915050565b60008083601f840112612979578182fd5b5081356001600160401b0381111561298f578182fd5b6020830191508360208285010111156123c357600080fd5b6000602082840312156129b8578081fd5b6108ec8261285f565b600080604083850312156129d3578081fd5b6129dc8361285f565b91506129ea6020840161285f565b90509250929050565b600080600080600060a08688031215612a0a578081fd5b612a138661285f565b9450612a216020870161285f565b935060408601356001600160401b0380821115612a3c578283fd5b612a4889838a01612876565b94506060880135915080821115612a5d578283fd5b612a6989838a01612876565b93506080880135915080821115612a7e578283fd5b50612a8b888289016128fa565b9150509295509295909350565b600080600080600060a08688031215612aaf578081fd5b612ab88661285f565b9450612ac66020870161285f565b9350604086013592506060860135915060808601356001600160401b03811115612aee578182fd5b612a8b888289016128fa565b60008060408385031215612b0c578182fd5b612b158361285f565b91506129ea602084016128ea565b600080600060608486031215612b37578283fd5b612b408461285f565b925060208401356001600160401b0380821115612b5b578384fd5b612b67878388016128fa565b93506040860135915080821115612b7c578283fd5b50612b89868287016128fa565b9150509250925092565b60008060408385031215612ba5578182fd5b612bae8361285f565b946020939093013593505050565b60008060208385031215612bce578182fd5b82356001600160401b0380821115612be4578384fd5b818501915085601f830112612bf7578384fd5b813581811115612c05578485fd5b8660208260051b8501011115612c19578485fd5b60209290920196919550909350505050565b60008060408385031215612c3d578182fd5b82356001600160401b0380821115612c53578384fd5b818501915085601f830112612c66578384fd5b81356020612c738261320c565b604051612c8082826133e3565b8381528281019150858301600585901b870184018b1015612c9f578889fd5b8896505b84871015612cc857612cb48161285f565b835260019690960195918301918301612ca3565b5096505086013592505080821115612cde578283fd5b50612ceb85828601612876565b9150509250929050565b600060208284031215612d06578081fd5b6108ec826128ea565b600060208284031215612d20578081fd5b81356108ec816134fe565b600060208284031215612d3c578081fd5b81516108ec816134fe565b600080600060408486031215612d5b578081fd5b83356001600160401b03811115612d70578182fd5b612d7c86828701612968565b9094509250612d8f90506020850161285f565b90509250925092565b60008060008060608587031215612dad578182fd5b84356001600160401b03811115612dc2578283fd5b612dce87828801612968565b9095509350612de190506020860161285f565b9150612def6040860161285f565b905092959194509250565b600060208284031215612e0b578081fd5b81356001600160401b03811115612e20578182fd5b820161014081850312156108ec578182fd5b600060208284031215612e43578081fd5b5035919050565b6000815180845260208085019450808401835b83811015612e7957815187529582019590820190600101612e5d565b509495945050505050565b60008151808452815b81811015612ea957602081850181015186830182015201612e8d565b81811115612eba5782602083870101525b50601f01601f19169290920160200192915050565b6000828483379101908152919050565b6000838583375060609190911b6bffffffffffffffffffffffff19169101908152601401919050565b6001600160a01b0386811682528516602082015260a060408201819052600090612f3490830186612e4a565b8281036060840152612f468186612e4a565b90508281036080840152612f5a8185612e84565b98975050505050505050565b6001600160a01b03868116825285166020820152604081018490526060810183905260a060808201819052600090612fa090830184612e84565b979650505050505050565b6000602080830181845280855180835260408601915060408160051b8701019250838701855b82811015612fff57603f19888603018452612fed858351612e84565b94509285019290850190600101612fd1565b5092979650505050505050565b6000602082526108ec6020830184612e4a565b6000604082526130326040830185612e4a565b82810360208401526121b18185612e4a565b6000602082526108ec6020830184612e84565b6020808252602f908201527f455243313135353a2063616c6c6572206973206e6f7420746f6b656e206f776e60408201526e195c881b9bdc88185c1c1c9bdd9959608a1b606082015260800190565b60208082526028908201527f455243313135353a204552433131353552656365697665722072656a656374656040820152676420746f6b656e7360c01b606082015260800190565b60208082526025908201527f455243313135353a207472616e7366657220746f20746865207a65726f206164604082015264647265737360d81b606082015260800190565b6020808252602a908201527f455243313135353a20696e73756666696369656e742062616c616e636520666f60408201526939103a3930b739b332b960b11b606082015260800190565b6020808252602b908201527f496e697469616c697a61626c653a20636f6e7472616374206973206e6f74206960408201526a6e697469616c697a696e6760a81b606082015260800190565b6000808335601e198436030181126131de578283fd5b8301803591506001600160401b038211156131f7578283fd5b6020019150368190038213156123c357600080fd5b60006001600160401b0382111561322557613225613440565b5060051b60200190565b600082198211156132425761324261342a565b500190565b60008261326257634e487b7160e01b81526012600452602481fd5b500490565b80825b60018086116132795750612749565b81870482111561328b5761328b61342a565b8086161561329857918102915b9490941c93800261326a565b60006108ec60001984846000826132bd575060016108ec565b816132ca575060006108ec565b81600181146132e057600281146132ea57613317565b60019150506108ec565b60ff8411156132fb576132fb61342a565b6001841b9150848211156133115761331161342a565b506108ec565b5060208310610133831016604e8410600b841016171561334a575081810a838111156133455761334561342a565b6108ec565b6133578484846001613267565b8086048211156133695761336961342a565b02949350505050565b600081600019048311821515161561338c5761338c61342a565b500290565b6000828210156133a3576133a361342a565b500390565b600181811c908216806133bc57607f821691505b602082108114156133dd57634e487b7160e01b600052602260045260246000fd5b50919050565b601f8201601f191681016001600160401b038111828210171561340857613408613440565b6040525050565b60006000198214156134235761342361342a565b5060010190565b634e487b7160e01b600052601160045260246000fd5b634e487b7160e01b600052604160045260246000fd5b600060033d11156108a757600481823e5160e01c90565b600060443d101561347d576108a7565b6040516003193d81016004833e81513d6001600160401b0381602484011181841117156134ae5750505050506108a7565b82850191508151818111156134c8575050505050506108a7565b843d87010160208285010111156134e4575050505050506108a7565b6134f3602082860101876133e3565b509094505050505090565b6001600160e01b03198116811461157e57600080fdfe68747470733a2f2f73746f726167652e676f6f676c65617069732e636f6d2f74687265642d70726f746f636f6c2e61707073706f742e636f6d2f736d6172742d7574696c732f7b69647d2e6a736f6ea264697066735822122024985c0475d21cd7743c15ba0be8174955c37e9eb4310606e24870cc43d3a30d64736f6c63430008030033",
  "linkReferences": {},
  "deployedLinkReferences": {}
}