{
  "_format": "hh-sol-artifact-1",
  "contractName": "ThredCore",
  "sourceName": "contracts/ThredCore/ThredCore.sol",
  "abi": [
    {
      "anonymous": false,
      "inputs": [
        {
          "indexed": true,
          "internalType": "address",
          "name": "account",
          "type": "address"
        },
        {
          "indexed": true,
          "internalType": "address",
          "name": "operator",
          "type": "address"
        },
        {
          "indexed": false,
          "internalType": "bool",
          "name": "approved",
          "type": "bool"
        }
      ],
      "name": "ApprovalForAll",
      "type": "event"
    },
    {
      "anonymous": false,
      "inputs": [
        {
          "indexed": false,
          "internalType": "uint8",
          "name": "version",
          "type": "uint8"
        }
      ],
      "name": "Initialized",
      "type": "event"
    },
    {
      "anonymous": false,
      "inputs": [
        {
          "indexed": true,
          "internalType": "uint256",
          "name": "tokenId",
          "type": "uint256"
        },
        {
          "indexed": true,
          "internalType": "address",
          "name": "signer",
          "type": "address"
        },
        {
          "indexed": true,
          "internalType": "address",
          "name": "user",
          "type": "address"
        }
      ],
      "name": "Install",
      "type": "event"
    },
    {
      "anonymous": false,
      "inputs": [
        {
          "indexed": false,
          "internalType": "address",
          "name": "account",
          "type": "address"
        }
      ],
      "name": "Paused",
      "type": "event"
    },
    {
      "anonymous": false,
      "inputs": [
        {
          "indexed": true,
          "internalType": "uint256",
          "name": "id",
          "type": "uint256"
        },
        {
          "indexed": false,
          "internalType": "bool",
          "name": "bounded",
          "type": "bool"
        }
      ],
      "name": "Soulbound",
      "type": "event"
    },
    {
      "anonymous": false,
      "inputs": [
        {
          "indexed": true,
          "internalType": "address",
          "name": "operator",
          "type": "address"
        },
        {
          "indexed": true,
          "internalType": "address",
          "name": "from",
          "type": "address"
        },
        {
          "indexed": true,
          "internalType": "address",
          "name": "to",
          "type": "address"
        },
        {
          "indexed": false,
          "internalType": "uint256[]",
          "name": "ids",
          "type": "uint256[]"
        },
        {
          "indexed": false,
          "internalType": "uint256[]",
          "name": "values",
          "type": "uint256[]"
        }
      ],
      "name": "TransferBatch",
      "type": "event"
    },
    {
      "anonymous": false,
      "inputs": [
        {
          "indexed": true,
          "internalType": "address",
          "name": "operator",
          "type": "address"
        },
        {
          "indexed": true,
          "internalType": "address",
          "name": "from",
          "type": "address"
        },
        {
          "indexed": true,
          "internalType": "address",
          "name": "to",
          "type": "address"
        },
        {
          "indexed": false,
          "internalType": "uint256",
          "name": "id",
          "type": "uint256"
        },
        {
          "indexed": false,
          "internalType": "uint256",
          "name": "value",
          "type": "uint256"
        }
      ],
      "name": "TransferSingle",
      "type": "event"
    },
    {
      "anonymous": false,
      "inputs": [
        {
          "indexed": false,
          "internalType": "string",
          "name": "value",
          "type": "string"
        },
        {
          "indexed": true,
          "internalType": "uint256",
          "name": "id",
          "type": "uint256"
        }
      ],
      "name": "URI",
      "type": "event"
    },
    {
      "anonymous": false,
      "inputs": [
        {
          "indexed": true,
          "internalType": "uint256",
          "name": "tokenId",
          "type": "uint256"
        },
        {
          "indexed": true,
          "internalType": "address",
          "name": "user",
          "type": "address"
        }
      ],
      "name": "Uninstall",
      "type": "event"
    },
    {
      "anonymous": false,
      "inputs": [
        {
          "indexed": false,
          "internalType": "address",
          "name": "account",
          "type": "address"
        }
      ],
      "name": "Unpaused",
      "type": "event"
    },
    {
      "inputs": [
        {
          "internalType": "address",
          "name": "account",
          "type": "address"
        },
        {
          "internalType": "uint256",
          "name": "id",
          "type": "uint256"
        }
      ],
      "name": "balanceOf",
      "outputs": [
        {
          "internalType": "uint256",
          "name": "",
          "type": "uint256"
        }
      ],
      "stateMutability": "view",
      "type": "function"
    },
    {
      "inputs": [
        {
          "internalType": "address[]",
          "name": "accounts",
          "type": "address[]"
        },
        {
          "internalType": "uint256[]",
          "name": "ids",
          "type": "uint256[]"
        }
      ],
      "name": "balanceOfBatch",
      "outputs": [
        {
          "internalType": "uint256[]",
          "name": "",
          "type": "uint256[]"
        }
      ],
      "stateMutability": "view",
      "type": "function"
    },
    {
      "inputs": [
        {
          "components": [
            {
              "internalType": "string",
              "name": "id",
              "type": "string"
            },
            {
              "internalType": "address",
              "name": "signer",
              "type": "address"
            },
            {
              "internalType": "address",
              "name": "payAddress",
              "type": "address"
            },
            {
              "internalType": "address",
              "name": "feeAddress",
              "type": "address"
            },
            {
              "internalType": "uint256",
              "name": "fee",
              "type": "uint256"
            },
            {
              "internalType": "uint256",
              "name": "price",
              "type": "uint256"
            },
            {
              "internalType": "uint256",
              "name": "chainId",
              "type": "uint256"
            },
            {
              "internalType": "bytes",
              "name": "signature",
              "type": "bytes"
            }
          ],
          "internalType": "struct ThredCore.SmartUtil",
          "name": "util",
          "type": "tuple"
        }
      ],
      "name": "buySmartUtil",
      "outputs": [],
      "stateMutability": "payable",
      "type": "function"
    },
    {
      "inputs": [],
      "name": "deployerAddress",
      "outputs": [
        {
          "internalType": "address",
          "name": "",
          "type": "address"
        }
      ],
      "stateMutability": "view",
      "type": "function"
    },
    {
      "inputs": [
        {
          "internalType": "string",
          "name": "id",
          "type": "string"
        },
        {
          "internalType": "address",
          "name": "signer",
          "type": "address"
        }
      ],
      "name": "fetchDownloads",
      "outputs": [
        {
          "internalType": "uint256",
          "name": "",
          "type": "uint256"
        }
      ],
      "stateMutability": "view",
      "type": "function"
    },
    {
      "inputs": [
        {
          "internalType": "address[]",
          "name": "payoutAddresses",
          "type": "address[]"
        }
      ],
      "name": "fetchPayouts",
      "outputs": [
        {
          "internalType": "uint256[]",
          "name": "",
          "type": "uint256[]"
        }
      ],
      "stateMutability": "view",
      "type": "function"
    },
    {
      "inputs": [
        {
          "internalType": "address",
          "name": "user",
          "type": "address"
        }
      ],
      "name": "fetchRep",
      "outputs": [
        {
          "internalType": "uint256",
          "name": "",
          "type": "uint256"
        }
      ],
      "stateMutability": "view",
      "type": "function"
    },
    {
      "inputs": [
        {
          "internalType": "uint256",
          "name": "tokenId",
          "type": "uint256"
        }
      ],
      "name": "getAppIdForToken",
      "outputs": [
        {
          "internalType": "string",
          "name": "",
          "type": "string"
        }
      ],
      "stateMutability": "view",
      "type": "function"
    },
    {
      "inputs": [],
      "name": "getChainID",
      "outputs": [
        {
          "internalType": "uint256",
          "name": "",
          "type": "uint256"
        }
      ],
      "stateMutability": "view",
      "type": "function"
    },
    {
      "inputs": [
        {
          "internalType": "address",
          "name": "owner",
          "type": "address"
        },
        {
          "internalType": "string",
          "name": "domain",
          "type": "string"
        },
        {
          "internalType": "string",
          "name": "version",
          "type": "string"
        }
      ],
      "name": "initialize",
      "outputs": [],
      "stateMutability": "nonpayable",
      "type": "function"
    },
    {
      "inputs": [
        {
          "internalType": "address",
          "name": "account",
          "type": "address"
        },
        {
          "internalType": "address",
          "name": "operator",
          "type": "address"
        }
      ],
      "name": "isApprovedForAll",
      "outputs": [
        {
          "internalType": "bool",
          "name": "",
          "type": "bool"
        }
      ],
      "stateMutability": "view",
      "type": "function"
    },
    {
      "inputs": [
        {
          "internalType": "uint256",
          "name": "id",
          "type": "uint256"
        }
      ],
      "name": "isSoulbound",
      "outputs": [
        {
          "internalType": "bool",
          "name": "",
          "type": "bool"
        }
      ],
      "stateMutability": "view",
      "type": "function"
    },
    {
      "inputs": [],
      "name": "pause",
      "outputs": [],
      "stateMutability": "nonpayable",
      "type": "function"
    },
    {
      "inputs": [],
      "name": "paused",
      "outputs": [
        {
          "internalType": "bool",
          "name": "",
          "type": "bool"
        }
      ],
      "stateMutability": "view",
      "type": "function"
    },
    {
      "inputs": [
        {
          "internalType": "address",
          "name": "from",
          "type": "address"
        },
        {
          "internalType": "address",
          "name": "to",
          "type": "address"
        },
        {
          "internalType": "uint256[]",
          "name": "ids",
          "type": "uint256[]"
        },
        {
          "internalType": "uint256[]",
          "name": "amounts",
          "type": "uint256[]"
        },
        {
          "internalType": "bytes",
          "name": "data",
          "type": "bytes"
        }
      ],
      "name": "safeBatchTransferFrom",
      "outputs": [],
      "stateMutability": "nonpayable",
      "type": "function"
    },
    {
      "inputs": [
        {
          "internalType": "address",
          "name": "from",
          "type": "address"
        },
        {
          "internalType": "address",
          "name": "to",
          "type": "address"
        },
        {
          "internalType": "uint256",
          "name": "id",
          "type": "uint256"
        },
        {
          "internalType": "uint256",
          "name": "amount",
          "type": "uint256"
        },
        {
          "internalType": "bytes",
          "name": "data",
          "type": "bytes"
        }
      ],
      "name": "safeTransferFrom",
      "outputs": [],
      "stateMutability": "nonpayable",
      "type": "function"
    },
    {
      "inputs": [
        {
          "internalType": "address",
          "name": "operator",
          "type": "address"
        },
        {
          "internalType": "bool",
          "name": "approved",
          "type": "bool"
        }
      ],
      "name": "setApprovalForAll",
      "outputs": [],
      "stateMutability": "nonpayable",
      "type": "function"
    },
    {
      "inputs": [
        {
          "internalType": "bytes4",
          "name": "interfaceId",
          "type": "bytes4"
        }
      ],
      "name": "supportsInterface",
      "outputs": [
        {
          "internalType": "bool",
          "name": "",
          "type": "bool"
        }
      ],
      "stateMutability": "view",
      "type": "function"
    },
    {
      "inputs": [],
      "name": "unpause",
      "outputs": [],
      "stateMutability": "nonpayable",
      "type": "function"
    },
    {
      "inputs": [
        {
          "internalType": "uint256",
          "name": "",
          "type": "uint256"
        }
      ],
      "name": "uri",
      "outputs": [
        {
          "internalType": "string",
          "name": "",
          "type": "string"
        }
      ],
      "stateMutability": "view",
      "type": "function"
    },
    {
      "inputs": [],
      "name": "withDrawFunds",
      "outputs": [],
      "stateMutability": "nonpayable",
      "type": "function"
    }
  ],
  "bytecode": "0x608060405234801561001057600080fd5b50613175806100206000396000f3fe6080604052600436106101295760003560e01c8063608595b5116100ab578063b78da3861161006f578063b78da38614610328578063bbedeb1f1461033d578063d7dc43a514610374578063e985e9c514610394578063efdee94f146103dd578063f242432a1461041657610129565b8063608595b5146102825780638456cb59146102a257806390657147146102b7578063911ec470146102d7578063a22cb4651461030857610129565b80633f4ba83a116100f25780633f4ba83a1461020057806344d1bafd146102155780634e1273f414610228578063564b81ef146102555780635c975abb1461026a57610129565b8062fdd58e1461012e57806301ffc9a7146101615780630e89341c146101915780632eb2c2d6146101be57806338cfbce6146101e0575b600080fd5b34801561013a57600080fd5b5061014e610149366004612822565b610436565b6040519081526020015b60405180910390f35b34801561016d57600080fd5b5061018161017c366004612984565b6104ce565b6040519015158152602001610158565b34801561019d57600080fd5b506101b16101ac366004612a6f565b610522565b6040516101589190612c20565b3480156101ca57600080fd5b506101de6101d9366004612671565b6105b6565b005b3480156101ec57600080fd5b506101b16101fb366004612a6f565b610602565b34801561020c57600080fd5b506101de610620565b6101de610223366004612a37565b610675565b34801561023457600080fd5b506102486102433660046128ba565b610884565b6040516101589190612be8565b34801561026157600080fd5b5061014e6109e5565b34801561027657600080fd5b5060655460ff16610181565b34801561028e57600080fd5b5061014e61029d3660046129bc565b6109ea565b3480156102ae57600080fd5b506101de610a33565b3480156102c357600080fd5b506101de6102d23660046127b2565b610a86565b3480156102e357600080fd5b506101816102f2366004612a6f565b6000908152610130602052604090205460ff1690565b34801561031457600080fd5b506101de610323366004612778565b610be9565b34801561033457600080fd5b506101de610bf8565b34801561034957600080fd5b5061014e610358366004612625565b6001600160a01b03166000908152610134602052604090205490565b34801561038057600080fd5b5061024861038f36600461284b565b610dac565b3480156103a057600080fd5b506101816103af36600461263f565b6001600160a01b03918216600090815260fe6020908152604080832093909416825291909152205460ff1690565b3480156103e957600080fd5b5061012f546103fe906001600160a01b031681565b6040516001600160a01b039091168152602001610158565b34801561042257600080fd5b506101de610431366004612716565b610ea3565b60006001600160a01b0383166104a65760405162461bcd60e51b815260206004820152602a60248201527f455243313135353a2061646472657373207a65726f206973206e6f742061207660448201526930b634b21037bbb732b960b11b60648201526084015b60405180910390fd5b50600090815260fd602090815260408083206001600160a01b03949094168352929052205490565b60006001600160e01b03198216636cdb3d1360e11b14806104ff57506001600160e01b031982166303a24d0760e21b145b8061051a57506301ffc9a760e01b6001600160e01b03198316145b90505b919050565b606060ff805461053190612f84565b80601f016020809104026020016040519081016040528092919081815260200182805461055d90612f84565b80156105aa5780601f1061057f576101008083540402835291602001916105aa565b820191906000526020600020905b81548152906001019060200180831161058d57829003601f168201915b50505050509050919050565b6001600160a01b0385163314806105d257506105d285336103af565b6105ee5760405162461bcd60e51b815260040161049d90612c33565b6105fb8585858585610ee8565b5050505050565b60008181526101366020526040902080546060919061053190612f84565b61012f546001600160a01b0316331461066b5760405162461bcd60e51b815260206004820152600d60248201526c556e617574686f72697a65642160981b604482015260640161049d565b610673611100565b565b600260015414156106c85760405162461bcd60e51b815260206004820152601f60248201527f5265656e7472616e637947756172643a207265656e7472616e742063616c6c00604482015260640161049d565b600260015560655460ff16156107155760405162461bcd60e51b8152602060048201526012602482015271151c985b9cd858dd1a5b99c814185d5cd95960721b604482015260640161049d565b600061072082611152565b90506107326040830160208401612625565b6001600160a01b0316816001600160a01b0316146107a95760405162461bcd60e51b815260206004820152602e60248201527f556e617574686f72697a6564205369676e65722e204170702063616e206e6f7460448201526d1031329034b739ba30b63632b21760911b606482015260840161049d565b8160a0013534146107f15760405162461bcd60e51b8152602060048201526012602482015271496e73756666696369656e742046756e647360701b604482015260640161049d565b6107f96109e5565b8260c001351461085f5760405162461bcd60e51b815260206004820152602b60248201527f54686973206974656d206973206e6f7420636f6d70617469626c65207769746860448201526a103a3434b99031b430b4b760a91b606482015260840161049d565b61086982826111ab565b610872826112d7565b61087c8282611420565b505060018055565b606081518351146108e95760405162461bcd60e51b815260206004820152602960248201527f455243313135353a206163636f756e747320616e6420696473206c656e677468604482015268040dad2e6dac2e8c6d60bb1b606482015260840161049d565b600083516001600160401b0381111561091257634e487b7160e01b600052604160045260246000fd5b60405190808252806020026020018201604052801561093b578160200160208202803683370190505b50905060005b84518110156109dd576109a285828151811061096d57634e487b7160e01b600052603260045260246000fd5b602002602001015185838151811061099557634e487b7160e01b600052603260045260246000fd5b6020026020010151610436565b8282815181106109c257634e487b7160e01b600052603260045260246000fd5b60209081029190910101526109d681612feb565b9050610941565b509392505050565b465b90565b600080848484604051602001610a0293929190612b1c565b60408051601f19818403018152918152815160209283012060009081526101359092529020549150505b9392505050565b61012f546001600160a01b03163314610a7e5760405162461bcd60e51b815260206004820152600d60248201526c556e617574686f72697a65642160981b604482015260640161049d565b61067361144e565b600054610100900460ff1615808015610aa65750600054600160ff909116105b80610ac05750303b158015610ac0575060005460ff166001145b610b235760405162461bcd60e51b815260206004820152602e60248201527f496e697469616c697a61626c653a20636f6e747261637420697320616c72656160448201526d191e481a5b9a5d1a585b1a5e995960921b606482015260840161049d565b6000805460ff191660011790558015610b46576000805461ff0019166101001790555b610b4e61148b565b610b566114ba565b610b776040518060800160405280604f81526020016130f1604f91396114e9565b610b81838361151c565b61012f80546001600160a01b0319166001600160a01b0386161790558015610be3576000805461ff0019169055604051600181527f7f26b83ff96e1f2b6a682f133852f6798a09c465da95921460cefb38474024989060200160405180910390a15b50505050565b610bf433838361154d565b5050565b60026001541415610c4b5760405162461bcd60e51b815260206004820152601f60248201527f5265656e7472616e637947756172643a207265656e7472616e742063616c6c00604482015260640161049d565b600260015560655460ff161580610c6d575061012f546001600160a01b031633145b610cae5760405162461bcd60e51b8152602060048201526012602482015271151c985b9cd858dd1a5b99c814185d5cd95960721b604482015260640161049d565b336000908152610131602052604090205480610d035760405162461bcd60e51b81526020600482015260146024820152732737ba3434b733903a37903bb4ba34323930bb9760611b604482015260640161049d565b604051600090339083908381818185875af1925050503d8060008114610d45576040519150601f19603f3d011682016040523d82523d6000602084013e610d4a565b606091505b5050905080610d935760405162461bcd60e51b815260206004820152601560248201527429b7b6b2ba3434b733903bb2b73a103bb937b7339760591b604482015260640161049d565b5050336000908152610131602052604081205560018055565b60606000826001600160401b03811115610dd657634e487b7160e01b600052604160045260246000fd5b604051908082528060200260200182016040528015610dff578160200160208202803683370190505b50905060005b838110156109dd576101316000868684818110610e3257634e487b7160e01b600052603260045260246000fd5b9050602002016020810190610e479190612625565b6001600160a01b03166001600160a01b0316815260200190815260200160002054828281518110610e8857634e487b7160e01b600052603260045260246000fd5b6020908102919091010152610e9c81612feb565b9050610e05565b6001600160a01b038516331480610ebf5750610ebf85336103af565b610edb5760405162461bcd60e51b815260040161049d90612c33565b6105fb858585858561162e565b8151835114610f4a5760405162461bcd60e51b815260206004820152602860248201527f455243313135353a2069647320616e6420616d6f756e7473206c656e677468206044820152670dad2e6dac2e8c6d60c31b606482015260840161049d565b6001600160a01b038416610f705760405162461bcd60e51b815260040161049d90612cca565b33610f7f818787878787611778565b60005b8451811015611084576000858281518110610fad57634e487b7160e01b600052603260045260246000fd5b602002602001015190506000858381518110610fd957634e487b7160e01b600052603260045260246000fd5b602090810291909101810151600084815260fd835260408082206001600160a01b038e16835290935291909120549091508181101561102a5760405162461bcd60e51b815260040161049d90612d0f565b600083815260fd602090815260408083206001600160a01b038e8116855292528083208585039055908b16825281208054849290611069908490612e0b565b925050819055505050508061107d90612feb565b9050610f82565b50846001600160a01b0316866001600160a01b0316826001600160a01b03167f4a39dc06d4c0dbc64b70af90fd698a233a518aa5d07e595d983b8c0526c8f7fb87876040516110d4929190612bfb565b60405180910390a46110ea81878787878761184c565b6110f88187878787876118d5565b505050505050565b611108611a40565b6065805460ff191690557f5db9ee0a495bf2e6ff9c91a7834c1ba4fdd244a5e8aa4e537bd38aeae4b073aa335b6040516001600160a01b03909116815260200160405180910390a1565b60008061115e83611a89565b9050610a2c8161117160e0860186612da4565b8080601f016020809104026020016040519081016040528093929190818152602001838380828437600092019190915250611b7892505050565b60006111b78380612da4565b836040516020016111ca93929190612b1c565b60408051601f19818403018152918152815160209283012060008181526101339093529120549091508061121f5761120761013280546001019055565b50610132546000828152610133602052604090208190555b6112298480612da4565b60008381526101366020526040902061124392909161241f565b506112603382600160405180602001604052806000815250611b94565b61126b816001611cbf565b60405133906001600160a01b0385169083907f8b71218a96aa03ec6471183a969f2c9c2730e8f91c3f2aecd51913aaf511c7ec90600090a4600082815261013560205260409020546112be906001611d17565b6000928352610135602052604090922091909155505050565b60006112e88260a001356002611d23565b905060006112fe8360a001358460800135611d23565b9050600061131a8261131460a087013586611d68565b90611d68565b90506113558161013160006113356060890160408a01612625565b6001600160a01b0316815260208101919091526040016000205490611d17565b610131600061136a6060880160408901612625565b6001600160a01b03166001600160a01b03168152602001908152602001600020819055506113aa8261013160008760600160208101906113359190612625565b61013160006113bf6080880160608901612625565b6001600160a01b039081168252602080830193909352604091820160009081209490945561012f541683526101319091529020546113fd9084611d17565b61012f546001600160a01b03166000908152610131602052604090205550505050565b611430818360a0013560c8611d74565b6001600160a01b039091166000908152610134602052604090205550565b611456611db6565b6065805460ff191660011790557f62e78cea01bee320cd4e420270b5ea74000d11b0c9f74754ebdbfc544b05a2586111353390565b600054610100900460ff166114b25760405162461bcd60e51b815260040161049d90612d59565b610673611dfc565b600054610100900460ff166114e15760405162461bcd60e51b815260040161049d90612d59565b610673611e29565b600054610100900460ff166115105760405162461bcd60e51b815260040161049d90612d59565b61151981611e5c565b50565b600054610100900460ff166115435760405162461bcd60e51b815260040161049d90612d59565b610bf48282611e8c565b816001600160a01b0316836001600160a01b031614156115c15760405162461bcd60e51b815260206004820152602960248201527f455243313135353a2073657474696e6720617070726f76616c20737461747573604482015268103337b91039b2b63360b91b606482015260840161049d565b6001600160a01b03838116600081815260fe6020908152604080832094871680845294825291829020805460ff191686151590811790915591519182527f17307eab39ab6107e8899845ad3d59bd9653f200f220920489ca2b5937696c31910160405180910390a3505050565b6001600160a01b0384166116545760405162461bcd60e51b815260040161049d90612cca565b33600061166085611ecd565b9050600061166d85611ecd565b905061167d838989858589611778565b600086815260fd602090815260408083206001600160a01b038c168452909152902054858110156116c05760405162461bcd60e51b815260040161049d90612d0f565b600087815260fd602090815260408083206001600160a01b038d8116855292528083208985039055908a168252812080548892906116ff908490612e0b565b909155505060408051888152602081018890526001600160a01b03808b16928c821692918816917fc3d58168c5ae7397731d063d5bbf3d657854427343f4c083240f7aacaa2d0f62910160405180910390a461175f848a8a86868a61184c565b61176d848a8a8a8a8a611f26565b505050505050505050565b60005b8351811015611843576117c58482815181106117a757634e487b7160e01b600052603260045260246000fd5b60200260200101516000908152610130602052604090205460ff1690565b15611833576001600160a01b03861615806117e757506001600160a01b038516155b6118335760405162461bcd60e51b815260206004820152601b60248201527f536f756c626f756e642c204e6f6e2d5472616e7366657261626c650000000000604482015260640161049d565b61183c81612feb565b905061177b565b50505050505050565b60005b8351811015611843576001600160a01b0385166118c557856001600160a01b031684828151811061189057634e487b7160e01b600052603260045260246000fd5b60200260200101517fbf6ee8d3b279c99757fe8e0b3019bb6249544494b14dba9b2ceed2585f9ba1a060405160405180910390a35b6118ce81612feb565b905061184f565b6001600160a01b0384163b156110f85760405163bc197c8160e01b81526001600160a01b0385169063bc197c81906119199089908990889088908890600401612b45565b602060405180830381600087803b15801561193357600080fd5b505af1925050508015611963575060408051601f3d908101601f19168201909252611960918101906129a0565b60015b611a105761196f613032565b806308c379a014156119a95750611984613049565b8061198f57506119ab565b8060405162461bcd60e51b815260040161049d9190612c20565b505b60405162461bcd60e51b815260206004820152603460248201527f455243313135353a207472616e7366657220746f206e6f6e20455243313135356044820152732932b1b2b4bb32b91034b6b83632b6b2b73a32b960611b606482015260840161049d565b6001600160e01b0319811663bc197c8160e01b146118435760405162461bcd60e51b815260040161049d90612c82565b60655460ff166106735760405162461bcd60e51b815260206004820152601460248201527314185d5cd8589b194e881b9bdd081c185d5cd95960621b604482015260640161049d565b600061051a7ffa16669b73801ce1f3f172137212f474d6fb5939e9b7e302dd6be596f25568b2611ab98480612da4565b604051611ac7929190612b0c565b6040518091039020846020016020810190611ae29190612625565b611af26060870160408801612625565b611b026080880160608901612625565b6040805160208101969096528501939093526001600160a01b0391821660608501528116608084810191909152911660a0838101919091529085013560c0838101919091529085013560e08301528401356101008201526101200160405160208183030381529060405280519060200120611ff0565b6000806000611b87858561203e565b915091506109dd81612084565b6001600160a01b038416611bf45760405162461bcd60e51b815260206004820152602160248201527f455243313135353a206d696e7420746f20746865207a65726f206164647265736044820152607360f81b606482015260840161049d565b336000611c0085611ecd565b90506000611c0d85611ecd565b9050611c1e83600089858589611778565b600086815260fd602090815260408083206001600160a01b038b16845290915281208054879290611c50908490612e0b565b909155505060408051878152602081018790526001600160a01b03808a1692600092918716917fc3d58168c5ae7397731d063d5bbf3d657854427343f4c083240f7aacaa2d0f62910160405180910390a4611cb08360008985858961184c565b61184383600089898989611f26565b60008281526101306020908152604091829020805460ff1916841515908117909155915191825283917fe0abe9435049152fa612635eac4022235b6f5c156ecf799bdac41b11b9fa2211910160405180910390a25050565b6000610a2c8284612e0b565b600080611d51611d356002600a612e80565b611d40906064612f4e565b611d4b866064612287565b90612293565b90506000611d5f8285612287565b95945050505050565b6000610a2c8284612f6d565b6000611dae611d8e611d8785600a612293565b8490611d17565b6001600160a01b0386166000908152610134602052604090205490611d17565b949350505050565b60655460ff16156106735760405162461bcd60e51b815260206004820152601060248201526f14185d5cd8589b194e881c185d5cd95960821b604482015260640161049d565b600054610100900460ff16611e235760405162461bcd60e51b815260040161049d90612d59565b60018055565b600054610100900460ff16611e505760405162461bcd60e51b815260040161049d90612d59565b6065805460ff19169055565b600054610100900460ff16611e835760405162461bcd60e51b815260040161049d90612d59565b6115198161229f565b600054610100900460ff16611eb35760405162461bcd60e51b815260040161049d90612d59565b815160209283012081519190920120609791909155609855565b60408051600180825281830190925260609160009190602080830190803683370190505090508281600081518110611f1557634e487b7160e01b600052603260045260246000fd5b602090810291909101015292915050565b6001600160a01b0384163b156110f85760405163f23a6e6160e01b81526001600160a01b0385169063f23a6e6190611f6a9089908990889088908890600401612ba3565b602060405180830381600087803b158015611f8457600080fd5b505af1925050508015611fb4575060408051601f3d908101601f19168201909252611fb1918101906129a0565b60015b611fc05761196f613032565b6001600160e01b0319811663f23a6e6160e01b146118435760405162461bcd60e51b815260040161049d90612c82565b600061051a611ffd6122b2565b8360405161190160f01b6020820152602281018390526042810182905260009060620160405160208183030381529060405280519060200120905092915050565b6000808251604114156120755760208301516040840151606085015160001a61206987828585612332565b9450945050505061207d565b506000905060025b9250929050565b60008160048111156120a657634e487b7160e01b600052602160045260246000fd5b14156120b157611519565b60018160048111156120d357634e487b7160e01b600052602160045260246000fd5b14156121215760405162461bcd60e51b815260206004820152601860248201527f45434453413a20696e76616c6964207369676e61747572650000000000000000604482015260640161049d565b600281600481111561214357634e487b7160e01b600052602160045260246000fd5b14156121915760405162461bcd60e51b815260206004820152601f60248201527f45434453413a20696e76616c6964207369676e6174757265206c656e67746800604482015260640161049d565b60038160048111156121b357634e487b7160e01b600052602160045260246000fd5b141561220c5760405162461bcd60e51b815260206004820152602260248201527f45434453413a20696e76616c6964207369676e6174757265202773272076616c604482015261756560f01b606482015260840161049d565b600481600481111561222e57634e487b7160e01b600052602160045260246000fd5b14156115195760405162461bcd60e51b815260206004820152602260248201527f45434453413a20696e76616c6964207369676e6174757265202776272076616c604482015261756560f01b606482015260840161049d565b6000610a2c8284612f4e565b6000610a2c8284612e23565b8051610bf49060ff9060208401906124a3565b600061232d7f8b73c3c69bb8fe3d512ecc4cf759cc79239f7b179b0ffacaa9a75d522b39400f6122e160975490565b6098546040805160208101859052908101839052606081018290524660808201523060a082015260009060c0016040516020818303038152906040528051906020012090509392505050565b905090565b6000807f7fffffffffffffffffffffffffffffff5d576e7357a4501ddfe92f46681b20a08311156123695750600090506003612416565b8460ff16601b1415801561238157508460ff16601c14155b156123925750600090506004612416565b6040805160008082526020820180845289905260ff881692820192909252606081018690526080810185905260019060a0016020604051602081039080840390855afa1580156123e6573d6000803e3d6000fd5b5050604051601f1901519150506001600160a01b03811661240f57600060019250925050612416565b9150600090505b94509492505050565b82805461242b90612f84565b90600052602060002090601f01602090048101928261244d5760008555612493565b82601f106124665782800160ff19823516178555612493565b82800160010185558215612493579182015b82811115612493578235825591602001919060010190612478565b5061249f929150612517565b5090565b8280546124af90612f84565b90600052602060002090601f0160209004810192826124d15760008555612493565b82601f106124ea57805160ff1916838001178555612493565b82800160010185558215612493579182015b828111156124935782518255916020019190600101906124fc565b5b8082111561249f5760008155600101612518565b80356001600160a01b038116811461051d57600080fd5b600082601f830112612553578081fd5b8135602061256082612de8565b60405161256d8282612fbf565b8381528281019150858301600585901b8701840188101561258c578586fd5b855b858110156125aa5781358452928401929084019060010161258e565b5090979650505050505050565b600082601f8301126125c7578081fd5b81356001600160401b038111156125e0576125e061301c565b6040516125f7601f8301601f191660200182612fbf565b81815284602083860101111561260b578283fd5b816020850160208301379081016020019190915292915050565b600060208284031215612636578081fd5b610a2c8261252c565b60008060408385031215612651578081fd5b61265a8361252c565b91506126686020840161252c565b90509250929050565b600080600080600060a08688031215612688578081fd5b6126918661252c565b945061269f6020870161252c565b935060408601356001600160401b03808211156126ba578283fd5b6126c689838a01612543565b945060608801359150808211156126db578283fd5b6126e789838a01612543565b935060808801359150808211156126fc578283fd5b50612709888289016125b7565b9150509295509295909350565b600080600080600060a0868803121561272d578081fd5b6127368661252c565b94506127446020870161252c565b9350604086013592506060860135915060808601356001600160401b0381111561276c578182fd5b612709888289016125b7565b6000806040838503121561278a578182fd5b6127938361252c565b9150602083013580151581146127a7578182fd5b809150509250929050565b6000806000606084860312156127c6578283fd5b6127cf8461252c565b925060208401356001600160401b03808211156127ea578384fd5b6127f6878388016125b7565b9350604086013591508082111561280b578283fd5b50612818868287016125b7565b9150509250925092565b60008060408385031215612834578182fd5b61283d8361252c565b946020939093013593505050565b6000806020838503121561285d578182fd5b82356001600160401b0380821115612873578384fd5b818501915085601f830112612886578384fd5b813581811115612894578485fd5b8660208260051b85010111156128a8578485fd5b60209290920196919550909350505050565b600080604083850312156128cc578182fd5b82356001600160401b03808211156128e2578384fd5b818501915085601f8301126128f5578384fd5b8135602061290282612de8565b60405161290f8282612fbf565b8381528281019150858301600585901b870184018b101561292e578889fd5b8896505b84871015612957576129438161252c565b835260019690960195918301918301612932565b509650508601359250508082111561296d578283fd5b5061297a85828601612543565b9150509250929050565b600060208284031215612995578081fd5b8135610a2c816130da565b6000602082840312156129b1578081fd5b8151610a2c816130da565b6000806000604084860312156129d0578081fd5b83356001600160401b03808211156129e6578283fd5b818601915086601f8301126129f9578283fd5b813581811115612a07578384fd5b876020828501011115612a18578384fd5b602092830195509350612a2e918601905061252c565b90509250925092565b600060208284031215612a48578081fd5b81356001600160401b03811115612a5d578182fd5b82016101008185031215610a2c578182fd5b600060208284031215612a80578081fd5b5035919050565b6000815180845260208085019450808401835b83811015612ab657815187529582019590820190600101612a9a565b509495945050505050565b60008151808452815b81811015612ae657602081850181015186830182015201612aca565b81811115612af75782602083870101525b50601f01601f19169290920160200192915050565b6000828483379101908152919050565b6000838583375060609190911b6bffffffffffffffffffffffff19169101908152601401919050565b6001600160a01b0386811682528516602082015260a060408201819052600090612b7190830186612a87565b8281036060840152612b838186612a87565b90508281036080840152612b978185612ac1565b98975050505050505050565b6001600160a01b03868116825285166020820152604081018490526060810183905260a060808201819052600090612bdd90830184612ac1565b979650505050505050565b600060208252610a2c6020830184612a87565b600060408252612c0e6040830185612a87565b8281036020840152611d5f8185612a87565b600060208252610a2c6020830184612ac1565b6020808252602f908201527f455243313135353a2063616c6c6572206973206e6f7420746f6b656e206f776e60408201526e195c881b9bdc88185c1c1c9bdd9959608a1b606082015260800190565b60208082526028908201527f455243313135353a204552433131353552656365697665722072656a656374656040820152676420746f6b656e7360c01b606082015260800190565b60208082526025908201527f455243313135353a207472616e7366657220746f20746865207a65726f206164604082015264647265737360d81b606082015260800190565b6020808252602a908201527f455243313135353a20696e73756666696369656e742062616c616e636520666f60408201526939103a3930b739b332b960b11b606082015260800190565b6020808252602b908201527f496e697469616c697a61626c653a20636f6e7472616374206973206e6f74206960408201526a6e697469616c697a696e6760a81b606082015260800190565b6000808335601e19843603018112612dba578283fd5b8301803591506001600160401b03821115612dd3578283fd5b60200191503681900382131561207d57600080fd5b60006001600160401b03821115612e0157612e0161301c565b5060051b60200190565b60008219821115612e1e57612e1e613006565b500190565b600082612e3e57634e487b7160e01b81526012600452602481fd5b500490565b80825b6001808611612e555750612416565b818704821115612e6757612e67613006565b80861615612e7457918102915b9490941c938002612e46565b6000610a2c6000198484600082612e9957506001610a2c565b81612ea657506000610a2c565b8160018114612ebc5760028114612ec657612ef3565b6001915050610a2c565b60ff841115612ed757612ed7613006565b6001841b915084821115612eed57612eed613006565b50610a2c565b5060208310610133831016604e8410600b8410161715612f26575081810a83811115612f2157612f21613006565b610a2c565b612f338484846001612e43565b808604821115612f4557612f45613006565b02949350505050565b6000816000190483118215151615612f6857612f68613006565b500290565b600082821015612f7f57612f7f613006565b500390565b600181811c90821680612f9857607f821691505b60208210811415612fb957634e487b7160e01b600052602260045260246000fd5b50919050565b601f8201601f191681016001600160401b0381118282101715612fe457612fe461301c565b6040525050565b6000600019821415612fff57612fff613006565b5060010190565b634e487b7160e01b600052601160045260246000fd5b634e487b7160e01b600052604160045260246000fd5b600060033d11156109e757600481823e5160e01c90565b600060443d1015613059576109e7565b6040516003193d81016004833e81513d6001600160401b03816024840111818411171561308a5750505050506109e7565b82850191508151818111156130a4575050505050506109e7565b843d87010160208285010111156130c0575050505050506109e7565b6130cf60208286010187612fbf565b509094505050505090565b6001600160e01b03198116811461151957600080fdfe68747470733a2f2f73746f726167652e676f6f676c65617069732e636f6d2f74687265642d70726f746f636f6c2e61707073706f742e636f6d2f736d6172742d7574696c732f7b69647d2e6a736f6ea26469706673582212200ef195bc0db909c4b5174ee85f403abd503e63a6ea6a464ee7fc7746bfec4dc464736f6c63430008030033",
  "linkReferences": {},
  "deployedLinkReferences": {}
}