{
  "_format": "hh-sol-artifact-1",
  "contractName": "ThredCore",
  "sourceName": "contracts/ThredCore/ThredCore.sol",
  "abi": [
    {
      "anonymous": false,
      "inputs": [
        {
          "indexed": true,
          "internalType": "address",
          "name": "account",
          "type": "address"
        },
        {
          "indexed": true,
          "internalType": "address",
          "name": "operator",
          "type": "address"
        },
        {
          "indexed": false,
          "internalType": "bool",
          "name": "approved",
          "type": "bool"
        }
      ],
      "name": "ApprovalForAll",
      "type": "event"
    },
    {
      "anonymous": false,
      "inputs": [
        {
          "indexed": false,
          "internalType": "uint8",
          "name": "version",
          "type": "uint8"
        }
      ],
      "name": "Initialized",
      "type": "event"
    },
    {
      "anonymous": false,
      "inputs": [
        {
          "indexed": true,
          "internalType": "uint256",
          "name": "tokenId",
          "type": "uint256"
        },
        {
          "indexed": true,
          "internalType": "uint256",
          "name": "price",
          "type": "uint256"
        },
        {
          "indexed": true,
          "internalType": "address",
          "name": "user",
          "type": "address"
        }
      ],
      "name": "Install",
      "type": "event"
    },
    {
      "anonymous": false,
      "inputs": [
        {
          "indexed": false,
          "internalType": "address",
          "name": "account",
          "type": "address"
        }
      ],
      "name": "Paused",
      "type": "event"
    },
    {
      "anonymous": false,
      "inputs": [
        {
          "indexed": true,
          "internalType": "uint256",
          "name": "id",
          "type": "uint256"
        },
        {
          "indexed": false,
          "internalType": "bool",
          "name": "bounded",
          "type": "bool"
        }
      ],
      "name": "Soulbound",
      "type": "event"
    },
    {
      "anonymous": false,
      "inputs": [
        {
          "indexed": true,
          "internalType": "address",
          "name": "operator",
          "type": "address"
        },
        {
          "indexed": true,
          "internalType": "address",
          "name": "from",
          "type": "address"
        },
        {
          "indexed": true,
          "internalType": "address",
          "name": "to",
          "type": "address"
        },
        {
          "indexed": false,
          "internalType": "uint256[]",
          "name": "ids",
          "type": "uint256[]"
        },
        {
          "indexed": false,
          "internalType": "uint256[]",
          "name": "values",
          "type": "uint256[]"
        }
      ],
      "name": "TransferBatch",
      "type": "event"
    },
    {
      "anonymous": false,
      "inputs": [
        {
          "indexed": true,
          "internalType": "address",
          "name": "operator",
          "type": "address"
        },
        {
          "indexed": true,
          "internalType": "address",
          "name": "from",
          "type": "address"
        },
        {
          "indexed": true,
          "internalType": "address",
          "name": "to",
          "type": "address"
        },
        {
          "indexed": false,
          "internalType": "uint256",
          "name": "id",
          "type": "uint256"
        },
        {
          "indexed": false,
          "internalType": "uint256",
          "name": "value",
          "type": "uint256"
        }
      ],
      "name": "TransferSingle",
      "type": "event"
    },
    {
      "anonymous": false,
      "inputs": [
        {
          "indexed": false,
          "internalType": "string",
          "name": "value",
          "type": "string"
        },
        {
          "indexed": true,
          "internalType": "uint256",
          "name": "id",
          "type": "uint256"
        }
      ],
      "name": "URI",
      "type": "event"
    },
    {
      "anonymous": false,
      "inputs": [
        {
          "indexed": false,
          "internalType": "address",
          "name": "account",
          "type": "address"
        }
      ],
      "name": "Unpaused",
      "type": "event"
    },
    {
      "inputs": [
        {
          "internalType": "address",
          "name": "account",
          "type": "address"
        },
        {
          "internalType": "uint256",
          "name": "id",
          "type": "uint256"
        }
      ],
      "name": "balanceOf",
      "outputs": [
        {
          "internalType": "uint256",
          "name": "",
          "type": "uint256"
        }
      ],
      "stateMutability": "view",
      "type": "function"
    },
    {
      "inputs": [
        {
          "internalType": "address[]",
          "name": "accounts",
          "type": "address[]"
        },
        {
          "internalType": "uint256[]",
          "name": "ids",
          "type": "uint256[]"
        }
      ],
      "name": "balanceOfBatch",
      "outputs": [
        {
          "internalType": "uint256[]",
          "name": "",
          "type": "uint256[]"
        }
      ],
      "stateMutability": "view",
      "type": "function"
    },
    {
      "inputs": [
        {
          "components": [
            {
              "internalType": "string",
              "name": "name",
              "type": "string"
            },
            {
              "internalType": "string",
              "name": "id",
              "type": "string"
            },
            {
              "internalType": "address",
              "name": "pay_address",
              "type": "address"
            },
            {
              "internalType": "uint256",
              "name": "category",
              "type": "uint256"
            },
            {
              "internalType": "uint256",
              "name": "price",
              "type": "uint256"
            },
            {
              "internalType": "uint256",
              "name": "created",
              "type": "uint256"
            },
            {
              "internalType": "uint256",
              "name": "modified",
              "type": "uint256"
            },
            {
              "internalType": "uint256",
              "name": "chainId",
              "type": "uint256"
            },
            {
              "internalType": "bytes",
              "name": "signature",
              "type": "bytes"
            }
          ],
          "internalType": "struct ThredCore.SmartUtil",
          "name": "util",
          "type": "tuple"
        },
        {
          "internalType": "address[]",
          "name": "to",
          "type": "address[]"
        }
      ],
      "name": "buySmartUtil",
      "outputs": [],
      "stateMutability": "payable",
      "type": "function"
    },
    {
      "inputs": [],
      "name": "deployerAddress",
      "outputs": [
        {
          "internalType": "address",
          "name": "",
          "type": "address"
        }
      ],
      "stateMutability": "view",
      "type": "function"
    },
    {
      "inputs": [
        {
          "internalType": "string",
          "name": "id",
          "type": "string"
        },
        {
          "internalType": "address",
          "name": "creator",
          "type": "address"
        }
      ],
      "name": "fetchDownloads",
      "outputs": [
        {
          "internalType": "uint256",
          "name": "",
          "type": "uint256"
        }
      ],
      "stateMutability": "view",
      "type": "function"
    },
    {
      "inputs": [
        {
          "internalType": "address[]",
          "name": "payoutAddresses",
          "type": "address[]"
        }
      ],
      "name": "fetchPayouts",
      "outputs": [
        {
          "internalType": "uint256[]",
          "name": "",
          "type": "uint256[]"
        }
      ],
      "stateMutability": "view",
      "type": "function"
    },
    {
      "inputs": [
        {
          "internalType": "address",
          "name": "user",
          "type": "address"
        }
      ],
      "name": "fetchRep",
      "outputs": [
        {
          "internalType": "uint256",
          "name": "",
          "type": "uint256"
        }
      ],
      "stateMutability": "view",
      "type": "function"
    },
    {
      "inputs": [],
      "name": "getChainID",
      "outputs": [
        {
          "internalType": "uint256",
          "name": "",
          "type": "uint256"
        }
      ],
      "stateMutability": "view",
      "type": "function"
    },
    {
      "inputs": [
        {
          "internalType": "address",
          "name": "owner",
          "type": "address"
        },
        {
          "internalType": "string",
          "name": "domain",
          "type": "string"
        },
        {
          "internalType": "string",
          "name": "version",
          "type": "string"
        }
      ],
      "name": "initialize",
      "outputs": [],
      "stateMutability": "nonpayable",
      "type": "function"
    },
    {
      "inputs": [
        {
          "internalType": "address",
          "name": "account",
          "type": "address"
        },
        {
          "internalType": "address",
          "name": "operator",
          "type": "address"
        }
      ],
      "name": "isApprovedForAll",
      "outputs": [
        {
          "internalType": "bool",
          "name": "",
          "type": "bool"
        }
      ],
      "stateMutability": "view",
      "type": "function"
    },
    {
      "inputs": [
        {
          "internalType": "uint256",
          "name": "id",
          "type": "uint256"
        }
      ],
      "name": "isSoulbound",
      "outputs": [
        {
          "internalType": "bool",
          "name": "",
          "type": "bool"
        }
      ],
      "stateMutability": "view",
      "type": "function"
    },
    {
      "inputs": [],
      "name": "pause",
      "outputs": [],
      "stateMutability": "nonpayable",
      "type": "function"
    },
    {
      "inputs": [],
      "name": "paused",
      "outputs": [
        {
          "internalType": "bool",
          "name": "",
          "type": "bool"
        }
      ],
      "stateMutability": "view",
      "type": "function"
    },
    {
      "inputs": [
        {
          "internalType": "address",
          "name": "from",
          "type": "address"
        },
        {
          "internalType": "address",
          "name": "to",
          "type": "address"
        },
        {
          "internalType": "uint256[]",
          "name": "ids",
          "type": "uint256[]"
        },
        {
          "internalType": "uint256[]",
          "name": "amounts",
          "type": "uint256[]"
        },
        {
          "internalType": "bytes",
          "name": "data",
          "type": "bytes"
        }
      ],
      "name": "safeBatchTransferFrom",
      "outputs": [],
      "stateMutability": "nonpayable",
      "type": "function"
    },
    {
      "inputs": [
        {
          "internalType": "address",
          "name": "from",
          "type": "address"
        },
        {
          "internalType": "address",
          "name": "to",
          "type": "address"
        },
        {
          "internalType": "uint256",
          "name": "id",
          "type": "uint256"
        },
        {
          "internalType": "uint256",
          "name": "amount",
          "type": "uint256"
        },
        {
          "internalType": "bytes",
          "name": "data",
          "type": "bytes"
        }
      ],
      "name": "safeTransferFrom",
      "outputs": [],
      "stateMutability": "nonpayable",
      "type": "function"
    },
    {
      "inputs": [
        {
          "internalType": "address",
          "name": "operator",
          "type": "address"
        },
        {
          "internalType": "bool",
          "name": "approved",
          "type": "bool"
        }
      ],
      "name": "setApprovalForAll",
      "outputs": [],
      "stateMutability": "nonpayable",
      "type": "function"
    },
    {
      "inputs": [
        {
          "internalType": "bytes4",
          "name": "interfaceId",
          "type": "bytes4"
        }
      ],
      "name": "supportsInterface",
      "outputs": [
        {
          "internalType": "bool",
          "name": "",
          "type": "bool"
        }
      ],
      "stateMutability": "view",
      "type": "function"
    },
    {
      "inputs": [],
      "name": "unpause",
      "outputs": [],
      "stateMutability": "nonpayable",
      "type": "function"
    },
    {
      "inputs": [
        {
          "internalType": "uint256",
          "name": "",
          "type": "uint256"
        }
      ],
      "name": "uri",
      "outputs": [
        {
          "internalType": "string",
          "name": "",
          "type": "string"
        }
      ],
      "stateMutability": "view",
      "type": "function"
    },
    {
      "inputs": [],
      "name": "withDrawFunds",
      "outputs": [],
      "stateMutability": "nonpayable",
      "type": "function"
    }
  ],
  "bytecode": "0x608060405234801561001057600080fd5b5061300f806100206000396000f3fe60806040526004361061011e5760003560e01c80638456cb59116100a0578063bbedeb1f11610064578063bbedeb1f14610312578063d7dc43a514610349578063e985e9c514610369578063efdee94f146103b2578063f242432a146103eb5761011e565b80638456cb5914610277578063906571471461028c578063911ec470146102ac578063a22cb465146102dd578063b78da386146102fd5761011e565b80634e1273f4116100e75780634e1273f4146101ea578063564b81ef146102175780635c975abb1461022c578063608595b51461024457806374eff2b8146102645761011e565b8062fdd58e1461012357806301ffc9a7146101565780630e89341c146101865780632eb2c2d6146101b35780633f4ba83a146101d5575b600080fd5b34801561012f57600080fd5b5061014361013e3660046126b7565b61040b565b6040519081526020015b60405180910390f35b34801561016257600080fd5b506101766101713660046127e9565b6104a3565b604051901515815260200161014d565b34801561019257600080fd5b506101a66101a1366004612909565b6104f7565b60405161014d9190612aba565b3480156101bf57600080fd5b506101d36101ce366004612506565b61058b565b005b3480156101e157600080fd5b506101d36105d7565b3480156101f657600080fd5b5061020a61020536600461271f565b61062c565b60405161014d9190612a82565b34801561022357600080fd5b5061014361078d565b34801561023857600080fd5b5060655460ff16610176565b34801561025057600080fd5b5061014361025f366004612821565b610792565b6101d361027236600461289c565b6107db565b34801561028357600080fd5b506101d3610c33565b34801561029857600080fd5b506101d36102a7366004612647565b610c86565b3480156102b857600080fd5b506101766102c7366004612909565b6000908152610130602052604090205460ff1690565b3480156102e957600080fd5b506101d36102f836600461260d565b610de9565b34801561030957600080fd5b506101d3610df8565b34801561031e57600080fd5b5061014361032d3660046124ba565b6001600160a01b03166000908152610134602052604090205490565b34801561035557600080fd5b5061020a6103643660046126e0565b610fac565b34801561037557600080fd5b506101766103843660046124d4565b6001600160a01b03918216600090815260fe6020908152604080832093909416825291909152205460ff1690565b3480156103be57600080fd5b5061012f546103d3906001600160a01b031681565b6040516001600160a01b03909116815260200161014d565b3480156103f757600080fd5b506101d36104063660046125ab565b6110a3565b60006001600160a01b03831661047b5760405162461bcd60e51b815260206004820152602a60248201527f455243313135353a2061646472657373207a65726f206973206e6f742061207660448201526930b634b21037bbb732b960b11b60648201526084015b60405180910390fd5b50600090815260fd602090815260408083206001600160a01b03949094168352929052205490565b60006001600160e01b03198216636cdb3d1360e11b14806104d457506001600160e01b031982166303a24d0760e21b145b806104ef57506301ffc9a760e01b6001600160e01b03198316145b90505b919050565b606060ff805461050690612e1e565b80601f016020809104026020016040519081016040528092919081815260200182805461053290612e1e565b801561057f5780601f106105545761010080835404028352916020019161057f565b820191906000526020600020905b81548152906001019060200180831161056257829003601f168201915b50505050509050919050565b6001600160a01b0385163314806105a757506105a78533610384565b6105c35760405162461bcd60e51b815260040161047290612acd565b6105d085858585856110e8565b5050505050565b61012f546001600160a01b031633146106225760405162461bcd60e51b815260206004820152600d60248201526c556e617574686f72697a65642160981b6044820152606401610472565b61062a6112f2565b565b606081518351146106915760405162461bcd60e51b815260206004820152602960248201527f455243313135353a206163636f756e747320616e6420696473206c656e677468604482015268040dad2e6dac2e8c6d60bb1b6064820152608401610472565b600083516001600160401b038111156106ba57634e487b7160e01b600052604160045260246000fd5b6040519080825280602002602001820160405280156106e3578160200160208202803683370190505b50905060005b84518110156107855761074a85828151811061071557634e487b7160e01b600052603260045260246000fd5b602002602001015185838151811061073d57634e487b7160e01b600052603260045260246000fd5b602002602001015161040b565b82828151811061076a57634e487b7160e01b600052603260045260246000fd5b602090810291909101015261077e81612e85565b90506106e9565b509392505050565b465b90565b6000808484846040516020016107aa939291906129b6565b60408051601f19818403018152918152815160209283012060009081526101359092529020549150505b9392505050565b6002600154141561082e5760405162461bcd60e51b815260206004820152601f60248201527f5265656e7472616e637947756172643a207265656e7472616e742063616c6c006044820152606401610472565b600260015560655460ff161561087b5760405162461bcd60e51b8152602060048201526012602482015271151c985b9cd858dd1a5b99c814185d5cd95960721b6044820152606401610472565b600181116108d75760405162461bcd60e51b815260206004820152602360248201527f496e76616c696420546f204c656e6774682e204d757374206265203e2074686160448201526206e20360ec1b6064820152608401610472565b60006108e284611344565b90506108ec61078d565b8460e00135146109525760405162461bcd60e51b815260206004820152602b60248201527f54686973206974656d206973206e6f7420636f6d70617469626c65207769746860448201526a103a3434b99031b430b4b760a91b6064820152608401610472565b600061096260808601358461139e565b90508034146109a85760405162461bcd60e51b8152602060048201526012602482015271496e73756666696369656e742046756e647360701b6044820152606401610472565b60006109b76020870187612c3e565b846040516020016109ca939291906129b6565b60408051601f198184030181529181528151602092830120600081815261013390935291205490915080610a1f57610a0761013280546001019055565b50610132546000828152610133602052604090208190555b60005b85811015610b0557610a7a878783818110610a4d57634e487b7160e01b600052603260045260246000fd5b9050602002016020810190610a6291906124ba565b836001604051806020016040528060008152506113aa565b610a858260016114cf565b868682818110610aa557634e487b7160e01b600052603260045260246000fd5b9050602002016020810190610aba91906124ba565b6001600160a01b03168860800135837f9abbe2d43ce5c6460b50f15fe34cc22819e299866306d2c6de46b3a5cc05019860405160405180910390a4610afe81612e85565b9050610a22565b5060008281526101356020526040902054610b209086611527565b60008381526101356020526040812091909155610b3e846002611533565b90506000610b4c8583611578565b9050610b87816101316000610b6760608e0160408f016124ba565b6001600160a01b0316815260208101919091526040016000205490611527565b6101316000610b9c60608d0160408e016124ba565b6001600160a01b039081168252602080830193909352604091820160009081209490945561012f54168352610131909152902054610bda9083611527565b61012f546001600160a01b031660009081526101316020526040902055610c078660808b013560c8611584565b6001600160a01b0390961660009081526101346020526040902095909555505060018055505050505050565b61012f546001600160a01b03163314610c7e5760405162461bcd60e51b815260206004820152600d60248201526c556e617574686f72697a65642160981b6044820152606401610472565b61062a6115c6565b600054610100900460ff1615808015610ca65750600054600160ff909116105b80610cc05750303b158015610cc0575060005460ff166001145b610d235760405162461bcd60e51b815260206004820152602e60248201527f496e697469616c697a61626c653a20636f6e747261637420697320616c72656160448201526d191e481a5b9a5d1a585b1a5e995960921b6064820152608401610472565b6000805460ff191660011790558015610d46576000805461ff0019166101001790555b610d4e611603565b610d56611632565b610d776040518060800160405280604f8152602001612f8b604f9139611661565b610d818383611694565b61012f80546001600160a01b0319166001600160a01b0386161790558015610de3576000805461ff0019169055604051600181527f7f26b83ff96e1f2b6a682f133852f6798a09c465da95921460cefb38474024989060200160405180910390a15b50505050565b610df43383836116c5565b5050565b60026001541415610e4b5760405162461bcd60e51b815260206004820152601f60248201527f5265656e7472616e637947756172643a207265656e7472616e742063616c6c006044820152606401610472565b600260015560655460ff161580610e6d575061012f546001600160a01b031633145b610eae5760405162461bcd60e51b8152602060048201526012602482015271151c985b9cd858dd1a5b99c814185d5cd95960721b6044820152606401610472565b336000908152610131602052604090205480610f035760405162461bcd60e51b81526020600482015260146024820152732737ba3434b733903a37903bb4ba34323930bb9760611b6044820152606401610472565b604051600090339083908381818185875af1925050503d8060008114610f45576040519150601f19603f3d011682016040523d82523d6000602084013e610f4a565b606091505b5050905080610f935760405162461bcd60e51b815260206004820152601560248201527429b7b6b2ba3434b733903bb2b73a103bb937b7339760591b6044820152606401610472565b5050336000908152610131602052604081205560018055565b60606000826001600160401b03811115610fd657634e487b7160e01b600052604160045260246000fd5b604051908082528060200260200182016040528015610fff578160200160208202803683370190505b50905060005b8381101561078557610131600086868481811061103257634e487b7160e01b600052603260045260246000fd5b905060200201602081019061104791906124ba565b6001600160a01b03166001600160a01b031681526020019081526020016000205482828151811061108857634e487b7160e01b600052603260045260246000fd5b602090810291909101015261109c81612e85565b9050611005565b6001600160a01b0385163314806110bf57506110bf8533610384565b6110db5760405162461bcd60e51b815260040161047290612acd565b6105d085858585856117a6565b815183511461114a5760405162461bcd60e51b815260206004820152602860248201527f455243313135353a2069647320616e6420616d6f756e7473206c656e677468206044820152670dad2e6dac2e8c6d60c31b6064820152608401610472565b6001600160a01b0384166111705760405162461bcd60e51b815260040161047290612b64565b3361117f8187878787876118e2565b60005b84518110156112845760008582815181106111ad57634e487b7160e01b600052603260045260246000fd5b6020026020010151905060008583815181106111d957634e487b7160e01b600052603260045260246000fd5b602090810291909101810151600084815260fd835260408082206001600160a01b038e16835290935291909120549091508181101561122a5760405162461bcd60e51b815260040161047290612ba9565b600083815260fd602090815260408083206001600160a01b038e8116855292528083208585039055908b16825281208054849290611269908490612ca5565b925050819055505050508061127d90612e85565b9050611182565b50846001600160a01b0316866001600160a01b0316826001600160a01b03167f4a39dc06d4c0dbc64b70af90fd698a233a518aa5d07e595d983b8c0526c8f7fb87876040516112d4929190612a95565b60405180910390a46112ea8187878787876119ad565b505050505050565b6112fa611b18565b6065805460ff191690557f5db9ee0a495bf2e6ff9c91a7834c1ba4fdd244a5e8aa4e537bd38aeae4b073aa335b6040516001600160a01b03909116815260200160405180910390a1565b60008061135083611b61565b90506107d481611364610100860186612c3e565b8080601f016020809104026020016040519081016040528093929190818152602001838380828437600092019190915250611c6d92505050565b60006107d48284612de8565b6001600160a01b03841661140a5760405162461bcd60e51b815260206004820152602160248201527f455243313135353a206d696e7420746f20746865207a65726f206164647265736044820152607360f81b6064820152608401610472565b33600061141685611c89565b9050600061142385611c89565b9050611434836000898585896118e2565b600086815260fd602090815260408083206001600160a01b038b16845290915281208054879290611466908490612ca5565b909155505060408051878152602081018790526001600160a01b03808a1692600092918716917fc3d58168c5ae7397731d063d5bbf3d657854427343f4c083240f7aacaa2d0f62910160405180910390a46114c683600089898989611ce2565b50505050505050565b60008281526101306020908152604091829020805460ff1916841515908117909155915191825283917fe0abe9435049152fa612635eac4022235b6f5c156ecf799bdac41b11b9fa2211910160405180910390a25050565b60006107d48284612ca5565b6000806115616115456002600a612d1a565b611550906064612de8565b61155b86606461139e565b90611dac565b9050600061156f828561139e565b95945050505050565b60006107d48284612e07565b60006115be61159e61159785600a611dac565b8490611527565b6001600160a01b0386166000908152610134602052604090205490611527565b949350505050565b6115ce611db8565b6065805460ff191660011790557f62e78cea01bee320cd4e420270b5ea74000d11b0c9f74754ebdbfc544b05a2586113273390565b600054610100900460ff1661162a5760405162461bcd60e51b815260040161047290612bf3565b61062a611dfe565b600054610100900460ff166116595760405162461bcd60e51b815260040161047290612bf3565b61062a611e2b565b600054610100900460ff166116885760405162461bcd60e51b815260040161047290612bf3565b61169181611e5e565b50565b600054610100900460ff166116bb5760405162461bcd60e51b815260040161047290612bf3565b610df48282611e8e565b816001600160a01b0316836001600160a01b031614156117395760405162461bcd60e51b815260206004820152602960248201527f455243313135353a2073657474696e6720617070726f76616c20737461747573604482015268103337b91039b2b63360b91b6064820152608401610472565b6001600160a01b03838116600081815260fe6020908152604080832094871680845294825291829020805460ff191686151590811790915591519182527f17307eab39ab6107e8899845ad3d59bd9653f200f220920489ca2b5937696c31910160405180910390a3505050565b6001600160a01b0384166117cc5760405162461bcd60e51b815260040161047290612b64565b3360006117d885611c89565b905060006117e585611c89565b90506117f58389898585896118e2565b600086815260fd602090815260408083206001600160a01b038c168452909152902054858110156118385760405162461bcd60e51b815260040161047290612ba9565b600087815260fd602090815260408083206001600160a01b038d8116855292528083208985039055908a16825281208054889290611877908490612ca5565b909155505060408051888152602081018890526001600160a01b03808b16928c821692918816917fc3d58168c5ae7397731d063d5bbf3d657854427343f4c083240f7aacaa2d0f62910160405180910390a46118d7848a8a8a8a8a611ce2565b505050505050505050565b60005b83518110156114c65761192f84828151811061191157634e487b7160e01b600052603260045260246000fd5b60200260200101516000908152610130602052604090205460ff1690565b1561199d576001600160a01b038616158061195157506001600160a01b038516155b61199d5760405162461bcd60e51b815260206004820152601b60248201527f536f756c626f756e642c204e6f6e2d5472616e7366657261626c6500000000006044820152606401610472565b6119a681612e85565b90506118e5565b6001600160a01b0384163b156112ea5760405163bc197c8160e01b81526001600160a01b0385169063bc197c81906119f190899089908890889088906004016129df565b602060405180830381600087803b158015611a0b57600080fd5b505af1925050508015611a3b575060408051601f3d908101601f19168201909252611a3891810190612805565b60015b611ae857611a47612ecc565b806308c379a01415611a815750611a5c612ee3565b80611a675750611a83565b8060405162461bcd60e51b81526004016104729190612aba565b505b60405162461bcd60e51b815260206004820152603460248201527f455243313135353a207472616e7366657220746f206e6f6e20455243313135356044820152732932b1b2b4bb32b91034b6b83632b6b2b73a32b960611b6064820152608401610472565b6001600160e01b0319811663bc197c8160e01b146114c65760405162461bcd60e51b815260040161047290612b1c565b60655460ff1661062a5760405162461bcd60e51b815260206004820152601460248201527314185d5cd8589b194e881b9bdd081c185d5cd95960621b6044820152606401610472565b60006104ef7f29f059543ab0cc4d5410157bd4928e0d52781563c806025742d7bf1958239950611b918480612c3e565b604051611b9f9291906129a6565b604051908190039020611bb56020860186612c3e565b604051611bc39291906129a6565b6040518091039020856040016020810190611bde91906124ba565b866060013587608001358860a001358960c001358a60e00135604051602001611c5299989796959493929190988952602089019790975260408801959095526001600160a01b03939093166060870152608086019190915260a085015260c084015260e08301526101008201526101200190565b60405160208183030381529060405280519060200120611ecf565b6000806000611c7c8585611f1d565b9150915061078581611f63565b60408051600180825281830190925260609160009190602080830190803683370190505090508281600081518110611cd157634e487b7160e01b600052603260045260246000fd5b602090810291909101015292915050565b6001600160a01b0384163b156112ea5760405163f23a6e6160e01b81526001600160a01b0385169063f23a6e6190611d269089908990889088908890600401612a3d565b602060405180830381600087803b158015611d4057600080fd5b505af1925050508015611d70575060408051601f3d908101601f19168201909252611d6d91810190612805565b60015b611d7c57611a47612ecc565b6001600160e01b0319811663f23a6e6160e01b146114c65760405162461bcd60e51b815260040161047290612b1c565b60006107d48284612cbd565b60655460ff161561062a5760405162461bcd60e51b815260206004820152601060248201526f14185d5cd8589b194e881c185d5cd95960821b6044820152606401610472565b600054610100900460ff16611e255760405162461bcd60e51b815260040161047290612bf3565b60018055565b600054610100900460ff16611e525760405162461bcd60e51b815260040161047290612bf3565b6065805460ff19169055565b600054610100900460ff16611e855760405162461bcd60e51b815260040161047290612bf3565b61169181612166565b600054610100900460ff16611eb55760405162461bcd60e51b815260040161047290612bf3565b815160209283012081519190920120609791909155609855565b60006104ef611edc612179565b8360405161190160f01b6020820152602281018390526042810182905260009060620160405160208183030381529060405280519060200120905092915050565b600080825160411415611f545760208301516040840151606085015160001a611f48878285856121f9565b94509450505050611f5c565b506000905060025b9250929050565b6000816004811115611f8557634e487b7160e01b600052602160045260246000fd5b1415611f9057611691565b6001816004811115611fb257634e487b7160e01b600052602160045260246000fd5b14156120005760405162461bcd60e51b815260206004820152601860248201527f45434453413a20696e76616c6964207369676e617475726500000000000000006044820152606401610472565b600281600481111561202257634e487b7160e01b600052602160045260246000fd5b14156120705760405162461bcd60e51b815260206004820152601f60248201527f45434453413a20696e76616c6964207369676e6174757265206c656e677468006044820152606401610472565b600381600481111561209257634e487b7160e01b600052602160045260246000fd5b14156120eb5760405162461bcd60e51b815260206004820152602260248201527f45434453413a20696e76616c6964207369676e6174757265202773272076616c604482015261756560f01b6064820152608401610472565b600481600481111561210d57634e487b7160e01b600052602160045260246000fd5b14156116915760405162461bcd60e51b815260206004820152602260248201527f45434453413a20696e76616c6964207369676e6174757265202776272076616c604482015261756560f01b6064820152608401610472565b8051610df49060ff9060208401906122e6565b60006121f47f8b73c3c69bb8fe3d512ecc4cf759cc79239f7b179b0ffacaa9a75d522b39400f6121a860975490565b6098546040805160208101859052908101839052606081018290524660808201523060a082015260009060c0016040516020818303038152906040528051906020012090509392505050565b905090565b6000807f7fffffffffffffffffffffffffffffff5d576e7357a4501ddfe92f46681b20a083111561223057506000905060036122dd565b8460ff16601b1415801561224857508460ff16601c14155b1561225957506000905060046122dd565b6040805160008082526020820180845289905260ff881692820192909252606081018690526080810185905260019060a0016020604051602081039080840390855afa1580156122ad573d6000803e3d6000fd5b5050604051601f1901519150506001600160a01b0381166122d6576000600192509250506122dd565b9150600090505b94509492505050565b8280546122f290612e1e565b90600052602060002090601f016020900481019282612314576000855561235a565b82601f1061232d57805160ff191683800117855561235a565b8280016001018555821561235a579182015b8281111561235a57825182559160200191906001019061233f565b5061236692915061236a565b5090565b5b80821115612366576000815560010161236b565b80356001600160a01b03811681146104f257600080fd5b60008083601f8401126123a7578182fd5b5081356001600160401b038111156123bd578182fd5b6020830191508360208260051b8501011115611f5c57600080fd5b600082601f8301126123e8578081fd5b813560206123f582612c82565b6040516124028282612e59565b8381528281019150858301600585901b87018401881015612421578586fd5b855b8581101561243f57813584529284019290840190600101612423565b5090979650505050505050565b600082601f83011261245c578081fd5b81356001600160401b0381111561247557612475612eb6565b60405161248c601f8301601f191660200182612e59565b8181528460208386010111156124a0578283fd5b816020850160208301379081016020019190915292915050565b6000602082840312156124cb578081fd5b6107d48261237f565b600080604083850312156124e6578081fd5b6124ef8361237f565b91506124fd6020840161237f565b90509250929050565b600080600080600060a0868803121561251d578081fd5b6125268661237f565b94506125346020870161237f565b935060408601356001600160401b038082111561254f578283fd5b61255b89838a016123d8565b94506060880135915080821115612570578283fd5b61257c89838a016123d8565b93506080880135915080821115612591578283fd5b5061259e8882890161244c565b9150509295509295909350565b600080600080600060a086880312156125c2578081fd5b6125cb8661237f565b94506125d96020870161237f565b9350604086013592506060860135915060808601356001600160401b03811115612601578182fd5b61259e8882890161244c565b6000806040838503121561261f578182fd5b6126288361237f565b91506020830135801515811461263c578182fd5b809150509250929050565b60008060006060848603121561265b578283fd5b6126648461237f565b925060208401356001600160401b038082111561267f578384fd5b61268b8783880161244c565b935060408601359150808211156126a0578283fd5b506126ad8682870161244c565b9150509250925092565b600080604083850312156126c9578182fd5b6126d28361237f565b946020939093013593505050565b600080602083850312156126f2578182fd5b82356001600160401b03811115612707578283fd5b61271385828601612396565b90969095509350505050565b60008060408385031215612731578182fd5b82356001600160401b0380821115612747578384fd5b818501915085601f83011261275a578384fd5b8135602061276782612c82565b6040516127748282612e59565b8381528281019150858301600585901b870184018b1015612793578889fd5b8896505b848710156127bc576127a88161237f565b835260019690960195918301918301612797565b50965050860135925050808211156127d2578283fd5b506127df858286016123d8565b9150509250929050565b6000602082840312156127fa578081fd5b81356107d481612f74565b600060208284031215612816578081fd5b81516107d481612f74565b600080600060408486031215612835578081fd5b83356001600160401b038082111561284b578283fd5b818601915086601f83011261285e578283fd5b81358181111561286c578384fd5b87602082850101111561287d578384fd5b602092830195509350612893918601905061237f565b90509250925092565b6000806000604084860312156128b0578081fd5b83356001600160401b03808211156128c6578283fd5b9085019061012082880312156128da578283fd5b909350602085013590808211156128ef578283fd5b506128fc86828701612396565b9497909650939450505050565b60006020828403121561291a578081fd5b5035919050565b6000815180845260208085019450808401835b8381101561295057815187529582019590820190600101612934565b509495945050505050565b60008151808452815b8181101561298057602081850181015186830182015201612964565b818111156129915782602083870101525b50601f01601f19169290920160200192915050565b6000828483379101908152919050565b6000838583375060609190911b6bffffffffffffffffffffffff19169101908152601401919050565b6001600160a01b0386811682528516602082015260a060408201819052600090612a0b90830186612921565b8281036060840152612a1d8186612921565b90508281036080840152612a31818561295b565b98975050505050505050565b6001600160a01b03868116825285166020820152604081018490526060810183905260a060808201819052600090612a779083018461295b565b979650505050505050565b6000602082526107d46020830184612921565b600060408252612aa86040830185612921565b828103602084015261156f8185612921565b6000602082526107d4602083018461295b565b6020808252602f908201527f455243313135353a2063616c6c6572206973206e6f7420746f6b656e206f776e60408201526e195c881b9bdc88185c1c1c9bdd9959608a1b606082015260800190565b60208082526028908201527f455243313135353a204552433131353552656365697665722072656a656374656040820152676420746f6b656e7360c01b606082015260800190565b60208082526025908201527f455243313135353a207472616e7366657220746f20746865207a65726f206164604082015264647265737360d81b606082015260800190565b6020808252602a908201527f455243313135353a20696e73756666696369656e742062616c616e636520666f60408201526939103a3930b739b332b960b11b606082015260800190565b6020808252602b908201527f496e697469616c697a61626c653a20636f6e7472616374206973206e6f74206960408201526a6e697469616c697a696e6760a81b606082015260800190565b6000808335601e19843603018112612c54578283fd5b8301803591506001600160401b03821115612c6d578283fd5b602001915036819003821315611f5c57600080fd5b60006001600160401b03821115612c9b57612c9b612eb6565b5060051b60200190565b60008219821115612cb857612cb8612ea0565b500190565b600082612cd857634e487b7160e01b81526012600452602481fd5b500490565b80825b6001808611612cef57506122dd565b818704821115612d0157612d01612ea0565b80861615612d0e57918102915b9490941c938002612ce0565b60006107d46000198484600082612d33575060016107d4565b81612d40575060006107d4565b8160018114612d565760028114612d6057612d8d565b60019150506107d4565b60ff841115612d7157612d71612ea0565b6001841b915084821115612d8757612d87612ea0565b506107d4565b5060208310610133831016604e8410600b8410161715612dc0575081810a83811115612dbb57612dbb612ea0565b6107d4565b612dcd8484846001612cdd565b808604821115612ddf57612ddf612ea0565b02949350505050565b6000816000190483118215151615612e0257612e02612ea0565b500290565b600082821015612e1957612e19612ea0565b500390565b600181811c90821680612e3257607f821691505b60208210811415612e5357634e487b7160e01b600052602260045260246000fd5b50919050565b601f8201601f191681016001600160401b0381118282101715612e7e57612e7e612eb6565b6040525050565b6000600019821415612e9957612e99612ea0565b5060010190565b634e487b7160e01b600052601160045260246000fd5b634e487b7160e01b600052604160045260246000fd5b600060033d111561078f57600481823e5160e01c90565b600060443d1015612ef35761078f565b6040516003193d81016004833e81513d6001600160401b038160248401118184111715612f2457505050505061078f565b8285019150815181811115612f3e5750505050505061078f565b843d8701016020828501011115612f5a5750505050505061078f565b612f6960208286010187612e59565b509094505050505090565b6001600160e01b03198116811461169157600080fdfe68747470733a2f2f73746f726167652e676f6f676c65617069732e636f6d2f74687265642d70726f746f636f6c2e61707073706f742e636f6d2f736d6172742d7574696c732f7b69647d2e6a736f6ea2646970667358221220904167933f9e34a363d1f9724b074c1419048f40b650de012bc0fda9d279efdd64736f6c63430008030033",
  "linkReferences": {},
  "deployedLinkReferences": {}
}