{
  "_format": "hh-sol-artifact-1",
  "contractName": "ThredCore",
  "sourceName": "contracts/ThredCore/ThredCore.sol",
  "abi": [
    {
      "anonymous": false,
      "inputs": [
        {
          "indexed": true,
          "internalType": "address",
          "name": "account",
          "type": "address"
        },
        {
          "indexed": true,
          "internalType": "address",
          "name": "operator",
          "type": "address"
        },
        {
          "indexed": false,
          "internalType": "bool",
          "name": "approved",
          "type": "bool"
        }
      ],
      "name": "ApprovalForAll",
      "type": "event"
    },
    {
      "anonymous": false,
      "inputs": [
        {
          "indexed": false,
          "internalType": "uint8",
          "name": "version",
          "type": "uint8"
        }
      ],
      "name": "Initialized",
      "type": "event"
    },
    {
      "anonymous": false,
      "inputs": [
        {
          "indexed": true,
          "internalType": "uint256",
          "name": "tokenId",
          "type": "uint256"
        },
        {
          "indexed": true,
          "internalType": "uint256",
          "name": "price",
          "type": "uint256"
        },
        {
          "indexed": true,
          "internalType": "address",
          "name": "user",
          "type": "address"
        }
      ],
      "name": "Install",
      "type": "event"
    },
    {
      "anonymous": false,
      "inputs": [
        {
          "indexed": false,
          "internalType": "address",
          "name": "account",
          "type": "address"
        }
      ],
      "name": "Paused",
      "type": "event"
    },
    {
      "anonymous": false,
      "inputs": [
        {
          "indexed": true,
          "internalType": "uint256",
          "name": "id",
          "type": "uint256"
        },
        {
          "indexed": false,
          "internalType": "bool",
          "name": "bounded",
          "type": "bool"
        }
      ],
      "name": "Soulbound",
      "type": "event"
    },
    {
      "anonymous": false,
      "inputs": [
        {
          "indexed": true,
          "internalType": "address",
          "name": "operator",
          "type": "address"
        },
        {
          "indexed": true,
          "internalType": "address",
          "name": "from",
          "type": "address"
        },
        {
          "indexed": true,
          "internalType": "address",
          "name": "to",
          "type": "address"
        },
        {
          "indexed": false,
          "internalType": "uint256[]",
          "name": "ids",
          "type": "uint256[]"
        },
        {
          "indexed": false,
          "internalType": "uint256[]",
          "name": "values",
          "type": "uint256[]"
        }
      ],
      "name": "TransferBatch",
      "type": "event"
    },
    {
      "anonymous": false,
      "inputs": [
        {
          "indexed": true,
          "internalType": "address",
          "name": "operator",
          "type": "address"
        },
        {
          "indexed": true,
          "internalType": "address",
          "name": "from",
          "type": "address"
        },
        {
          "indexed": true,
          "internalType": "address",
          "name": "to",
          "type": "address"
        },
        {
          "indexed": false,
          "internalType": "uint256",
          "name": "id",
          "type": "uint256"
        },
        {
          "indexed": false,
          "internalType": "uint256",
          "name": "value",
          "type": "uint256"
        }
      ],
      "name": "TransferSingle",
      "type": "event"
    },
    {
      "anonymous": false,
      "inputs": [
        {
          "indexed": false,
          "internalType": "string",
          "name": "value",
          "type": "string"
        },
        {
          "indexed": true,
          "internalType": "uint256",
          "name": "id",
          "type": "uint256"
        }
      ],
      "name": "URI",
      "type": "event"
    },
    {
      "anonymous": false,
      "inputs": [
        {
          "indexed": false,
          "internalType": "address",
          "name": "account",
          "type": "address"
        }
      ],
      "name": "Unpaused",
      "type": "event"
    },
    {
      "inputs": [
        {
          "internalType": "address",
          "name": "account",
          "type": "address"
        },
        {
          "internalType": "uint256",
          "name": "id",
          "type": "uint256"
        }
      ],
      "name": "balanceOf",
      "outputs": [
        {
          "internalType": "uint256",
          "name": "",
          "type": "uint256"
        }
      ],
      "stateMutability": "view",
      "type": "function"
    },
    {
      "inputs": [
        {
          "internalType": "address[]",
          "name": "accounts",
          "type": "address[]"
        },
        {
          "internalType": "uint256[]",
          "name": "ids",
          "type": "uint256[]"
        }
      ],
      "name": "balanceOfBatch",
      "outputs": [
        {
          "internalType": "uint256[]",
          "name": "",
          "type": "uint256[]"
        }
      ],
      "stateMutability": "view",
      "type": "function"
    },
    {
      "inputs": [
        {
          "components": [
            {
              "internalType": "string",
              "name": "name",
              "type": "string"
            },
            {
              "internalType": "string",
              "name": "id",
              "type": "string"
            },
            {
              "internalType": "address",
              "name": "pay_address",
              "type": "address"
            },
            {
              "internalType": "uint256",
              "name": "category",
              "type": "uint256"
            },
            {
              "internalType": "uint256",
              "name": "price",
              "type": "uint256"
            },
            {
              "internalType": "uint256",
              "name": "modified",
              "type": "uint256"
            },
            {
              "internalType": "bytes",
              "name": "signature",
              "type": "bytes"
            }
          ],
          "internalType": "struct ThredCore.SmartUtil",
          "name": "util",
          "type": "tuple"
        },
        {
          "internalType": "address[]",
          "name": "to",
          "type": "address[]"
        }
      ],
      "name": "buySmartUtil",
      "outputs": [],
      "stateMutability": "payable",
      "type": "function"
    },
    {
      "inputs": [],
      "name": "deployerAddress",
      "outputs": [
        {
          "internalType": "address",
          "name": "",
          "type": "address"
        }
      ],
      "stateMutability": "view",
      "type": "function"
    },
    {
      "inputs": [
        {
          "internalType": "string",
          "name": "id",
          "type": "string"
        },
        {
          "internalType": "address",
          "name": "creator",
          "type": "address"
        }
      ],
      "name": "fetchDownloads",
      "outputs": [
        {
          "internalType": "uint256",
          "name": "",
          "type": "uint256"
        }
      ],
      "stateMutability": "view",
      "type": "function"
    },
    {
      "inputs": [
        {
          "internalType": "address[]",
          "name": "payoutAddresses",
          "type": "address[]"
        }
      ],
      "name": "fetchPayouts",
      "outputs": [
        {
          "internalType": "uint256[]",
          "name": "",
          "type": "uint256[]"
        }
      ],
      "stateMutability": "view",
      "type": "function"
    },
    {
      "inputs": [
        {
          "internalType": "address",
          "name": "user",
          "type": "address"
        }
      ],
      "name": "fetchRep",
      "outputs": [
        {
          "internalType": "uint256",
          "name": "",
          "type": "uint256"
        }
      ],
      "stateMutability": "view",
      "type": "function"
    },
    {
      "inputs": [
        {
          "internalType": "address",
          "name": "owner",
          "type": "address"
        },
        {
          "internalType": "string",
          "name": "domain",
          "type": "string"
        },
        {
          "internalType": "string",
          "name": "version",
          "type": "string"
        }
      ],
      "name": "initialize",
      "outputs": [],
      "stateMutability": "nonpayable",
      "type": "function"
    },
    {
      "inputs": [
        {
          "internalType": "address",
          "name": "account",
          "type": "address"
        },
        {
          "internalType": "address",
          "name": "operator",
          "type": "address"
        }
      ],
      "name": "isApprovedForAll",
      "outputs": [
        {
          "internalType": "bool",
          "name": "",
          "type": "bool"
        }
      ],
      "stateMutability": "view",
      "type": "function"
    },
    {
      "inputs": [
        {
          "internalType": "uint256",
          "name": "id",
          "type": "uint256"
        }
      ],
      "name": "isSoulbound",
      "outputs": [
        {
          "internalType": "bool",
          "name": "",
          "type": "bool"
        }
      ],
      "stateMutability": "view",
      "type": "function"
    },
    {
      "inputs": [],
      "name": "pause",
      "outputs": [],
      "stateMutability": "nonpayable",
      "type": "function"
    },
    {
      "inputs": [],
      "name": "paused",
      "outputs": [
        {
          "internalType": "bool",
          "name": "",
          "type": "bool"
        }
      ],
      "stateMutability": "view",
      "type": "function"
    },
    {
      "inputs": [
        {
          "internalType": "address",
          "name": "from",
          "type": "address"
        },
        {
          "internalType": "address",
          "name": "to",
          "type": "address"
        },
        {
          "internalType": "uint256[]",
          "name": "ids",
          "type": "uint256[]"
        },
        {
          "internalType": "uint256[]",
          "name": "amounts",
          "type": "uint256[]"
        },
        {
          "internalType": "bytes",
          "name": "data",
          "type": "bytes"
        }
      ],
      "name": "safeBatchTransferFrom",
      "outputs": [],
      "stateMutability": "nonpayable",
      "type": "function"
    },
    {
      "inputs": [
        {
          "internalType": "address",
          "name": "from",
          "type": "address"
        },
        {
          "internalType": "address",
          "name": "to",
          "type": "address"
        },
        {
          "internalType": "uint256",
          "name": "id",
          "type": "uint256"
        },
        {
          "internalType": "uint256",
          "name": "amount",
          "type": "uint256"
        },
        {
          "internalType": "bytes",
          "name": "data",
          "type": "bytes"
        }
      ],
      "name": "safeTransferFrom",
      "outputs": [],
      "stateMutability": "nonpayable",
      "type": "function"
    },
    {
      "inputs": [
        {
          "internalType": "address",
          "name": "operator",
          "type": "address"
        },
        {
          "internalType": "bool",
          "name": "approved",
          "type": "bool"
        }
      ],
      "name": "setApprovalForAll",
      "outputs": [],
      "stateMutability": "nonpayable",
      "type": "function"
    },
    {
      "inputs": [
        {
          "internalType": "bytes4",
          "name": "interfaceId",
          "type": "bytes4"
        }
      ],
      "name": "supportsInterface",
      "outputs": [
        {
          "internalType": "bool",
          "name": "",
          "type": "bool"
        }
      ],
      "stateMutability": "view",
      "type": "function"
    },
    {
      "inputs": [],
      "name": "unpause",
      "outputs": [],
      "stateMutability": "nonpayable",
      "type": "function"
    },
    {
      "inputs": [
        {
          "internalType": "uint256",
          "name": "",
          "type": "uint256"
        }
      ],
      "name": "uri",
      "outputs": [
        {
          "internalType": "string",
          "name": "",
          "type": "string"
        }
      ],
      "stateMutability": "view",
      "type": "function"
    },
    {
      "inputs": [],
      "name": "withDrawFunds",
      "outputs": [],
      "stateMutability": "nonpayable",
      "type": "function"
    }
  ],
  "bytecode": "0x608060405234801561001057600080fd5b50612f6e806100206000396000f3fe6080604052600436106101135760003560e01c80638456cb59116100a0578063bbedeb1f11610064578063bbedeb1f146102ef578063d7dc43a514610326578063e985e9c514610346578063efdee94f1461038f578063f242432a146103c857610113565b80638456cb59146102545780639065714714610269578063911ec47014610289578063a22cb465146102ba578063b78da386146102da57610113565b80632eb2c2d6116100e75780632eb2c2d6146101bd5780633f4ba83a146101dd5780634e1273f4146101f25780635c975abb1461021f578063608595b51461023457610113565b8062fdd58e1461011857806301ffc9a71461014b5780630e89341c1461017b5780631cd8b379146101a8575b600080fd5b34801561012457600080fd5b50610138610133366004612617565b6103e8565b6040519081526020015b60405180910390f35b34801561015757600080fd5b5061016b610166366004612749565b610480565b6040519015158152602001610142565b34801561018757600080fd5b5061019b610196366004612868565b6104d4565b6040516101429190612a19565b6101bb6101b63660046127fc565b610568565b005b3480156101c957600080fd5b506101bb6101d8366004612466565b610954565b3480156101e957600080fd5b506101bb6109a0565b3480156101fe57600080fd5b5061021261020d36600461267f565b6109f5565b60405161014291906129e1565b34801561022b57600080fd5b5061016b610b56565b34801561024057600080fd5b5061013861024f366004612781565b610b60565b34801561026057600080fd5b506101bb610ba9565b34801561027557600080fd5b506101bb6102843660046125a7565b610bfc565b34801561029557600080fd5b5061016b6102a4366004612868565b6000908152610130602052604090205460ff1690565b3480156102c657600080fd5b506101bb6102d536600461256d565b610d5f565b3480156102e657600080fd5b506101bb610d6e565b3480156102fb57600080fd5b5061013861030a36600461241a565b6001600160a01b03166000908152610134602052604090205490565b34801561033257600080fd5b50610212610341366004612640565b610f24565b34801561035257600080fd5b5061016b610361366004612434565b6001600160a01b03918216600090815260fe6020908152604080832093909416825291909152205460ff1690565b34801561039b57600080fd5b5061012f546103b0906001600160a01b031681565b6040516001600160a01b039091168152602001610142565b3480156103d457600080fd5b506101bb6103e336600461250b565b61101b565b60006001600160a01b0383166104585760405162461bcd60e51b815260206004820152602a60248201527f455243313135353a2061646472657373207a65726f206973206e6f742061207660448201526930b634b21037bbb732b960b11b60648201526084015b60405180910390fd5b50600090815260fd602090815260408083206001600160a01b03949094168352929052205490565b60006001600160e01b03198216636cdb3d1360e11b14806104b157506001600160e01b031982166303a24d0760e21b145b806104cc57506301ffc9a760e01b6001600160e01b03198316145b90505b919050565b606060ff80546104e390612d7d565b80601f016020809104026020016040519081016040528092919081815260200182805461050f90612d7d565b801561055c5780601f106105315761010080835404028352916020019161055c565b820191906000526020600020905b81548152906001019060200180831161053f57829003601f168201915b50505050509050919050565b600260015414156105bb5760405162461bcd60e51b815260206004820152601f60248201527f5265656e7472616e637947756172643a207265656e7472616e742063616c6c00604482015260640161044f565b60026001556105c8610b56565b1561060a5760405162461bcd60e51b8152602060048201526012602482015271151c985b9cd858dd1a5b99c814185d5cd95960721b604482015260640161044f565b600181116106665760405162461bcd60e51b815260206004820152602360248201527f496e76616c696420546f204c656e6774682e204d757374206265203e2074686160448201526206e20360ec1b606482015260840161044f565b600061067184611060565b905060006106836080860135846110b9565b90508034146106c95760405162461bcd60e51b8152602060048201526012602482015271496e73756666696369656e742046756e647360701b604482015260640161044f565b60006106d86020870187612b9d565b846040516020016106eb93929190612915565b60408051601f1981840301815291815281516020928301206000818152610133909352912054909150806107405761072861013280546001019055565b50610132546000828152610133602052604090208190555b60005b858110156108265761079b87878381811061076e57634e487b7160e01b600052603260045260246000fd5b9050602002016020810190610783919061241a565b836001604051806020016040528060008152506110c5565b6107a68260016111ea565b8686828181106107c657634e487b7160e01b600052603260045260246000fd5b90506020020160208101906107db919061241a565b6001600160a01b03168860800135837f9abbe2d43ce5c6460b50f15fe34cc22819e299866306d2c6de46b3a5cc05019860405160405180910390a461081f81612de4565b9050610743565b50600082815261013560205260409020546108419086611242565b6000838152610135602052604081209190915561085f84600261124e565b9050600061086d8583611293565b90506108a881610131600061088860608e0160408f0161241a565b6001600160a01b0316815260208101919091526040016000205490611242565b61013160006108bd60608d0160408e0161241a565b6001600160a01b039081168252602080830193909352604091820160009081209490945561012f541683526101319091529020546108fb9083611242565b61012f546001600160a01b0316600090815261013160205260409020556109288660808b013560c861129f565b6001600160a01b0390961660009081526101346020526040902095909555505060018055505050505050565b6001600160a01b03851633148061097057506109708533610361565b61098c5760405162461bcd60e51b815260040161044f90612a2c565b61099985858585856112e1565b5050505050565b61012f546001600160a01b031633146109eb5760405162461bcd60e51b815260206004820152600d60248201526c556e617574686f72697a65642160981b604482015260640161044f565b6109f36114eb565b565b60608151835114610a5a5760405162461bcd60e51b815260206004820152602960248201527f455243313135353a206163636f756e747320616e6420696473206c656e677468604482015268040dad2e6dac2e8c6d60bb1b606482015260840161044f565b600083516001600160401b03811115610a8357634e487b7160e01b600052604160045260246000fd5b604051908082528060200260200182016040528015610aac578160200160208202803683370190505b50905060005b8451811015610b4e57610b13858281518110610ade57634e487b7160e01b600052603260045260246000fd5b6020026020010151858381518110610b0657634e487b7160e01b600052603260045260246000fd5b60200260200101516103e8565b828281518110610b3357634e487b7160e01b600052603260045260246000fd5b6020908102919091010152610b4781612de4565b9050610ab2565b509392505050565b60655460ff165b90565b600080848484604051602001610b7893929190612915565b60408051601f19818403018152918152815160209283012060009081526101359092529020549150505b9392505050565b61012f546001600160a01b03163314610bf45760405162461bcd60e51b815260206004820152600d60248201526c556e617574686f72697a65642160981b604482015260640161044f565b6109f361153d565b600054610100900460ff1615808015610c1c5750600054600160ff909116105b80610c365750303b158015610c36575060005460ff166001145b610c995760405162461bcd60e51b815260206004820152602e60248201527f496e697469616c697a61626c653a20636f6e747261637420697320616c72656160448201526d191e481a5b9a5d1a585b1a5e995960921b606482015260840161044f565b6000805460ff191660011790558015610cbc576000805461ff0019166101001790555b610cc461157a565b610ccc6115a9565b610ced6040518060800160405280604f8152602001612eea604f91396115d8565b610cf7838361160b565b61012f80546001600160a01b0319166001600160a01b0386161790558015610d59576000805461ff0019169055604051600181527f7f26b83ff96e1f2b6a682f133852f6798a09c465da95921460cefb38474024989060200160405180910390a15b50505050565b610d6a33838361163c565b5050565b60026001541415610dc15760405162461bcd60e51b815260206004820152601f60248201527f5265656e7472616e637947756172643a207265656e7472616e742063616c6c00604482015260640161044f565b6002600155610dce610b56565b1580610de5575061012f546001600160a01b031633145b610e265760405162461bcd60e51b8152602060048201526012602482015271151c985b9cd858dd1a5b99c814185d5cd95960721b604482015260640161044f565b336000908152610131602052604090205480610e7b5760405162461bcd60e51b81526020600482015260146024820152732737ba3434b733903a37903bb4ba34323930bb9760611b604482015260640161044f565b604051600090339083908381818185875af1925050503d8060008114610ebd576040519150601f19603f3d011682016040523d82523d6000602084013e610ec2565b606091505b5050905080610f0b5760405162461bcd60e51b815260206004820152601560248201527429b7b6b2ba3434b733903bb2b73a103bb937b7339760591b604482015260640161044f565b5050336000908152610131602052604081205560018055565b60606000826001600160401b03811115610f4e57634e487b7160e01b600052604160045260246000fd5b604051908082528060200260200182016040528015610f77578160200160208202803683370190505b50905060005b83811015610b4e576101316000868684818110610faa57634e487b7160e01b600052603260045260246000fd5b9050602002016020810190610fbf919061241a565b6001600160a01b03166001600160a01b031681526020019081526020016000205482828151811061100057634e487b7160e01b600052603260045260246000fd5b602090810291909101015261101481612de4565b9050610f7d565b6001600160a01b03851633148061103757506110378533610361565b6110535760405162461bcd60e51b815260040161044f90612a2c565b610999858585858561171d565b60008061106c83611859565b9050610ba28161107f60c0860186612b9d565b8080601f01602080910402602001604051908101604052809392919081815260200183838082843760009201919091525061194a92505050565b6000610ba28284612d47565b6001600160a01b0384166111255760405162461bcd60e51b815260206004820152602160248201527f455243313135353a206d696e7420746f20746865207a65726f206164647265736044820152607360f81b606482015260840161044f565b33600061113185611966565b9050600061113e85611966565b905061114f836000898585896119bf565b600086815260fd602090815260408083206001600160a01b038b16845290915281208054879290611181908490612c04565b909155505060408051878152602081018790526001600160a01b03808a1692600092918716917fc3d58168c5ae7397731d063d5bbf3d657854427343f4c083240f7aacaa2d0f62910160405180910390a46111e183600089898989611a8a565b50505050505050565b60008281526101306020908152604091829020805460ff1916841515908117909155915191825283917fe0abe9435049152fa612635eac4022235b6f5c156ecf799bdac41b11b9fa2211910160405180910390a25050565b6000610ba28284612c04565b60008061127c6112606002600a612c79565b61126b906064612d47565b6112768660646110b9565b90611bf5565b9050600061128a82856110b9565b95945050505050565b6000610ba28284612d66565b60006112d96112b96112b285600a611bf5565b8490611242565b6001600160a01b0386166000908152610134602052604090205490611242565b949350505050565b81518351146113435760405162461bcd60e51b815260206004820152602860248201527f455243313135353a2069647320616e6420616d6f756e7473206c656e677468206044820152670dad2e6dac2e8c6d60c31b606482015260840161044f565b6001600160a01b0384166113695760405162461bcd60e51b815260040161044f90612ac3565b336113788187878787876119bf565b60005b845181101561147d5760008582815181106113a657634e487b7160e01b600052603260045260246000fd5b6020026020010151905060008583815181106113d257634e487b7160e01b600052603260045260246000fd5b602090810291909101810151600084815260fd835260408082206001600160a01b038e1683529093529190912054909150818110156114235760405162461bcd60e51b815260040161044f90612b08565b600083815260fd602090815260408083206001600160a01b038e8116855292528083208585039055908b16825281208054849290611462908490612c04565b925050819055505050508061147690612de4565b905061137b565b50846001600160a01b0316866001600160a01b0316826001600160a01b03167f4a39dc06d4c0dbc64b70af90fd698a233a518aa5d07e595d983b8c0526c8f7fb87876040516114cd9291906129f4565b60405180910390a46114e3818787878787611c01565b505050505050565b6114f3611ccb565b6065805460ff191690557f5db9ee0a495bf2e6ff9c91a7834c1ba4fdd244a5e8aa4e537bd38aeae4b073aa335b6040516001600160a01b03909116815260200160405180910390a1565b611545611d16565b6065805460ff191660011790557f62e78cea01bee320cd4e420270b5ea74000d11b0c9f74754ebdbfc544b05a2586115203390565b600054610100900460ff166115a15760405162461bcd60e51b815260040161044f90612b52565b6109f3611d5e565b600054610100900460ff166115d05760405162461bcd60e51b815260040161044f90612b52565b6109f3611d8b565b600054610100900460ff166115ff5760405162461bcd60e51b815260040161044f90612b52565b61160881611dbe565b50565b600054610100900460ff166116325760405162461bcd60e51b815260040161044f90612b52565b610d6a8282611dee565b816001600160a01b0316836001600160a01b031614156116b05760405162461bcd60e51b815260206004820152602960248201527f455243313135353a2073657474696e6720617070726f76616c20737461747573604482015268103337b91039b2b63360b91b606482015260840161044f565b6001600160a01b03838116600081815260fe6020908152604080832094871680845294825291829020805460ff191686151590811790915591519182527f17307eab39ab6107e8899845ad3d59bd9653f200f220920489ca2b5937696c31910160405180910390a3505050565b6001600160a01b0384166117435760405162461bcd60e51b815260040161044f90612ac3565b33600061174f85611966565b9050600061175c85611966565b905061176c8389898585896119bf565b600086815260fd602090815260408083206001600160a01b038c168452909152902054858110156117af5760405162461bcd60e51b815260040161044f90612b08565b600087815260fd602090815260408083206001600160a01b038d8116855292528083208985039055908a168252812080548892906117ee908490612c04565b909155505060408051888152602081018890526001600160a01b03808b16928c821692918816917fc3d58168c5ae7397731d063d5bbf3d657854427343f4c083240f7aacaa2d0f62910160405180910390a461184e848a8a8a8a8a611a8a565b505050505050505050565b60006104cc7fa7fe1ca9217da6f882979416f6083f74387451d3f0b107b16a28bb3f0a226f6c6118898480612b9d565b604051611897929190612905565b6040519081900390206118ad6020860186612b9d565b6040516118bb929190612905565b60405180910390208560400160208101906118d6919061241a565b866060013587608001358860a0013560405160200161192f9796959493929190968752602087019590955260408601939093526001600160a01b03919091166060850152608084015260a083015260c082015260e00190565b60405160208183030381529060405280519060200120611e2f565b60008060006119598585611e7d565b91509150610b4e81611ec3565b604080516001808252818301909252606091600091906020808301908036833701905050905082816000815181106119ae57634e487b7160e01b600052603260045260246000fd5b602090810291909101015292915050565b60005b83518110156111e157611a0c8482815181106119ee57634e487b7160e01b600052603260045260246000fd5b60200260200101516000908152610130602052604090205460ff1690565b15611a7a576001600160a01b0386161580611a2e57506001600160a01b038516155b611a7a5760405162461bcd60e51b815260206004820152601b60248201527f536f756c626f756e642c204e6f6e2d5472616e7366657261626c650000000000604482015260640161044f565b611a8381612de4565b90506119c2565b6001600160a01b0384163b156114e35760405163f23a6e6160e01b81526001600160a01b0385169063f23a6e6190611ace908990899088908890889060040161299c565b602060405180830381600087803b158015611ae857600080fd5b505af1925050508015611b18575060408051601f3d908101601f19168201909252611b1591810190612765565b60015b611bc557611b24612e2b565b806308c379a01415611b5e5750611b39612e42565b80611b445750611b60565b8060405162461bcd60e51b815260040161044f9190612a19565b505b60405162461bcd60e51b815260206004820152603460248201527f455243313135353a207472616e7366657220746f206e6f6e20455243313135356044820152732932b1b2b4bb32b91034b6b83632b6b2b73a32b960611b606482015260840161044f565b6001600160e01b0319811663f23a6e6160e01b146111e15760405162461bcd60e51b815260040161044f90612a7b565b6000610ba28284612c1c565b6001600160a01b0384163b156114e35760405163bc197c8160e01b81526001600160a01b0385169063bc197c8190611c45908990899088908890889060040161293e565b602060405180830381600087803b158015611c5f57600080fd5b505af1925050508015611c8f575060408051601f3d908101601f19168201909252611c8c91810190612765565b60015b611c9b57611b24612e2b565b6001600160e01b0319811663bc197c8160e01b146111e15760405162461bcd60e51b815260040161044f90612a7b565b611cd3610b56565b6109f35760405162461bcd60e51b815260206004820152601460248201527314185d5cd8589b194e881b9bdd081c185d5cd95960621b604482015260640161044f565b611d1e610b56565b156109f35760405162461bcd60e51b815260206004820152601060248201526f14185d5cd8589b194e881c185d5cd95960821b604482015260640161044f565b600054610100900460ff16611d855760405162461bcd60e51b815260040161044f90612b52565b60018055565b600054610100900460ff16611db25760405162461bcd60e51b815260040161044f90612b52565b6065805460ff19169055565b600054610100900460ff16611de55760405162461bcd60e51b815260040161044f90612b52565b611608816120c6565b600054610100900460ff16611e155760405162461bcd60e51b815260040161044f90612b52565b815160209283012081519190920120609791909155609855565b60006104cc611e3c6120d9565b8360405161190160f01b6020820152602281018390526042810182905260009060620160405160208183030381529060405280519060200120905092915050565b600080825160411415611eb45760208301516040840151606085015160001a611ea887828585612159565b94509450505050611ebc565b506000905060025b9250929050565b6000816004811115611ee557634e487b7160e01b600052602160045260246000fd5b1415611ef057611608565b6001816004811115611f1257634e487b7160e01b600052602160045260246000fd5b1415611f605760405162461bcd60e51b815260206004820152601860248201527f45434453413a20696e76616c6964207369676e61747572650000000000000000604482015260640161044f565b6002816004811115611f8257634e487b7160e01b600052602160045260246000fd5b1415611fd05760405162461bcd60e51b815260206004820152601f60248201527f45434453413a20696e76616c6964207369676e6174757265206c656e67746800604482015260640161044f565b6003816004811115611ff257634e487b7160e01b600052602160045260246000fd5b141561204b5760405162461bcd60e51b815260206004820152602260248201527f45434453413a20696e76616c6964207369676e6174757265202773272076616c604482015261756560f01b606482015260840161044f565b600481600481111561206d57634e487b7160e01b600052602160045260246000fd5b14156116085760405162461bcd60e51b815260206004820152602260248201527f45434453413a20696e76616c6964207369676e6174757265202776272076616c604482015261756560f01b606482015260840161044f565b8051610d6a9060ff906020840190612246565b60006121547f8b73c3c69bb8fe3d512ecc4cf759cc79239f7b179b0ffacaa9a75d522b39400f61210860975490565b6098546040805160208101859052908101839052606081018290524660808201523060a082015260009060c0016040516020818303038152906040528051906020012090509392505050565b905090565b6000807f7fffffffffffffffffffffffffffffff5d576e7357a4501ddfe92f46681b20a0831115612190575060009050600361223d565b8460ff16601b141580156121a857508460ff16601c14155b156121b9575060009050600461223d565b6040805160008082526020820180845289905260ff881692820192909252606081018690526080810185905260019060a0016020604051602081039080840390855afa15801561220d573d6000803e3d6000fd5b5050604051601f1901519150506001600160a01b0381166122365760006001925092505061223d565b9150600090505b94509492505050565b82805461225290612d7d565b90600052602060002090601f01602090048101928261227457600085556122ba565b82601f1061228d57805160ff19168380011785556122ba565b828001600101855582156122ba579182015b828111156122ba57825182559160200191906001019061229f565b506122c69291506122ca565b5090565b5b808211156122c657600081556001016122cb565b80356001600160a01b03811681146104cf57600080fd5b60008083601f840112612307578182fd5b5081356001600160401b0381111561231d578182fd5b6020830191508360208260051b8501011115611ebc57600080fd5b600082601f830112612348578081fd5b8135602061235582612be1565b6040516123628282612db8565b8381528281019150858301600585901b87018401881015612381578586fd5b855b8581101561239f57813584529284019290840190600101612383565b5090979650505050505050565b600082601f8301126123bc578081fd5b81356001600160401b038111156123d5576123d5612e15565b6040516123ec601f8301601f191660200182612db8565b818152846020838601011115612400578283fd5b816020850160208301379081016020019190915292915050565b60006020828403121561242b578081fd5b610ba2826122df565b60008060408385031215612446578081fd5b61244f836122df565b915061245d602084016122df565b90509250929050565b600080600080600060a0868803121561247d578081fd5b612486866122df565b9450612494602087016122df565b935060408601356001600160401b03808211156124af578283fd5b6124bb89838a01612338565b945060608801359150808211156124d0578283fd5b6124dc89838a01612338565b935060808801359150808211156124f1578283fd5b506124fe888289016123ac565b9150509295509295909350565b600080600080600060a08688031215612522578081fd5b61252b866122df565b9450612539602087016122df565b9350604086013592506060860135915060808601356001600160401b03811115612561578182fd5b6124fe888289016123ac565b6000806040838503121561257f578182fd5b612588836122df565b91506020830135801515811461259c578182fd5b809150509250929050565b6000806000606084860312156125bb578283fd5b6125c4846122df565b925060208401356001600160401b03808211156125df578384fd5b6125eb878388016123ac565b93506040860135915080821115612600578283fd5b5061260d868287016123ac565b9150509250925092565b60008060408385031215612629578182fd5b612632836122df565b946020939093013593505050565b60008060208385031215612652578182fd5b82356001600160401b03811115612667578283fd5b612673858286016122f6565b90969095509350505050565b60008060408385031215612691578182fd5b82356001600160401b03808211156126a7578384fd5b818501915085601f8301126126ba578384fd5b813560206126c782612be1565b6040516126d48282612db8565b8381528281019150858301600585901b870184018b10156126f3578889fd5b8896505b8487101561271c57612708816122df565b8352600196909601959183019183016126f7565b5096505086013592505080821115612732578283fd5b5061273f85828601612338565b9150509250929050565b60006020828403121561275a578081fd5b8135610ba281612ed3565b600060208284031215612776578081fd5b8151610ba281612ed3565b600080600060408486031215612795578081fd5b83356001600160401b03808211156127ab578283fd5b818601915086601f8301126127be578283fd5b8135818111156127cc578384fd5b8760208285010111156127dd578384fd5b6020928301955093506127f391860190506122df565b90509250925092565b600080600060408486031215612810578081fd5b83356001600160401b0380821115612826578283fd5b9085019060e08288031215612839578283fd5b9093506020850135908082111561284e578283fd5b5061285b868287016122f6565b9497909650939450505050565b600060208284031215612879578081fd5b5035919050565b6000815180845260208085019450808401835b838110156128af57815187529582019590820190600101612893565b509495945050505050565b60008151808452815b818110156128df576020818501810151868301820152016128c3565b818111156128f05782602083870101525b50601f01601f19169290920160200192915050565b6000828483379101908152919050565b6000838583375060609190911b6bffffffffffffffffffffffff19169101908152601401919050565b6001600160a01b0386811682528516602082015260a06040820181905260009061296a90830186612880565b828103606084015261297c8186612880565b9050828103608084015261299081856128ba565b98975050505050505050565b6001600160a01b03868116825285166020820152604081018490526060810183905260a0608082018190526000906129d6908301846128ba565b979650505050505050565b600060208252610ba26020830184612880565b600060408252612a076040830185612880565b828103602084015261128a8185612880565b600060208252610ba260208301846128ba565b6020808252602f908201527f455243313135353a2063616c6c6572206973206e6f7420746f6b656e206f776e60408201526e195c881b9bdc88185c1c1c9bdd9959608a1b606082015260800190565b60208082526028908201527f455243313135353a204552433131353552656365697665722072656a656374656040820152676420746f6b656e7360c01b606082015260800190565b60208082526025908201527f455243313135353a207472616e7366657220746f20746865207a65726f206164604082015264647265737360d81b606082015260800190565b6020808252602a908201527f455243313135353a20696e73756666696369656e742062616c616e636520666f60408201526939103a3930b739b332b960b11b606082015260800190565b6020808252602b908201527f496e697469616c697a61626c653a20636f6e7472616374206973206e6f74206960408201526a6e697469616c697a696e6760a81b606082015260800190565b6000808335601e19843603018112612bb3578283fd5b8301803591506001600160401b03821115612bcc578283fd5b602001915036819003821315611ebc57600080fd5b60006001600160401b03821115612bfa57612bfa612e15565b5060051b60200190565b60008219821115612c1757612c17612dff565b500190565b600082612c3757634e487b7160e01b81526012600452602481fd5b500490565b80825b6001808611612c4e575061223d565b818704821115612c6057612c60612dff565b80861615612c6d57918102915b9490941c938002612c3f565b6000610ba26000198484600082612c9257506001610ba2565b81612c9f57506000610ba2565b8160018114612cb55760028114612cbf57612cec565b6001915050610ba2565b60ff841115612cd057612cd0612dff565b6001841b915084821115612ce657612ce6612dff565b50610ba2565b5060208310610133831016604e8410600b8410161715612d1f575081810a83811115612d1a57612d1a612dff565b610ba2565b612d2c8484846001612c3c565b808604821115612d3e57612d3e612dff565b02949350505050565b6000816000190483118215151615612d6157612d61612dff565b500290565b600082821015612d7857612d78612dff565b500390565b600181811c90821680612d9157607f821691505b60208210811415612db257634e487b7160e01b600052602260045260246000fd5b50919050565b601f8201601f191681016001600160401b0381118282101715612ddd57612ddd612e15565b6040525050565b6000600019821415612df857612df8612dff565b5060010190565b634e487b7160e01b600052601160045260246000fd5b634e487b7160e01b600052604160045260246000fd5b600060033d1115610b5d57600481823e5160e01c90565b600060443d1015612e5257610b5d565b6040516003193d81016004833e81513d6001600160401b038160248401118184111715612e83575050505050610b5d565b8285019150815181811115612e9d57505050505050610b5d565b843d8701016020828501011115612eb957505050505050610b5d565b612ec860208286010187612db8565b509094505050505090565b6001600160e01b03198116811461160857600080fdfe68747470733a2f2f73746f726167652e676f6f676c65617069732e636f6d2f74687265642d70726f746f636f6c2e61707073706f742e636f6d2f736d6172742d7574696c732f7b69647d2e6a736f6ea2646970667358221220256a4de7cceffbd8f20ab85c7feaccdda7713c4fce5a8e95c9160d532723bdb464736f6c63430008030033",
  "linkReferences": {},
  "deployedLinkReferences": {}
}