{
  "_format": "hh-sol-artifact-1",
  "contractName": "ThredCore",
  "sourceName": "contracts/ThredCore/ThredCore.sol",
  "abi": [
    {
      "anonymous": false,
      "inputs": [
        {
          "indexed": true,
          "internalType": "address",
          "name": "account",
          "type": "address"
        },
        {
          "indexed": true,
          "internalType": "address",
          "name": "operator",
          "type": "address"
        },
        {
          "indexed": false,
          "internalType": "bool",
          "name": "approved",
          "type": "bool"
        }
      ],
      "name": "ApprovalForAll",
      "type": "event"
    },
    {
      "anonymous": false,
      "inputs": [
        {
          "indexed": false,
          "internalType": "uint8",
          "name": "version",
          "type": "uint8"
        }
      ],
      "name": "Initialized",
      "type": "event"
    },
    {
      "anonymous": false,
      "inputs": [
        {
          "indexed": true,
          "internalType": "uint256",
          "name": "tokenId",
          "type": "uint256"
        },
        {
          "indexed": true,
          "internalType": "uint256",
          "name": "price",
          "type": "uint256"
        },
        {
          "indexed": true,
          "internalType": "address",
          "name": "user",
          "type": "address"
        }
      ],
      "name": "Install",
      "type": "event"
    },
    {
      "anonymous": false,
      "inputs": [
        {
          "indexed": false,
          "internalType": "address",
          "name": "account",
          "type": "address"
        }
      ],
      "name": "Paused",
      "type": "event"
    },
    {
      "anonymous": false,
      "inputs": [
        {
          "indexed": true,
          "internalType": "uint256",
          "name": "id",
          "type": "uint256"
        },
        {
          "indexed": false,
          "internalType": "bool",
          "name": "bounded",
          "type": "bool"
        }
      ],
      "name": "Soulbound",
      "type": "event"
    },
    {
      "anonymous": false,
      "inputs": [
        {
          "indexed": true,
          "internalType": "address",
          "name": "operator",
          "type": "address"
        },
        {
          "indexed": true,
          "internalType": "address",
          "name": "from",
          "type": "address"
        },
        {
          "indexed": true,
          "internalType": "address",
          "name": "to",
          "type": "address"
        },
        {
          "indexed": false,
          "internalType": "uint256[]",
          "name": "ids",
          "type": "uint256[]"
        },
        {
          "indexed": false,
          "internalType": "uint256[]",
          "name": "values",
          "type": "uint256[]"
        }
      ],
      "name": "TransferBatch",
      "type": "event"
    },
    {
      "anonymous": false,
      "inputs": [
        {
          "indexed": true,
          "internalType": "address",
          "name": "operator",
          "type": "address"
        },
        {
          "indexed": true,
          "internalType": "address",
          "name": "from",
          "type": "address"
        },
        {
          "indexed": true,
          "internalType": "address",
          "name": "to",
          "type": "address"
        },
        {
          "indexed": false,
          "internalType": "uint256",
          "name": "id",
          "type": "uint256"
        },
        {
          "indexed": false,
          "internalType": "uint256",
          "name": "value",
          "type": "uint256"
        }
      ],
      "name": "TransferSingle",
      "type": "event"
    },
    {
      "anonymous": false,
      "inputs": [
        {
          "indexed": false,
          "internalType": "string",
          "name": "value",
          "type": "string"
        },
        {
          "indexed": true,
          "internalType": "uint256",
          "name": "id",
          "type": "uint256"
        }
      ],
      "name": "URI",
      "type": "event"
    },
    {
      "anonymous": false,
      "inputs": [
        {
          "indexed": false,
          "internalType": "address",
          "name": "account",
          "type": "address"
        }
      ],
      "name": "Unpaused",
      "type": "event"
    },
    {
      "inputs": [
        {
          "internalType": "address",
          "name": "account",
          "type": "address"
        },
        {
          "internalType": "uint256",
          "name": "id",
          "type": "uint256"
        }
      ],
      "name": "balanceOf",
      "outputs": [
        {
          "internalType": "uint256",
          "name": "",
          "type": "uint256"
        }
      ],
      "stateMutability": "view",
      "type": "function"
    },
    {
      "inputs": [
        {
          "internalType": "address[]",
          "name": "accounts",
          "type": "address[]"
        },
        {
          "internalType": "uint256[]",
          "name": "ids",
          "type": "uint256[]"
        }
      ],
      "name": "balanceOfBatch",
      "outputs": [
        {
          "internalType": "uint256[]",
          "name": "",
          "type": "uint256[]"
        }
      ],
      "stateMutability": "view",
      "type": "function"
    },
    {
      "inputs": [
        {
          "components": [
            {
              "internalType": "string",
              "name": "name",
              "type": "string"
            },
            {
              "internalType": "string",
              "name": "id",
              "type": "string"
            },
            {
              "internalType": "address",
              "name": "pay_address",
              "type": "address"
            },
            {
              "internalType": "uint256",
              "name": "category",
              "type": "uint256"
            },
            {
              "internalType": "uint256",
              "name": "price",
              "type": "uint256"
            },
            {
              "internalType": "uint256",
              "name": "created",
              "type": "uint256"
            },
            {
              "internalType": "uint256",
              "name": "modified",
              "type": "uint256"
            },
            {
              "internalType": "bytes",
              "name": "signature",
              "type": "bytes"
            }
          ],
          "internalType": "struct ThredCore.SmartUtil",
          "name": "util",
          "type": "tuple"
        },
        {
          "internalType": "address[]",
          "name": "to",
          "type": "address[]"
        }
      ],
      "name": "buySmartUtil",
      "outputs": [],
      "stateMutability": "payable",
      "type": "function"
    },
    {
      "inputs": [],
      "name": "deployerAddress",
      "outputs": [
        {
          "internalType": "address",
          "name": "",
          "type": "address"
        }
      ],
      "stateMutability": "view",
      "type": "function"
    },
    {
      "inputs": [
        {
          "internalType": "string",
          "name": "id",
          "type": "string"
        },
        {
          "internalType": "address",
          "name": "creator",
          "type": "address"
        }
      ],
      "name": "fetchDownloads",
      "outputs": [
        {
          "internalType": "uint256",
          "name": "",
          "type": "uint256"
        }
      ],
      "stateMutability": "view",
      "type": "function"
    },
    {
      "inputs": [
        {
          "internalType": "address[]",
          "name": "payoutAddresses",
          "type": "address[]"
        }
      ],
      "name": "fetchPayouts",
      "outputs": [
        {
          "internalType": "uint256[]",
          "name": "",
          "type": "uint256[]"
        }
      ],
      "stateMutability": "view",
      "type": "function"
    },
    {
      "inputs": [
        {
          "internalType": "address",
          "name": "user",
          "type": "address"
        }
      ],
      "name": "fetchRep",
      "outputs": [
        {
          "internalType": "uint256",
          "name": "",
          "type": "uint256"
        }
      ],
      "stateMutability": "view",
      "type": "function"
    },
    {
      "inputs": [
        {
          "internalType": "address",
          "name": "owner",
          "type": "address"
        },
        {
          "internalType": "string",
          "name": "domain",
          "type": "string"
        },
        {
          "internalType": "string",
          "name": "version",
          "type": "string"
        }
      ],
      "name": "initialize",
      "outputs": [],
      "stateMutability": "nonpayable",
      "type": "function"
    },
    {
      "inputs": [
        {
          "internalType": "address",
          "name": "account",
          "type": "address"
        },
        {
          "internalType": "address",
          "name": "operator",
          "type": "address"
        }
      ],
      "name": "isApprovedForAll",
      "outputs": [
        {
          "internalType": "bool",
          "name": "",
          "type": "bool"
        }
      ],
      "stateMutability": "view",
      "type": "function"
    },
    {
      "inputs": [
        {
          "internalType": "uint256",
          "name": "id",
          "type": "uint256"
        }
      ],
      "name": "isSoulbound",
      "outputs": [
        {
          "internalType": "bool",
          "name": "",
          "type": "bool"
        }
      ],
      "stateMutability": "view",
      "type": "function"
    },
    {
      "inputs": [],
      "name": "pause",
      "outputs": [],
      "stateMutability": "nonpayable",
      "type": "function"
    },
    {
      "inputs": [],
      "name": "paused",
      "outputs": [
        {
          "internalType": "bool",
          "name": "",
          "type": "bool"
        }
      ],
      "stateMutability": "view",
      "type": "function"
    },
    {
      "inputs": [
        {
          "internalType": "address",
          "name": "from",
          "type": "address"
        },
        {
          "internalType": "address",
          "name": "to",
          "type": "address"
        },
        {
          "internalType": "uint256[]",
          "name": "ids",
          "type": "uint256[]"
        },
        {
          "internalType": "uint256[]",
          "name": "amounts",
          "type": "uint256[]"
        },
        {
          "internalType": "bytes",
          "name": "data",
          "type": "bytes"
        }
      ],
      "name": "safeBatchTransferFrom",
      "outputs": [],
      "stateMutability": "nonpayable",
      "type": "function"
    },
    {
      "inputs": [
        {
          "internalType": "address",
          "name": "from",
          "type": "address"
        },
        {
          "internalType": "address",
          "name": "to",
          "type": "address"
        },
        {
          "internalType": "uint256",
          "name": "id",
          "type": "uint256"
        },
        {
          "internalType": "uint256",
          "name": "amount",
          "type": "uint256"
        },
        {
          "internalType": "bytes",
          "name": "data",
          "type": "bytes"
        }
      ],
      "name": "safeTransferFrom",
      "outputs": [],
      "stateMutability": "nonpayable",
      "type": "function"
    },
    {
      "inputs": [
        {
          "internalType": "address",
          "name": "operator",
          "type": "address"
        },
        {
          "internalType": "bool",
          "name": "approved",
          "type": "bool"
        }
      ],
      "name": "setApprovalForAll",
      "outputs": [],
      "stateMutability": "nonpayable",
      "type": "function"
    },
    {
      "inputs": [
        {
          "internalType": "bytes4",
          "name": "interfaceId",
          "type": "bytes4"
        }
      ],
      "name": "supportsInterface",
      "outputs": [
        {
          "internalType": "bool",
          "name": "",
          "type": "bool"
        }
      ],
      "stateMutability": "view",
      "type": "function"
    },
    {
      "inputs": [],
      "name": "unpause",
      "outputs": [],
      "stateMutability": "nonpayable",
      "type": "function"
    },
    {
      "inputs": [
        {
          "internalType": "uint256",
          "name": "",
          "type": "uint256"
        }
      ],
      "name": "uri",
      "outputs": [
        {
          "internalType": "string",
          "name": "",
          "type": "string"
        }
      ],
      "stateMutability": "view",
      "type": "function"
    },
    {
      "inputs": [],
      "name": "withDrawFunds",
      "outputs": [],
      "stateMutability": "nonpayable",
      "type": "function"
    }
  ],
  "bytecode": "0x608060405234801561001057600080fd5b50612f7b806100206000396000f3fe6080604052600436106101135760003560e01c806390657147116100a0578063bbedeb1f11610064578063bbedeb1f146102ef578063d7dc43a514610326578063e985e9c514610346578063efdee94f1461038f578063f242432a146103c857610113565b80639065714714610256578063911ec47014610276578063a22cb465146102a7578063a80662b1146102c7578063b78da386146102da57610113565b80633f4ba83a116100e75780633f4ba83a146101ca5780634e1273f4146101df5780635c975abb1461020c578063608595b5146102215780638456cb591461024157610113565b8062fdd58e1461011857806301ffc9a71461014b5780630e89341c1461017b5780632eb2c2d6146101a8575b600080fd5b34801561012457600080fd5b50610138610133366004612623565b6103e8565b6040519081526020015b60405180910390f35b34801561015757600080fd5b5061016b610166366004612755565b610480565b6040519015158152602001610142565b34801561018757600080fd5b5061019b610196366004612875565b6104d4565b6040516101429190612a26565b3480156101b457600080fd5b506101c86101c3366004612472565b610568565b005b3480156101d657600080fd5b506101c86105b4565b3480156101eb57600080fd5b506101ff6101fa36600461268b565b610609565b60405161014291906129ee565b34801561021857600080fd5b5061016b61076a565b34801561022d57600080fd5b5061013861023c36600461278d565b610774565b34801561024d57600080fd5b506101c86107bd565b34801561026257600080fd5b506101c86102713660046125b3565b610810565b34801561028257600080fd5b5061016b610291366004612875565b6000908152610130602052604090205460ff1690565b3480156102b357600080fd5b506101c86102c2366004612579565b610973565b6101c86102d5366004612808565b610982565b3480156102e657600080fd5b506101c8610d6e565b3480156102fb57600080fd5b5061013861030a366004612426565b6001600160a01b03166000908152610134602052604090205490565b34801561033257600080fd5b506101ff61034136600461264c565b610f24565b34801561035257600080fd5b5061016b610361366004612440565b6001600160a01b03918216600090815260fe6020908152604080832093909416825291909152205460ff1690565b34801561039b57600080fd5b5061012f546103b0906001600160a01b031681565b6040516001600160a01b039091168152602001610142565b3480156103d457600080fd5b506101c86103e3366004612517565b61101b565b60006001600160a01b0383166104585760405162461bcd60e51b815260206004820152602a60248201527f455243313135353a2061646472657373207a65726f206973206e6f742061207660448201526930b634b21037bbb732b960b11b60648201526084015b60405180910390fd5b50600090815260fd602090815260408083206001600160a01b03949094168352929052205490565b60006001600160e01b03198216636cdb3d1360e11b14806104b157506001600160e01b031982166303a24d0760e21b145b806104cc57506301ffc9a760e01b6001600160e01b03198316145b90505b919050565b606060ff80546104e390612d8a565b80601f016020809104026020016040519081016040528092919081815260200182805461050f90612d8a565b801561055c5780601f106105315761010080835404028352916020019161055c565b820191906000526020600020905b81548152906001019060200180831161053f57829003601f168201915b50505050509050919050565b6001600160a01b03851633148061058457506105848533610361565b6105a05760405162461bcd60e51b815260040161044f90612a39565b6105ad8585858585611060565b5050505050565b61012f546001600160a01b031633146105ff5760405162461bcd60e51b815260206004820152600d60248201526c556e617574686f72697a65642160981b604482015260640161044f565b61060761126a565b565b6060815183511461066e5760405162461bcd60e51b815260206004820152602960248201527f455243313135353a206163636f756e747320616e6420696473206c656e677468604482015268040dad2e6dac2e8c6d60bb1b606482015260840161044f565b600083516001600160401b0381111561069757634e487b7160e01b600052604160045260246000fd5b6040519080825280602002602001820160405280156106c0578160200160208202803683370190505b50905060005b8451811015610762576107278582815181106106f257634e487b7160e01b600052603260045260246000fd5b602002602001015185838151811061071a57634e487b7160e01b600052603260045260246000fd5b60200260200101516103e8565b82828151811061074757634e487b7160e01b600052603260045260246000fd5b602090810291909101015261075b81612df1565b90506106c6565b509392505050565b60655460ff165b90565b60008084848460405160200161078c93929190612922565b60408051601f19818403018152918152815160209283012060009081526101359092529020549150505b9392505050565b61012f546001600160a01b031633146108085760405162461bcd60e51b815260206004820152600d60248201526c556e617574686f72697a65642160981b604482015260640161044f565b6106076112bc565b600054610100900460ff16158080156108305750600054600160ff909116105b8061084a5750303b15801561084a575060005460ff166001145b6108ad5760405162461bcd60e51b815260206004820152602e60248201527f496e697469616c697a61626c653a20636f6e747261637420697320616c72656160448201526d191e481a5b9a5d1a585b1a5e995960921b606482015260840161044f565b6000805460ff1916600117905580156108d0576000805461ff0019166101001790555b6108d86112f9565b6108e0611328565b6109016040518060800160405280604f8152602001612ef7604f9139611357565b61090b838361138a565b61012f80546001600160a01b0319166001600160a01b038616179055801561096d576000805461ff0019169055604051600181527f7f26b83ff96e1f2b6a682f133852f6798a09c465da95921460cefb38474024989060200160405180910390a15b50505050565b61097e3383836113bb565b5050565b600260015414156109d55760405162461bcd60e51b815260206004820152601f60248201527f5265656e7472616e637947756172643a207265656e7472616e742063616c6c00604482015260640161044f565b60026001556109e261076a565b15610a245760405162461bcd60e51b8152602060048201526012602482015271151c985b9cd858dd1a5b99c814185d5cd95960721b604482015260640161044f565b60018111610a805760405162461bcd60e51b815260206004820152602360248201527f496e76616c696420546f204c656e6774682e204d757374206265203e2074686160448201526206e20360ec1b606482015260840161044f565b6000610a8b8461149c565b90506000610a9d6080860135846114f5565b9050803414610ae35760405162461bcd60e51b8152602060048201526012602482015271496e73756666696369656e742046756e647360701b604482015260640161044f565b6000610af26020870187612baa565b84604051602001610b0593929190612922565b60408051601f198184030181529181528151602092830120600081815261013390935291205490915080610b5a57610b4261013280546001019055565b50610132546000828152610133602052604090208190555b60005b85811015610c4057610bb5878783818110610b8857634e487b7160e01b600052603260045260246000fd5b9050602002016020810190610b9d9190612426565b83600160405180602001604052806000815250611501565b610bc0826001611626565b868682818110610be057634e487b7160e01b600052603260045260246000fd5b9050602002016020810190610bf59190612426565b6001600160a01b03168860800135837f9abbe2d43ce5c6460b50f15fe34cc22819e299866306d2c6de46b3a5cc05019860405160405180910390a4610c3981612df1565b9050610b5d565b5060008281526101356020526040902054610c5b908661167e565b60008381526101356020526040812091909155610c7984600261168a565b90506000610c8785836116cf565b9050610cc2816101316000610ca260608e0160408f01612426565b6001600160a01b031681526020810191909152604001600020549061167e565b6101316000610cd760608d0160408e01612426565b6001600160a01b039081168252602080830193909352604091820160009081209490945561012f54168352610131909152902054610d15908361167e565b61012f546001600160a01b031660009081526101316020526040902055610d428660808b013560c86116db565b6001600160a01b0390961660009081526101346020526040902095909555505060018055505050505050565b60026001541415610dc15760405162461bcd60e51b815260206004820152601f60248201527f5265656e7472616e637947756172643a207265656e7472616e742063616c6c00604482015260640161044f565b6002600155610dce61076a565b1580610de5575061012f546001600160a01b031633145b610e265760405162461bcd60e51b8152602060048201526012602482015271151c985b9cd858dd1a5b99c814185d5cd95960721b604482015260640161044f565b336000908152610131602052604090205480610e7b5760405162461bcd60e51b81526020600482015260146024820152732737ba3434b733903a37903bb4ba34323930bb9760611b604482015260640161044f565b604051600090339083908381818185875af1925050503d8060008114610ebd576040519150601f19603f3d011682016040523d82523d6000602084013e610ec2565b606091505b5050905080610f0b5760405162461bcd60e51b815260206004820152601560248201527429b7b6b2ba3434b733903bb2b73a103bb937b7339760591b604482015260640161044f565b5050336000908152610131602052604081205560018055565b60606000826001600160401b03811115610f4e57634e487b7160e01b600052604160045260246000fd5b604051908082528060200260200182016040528015610f77578160200160208202803683370190505b50905060005b83811015610762576101316000868684818110610faa57634e487b7160e01b600052603260045260246000fd5b9050602002016020810190610fbf9190612426565b6001600160a01b03166001600160a01b031681526020019081526020016000205482828151811061100057634e487b7160e01b600052603260045260246000fd5b602090810291909101015261101481612df1565b9050610f7d565b6001600160a01b03851633148061103757506110378533610361565b6110535760405162461bcd60e51b815260040161044f90612a39565b6105ad858585858561171d565b81518351146110c25760405162461bcd60e51b815260206004820152602860248201527f455243313135353a2069647320616e6420616d6f756e7473206c656e677468206044820152670dad2e6dac2e8c6d60c31b606482015260840161044f565b6001600160a01b0384166110e85760405162461bcd60e51b815260040161044f90612ad0565b336110f7818787878787611859565b60005b84518110156111fc57600085828151811061112557634e487b7160e01b600052603260045260246000fd5b60200260200101519050600085838151811061115157634e487b7160e01b600052603260045260246000fd5b602090810291909101810151600084815260fd835260408082206001600160a01b038e1683529093529190912054909150818110156111a25760405162461bcd60e51b815260040161044f90612b15565b600083815260fd602090815260408083206001600160a01b038e8116855292528083208585039055908b168252812080548492906111e1908490612c11565b92505081905550505050806111f590612df1565b90506110fa565b50846001600160a01b0316866001600160a01b0316826001600160a01b03167f4a39dc06d4c0dbc64b70af90fd698a233a518aa5d07e595d983b8c0526c8f7fb878760405161124c929190612a01565b60405180910390a4611262818787878787611924565b505050505050565b611272611a8f565b6065805460ff191690557f5db9ee0a495bf2e6ff9c91a7834c1ba4fdd244a5e8aa4e537bd38aeae4b073aa335b6040516001600160a01b03909116815260200160405180910390a1565b6112c4611ada565b6065805460ff191660011790557f62e78cea01bee320cd4e420270b5ea74000d11b0c9f74754ebdbfc544b05a25861129f3390565b600054610100900460ff166113205760405162461bcd60e51b815260040161044f90612b5f565b610607611b22565b600054610100900460ff1661134f5760405162461bcd60e51b815260040161044f90612b5f565b610607611b4f565b600054610100900460ff1661137e5760405162461bcd60e51b815260040161044f90612b5f565b61138781611b82565b50565b600054610100900460ff166113b15760405162461bcd60e51b815260040161044f90612b5f565b61097e8282611bb2565b816001600160a01b0316836001600160a01b0316141561142f5760405162461bcd60e51b815260206004820152602960248201527f455243313135353a2073657474696e6720617070726f76616c20737461747573604482015268103337b91039b2b63360b91b606482015260840161044f565b6001600160a01b03838116600081815260fe6020908152604080832094871680845294825291829020805460ff191686151590811790915591519182527f17307eab39ab6107e8899845ad3d59bd9653f200f220920489ca2b5937696c31910160405180910390a3505050565b6000806114a883611bf3565b90506107b6816114bb60e0860186612baa565b8080601f016020809104026020016040519081016040528093929190818152602001838380828437600092019190915250611cf092505050565b60006107b68284612d54565b6001600160a01b0384166115615760405162461bcd60e51b815260206004820152602160248201527f455243313135353a206d696e7420746f20746865207a65726f206164647265736044820152607360f81b606482015260840161044f565b33600061156d85611d0c565b9050600061157a85611d0c565b905061158b83600089858589611859565b600086815260fd602090815260408083206001600160a01b038b168452909152812080548792906115bd908490612c11565b909155505060408051878152602081018790526001600160a01b03808a1692600092918716917fc3d58168c5ae7397731d063d5bbf3d657854427343f4c083240f7aacaa2d0f62910160405180910390a461161d83600089898989611d65565b50505050505050565b60008281526101306020908152604091829020805460ff1916841515908117909155915191825283917fe0abe9435049152fa612635eac4022235b6f5c156ecf799bdac41b11b9fa2211910160405180910390a25050565b60006107b68284612c11565b6000806116b861169c6002600a612c86565b6116a7906064612d54565b6116b28660646114f5565b90611e2f565b905060006116c682856114f5565b95945050505050565b60006107b68284612d73565b60006117156116f56116ee85600a611e2f565b849061167e565b6001600160a01b038616600090815261013460205260409020549061167e565b949350505050565b6001600160a01b0384166117435760405162461bcd60e51b815260040161044f90612ad0565b33600061174f85611d0c565b9050600061175c85611d0c565b905061176c838989858589611859565b600086815260fd602090815260408083206001600160a01b038c168452909152902054858110156117af5760405162461bcd60e51b815260040161044f90612b15565b600087815260fd602090815260408083206001600160a01b038d8116855292528083208985039055908a168252812080548892906117ee908490612c11565b909155505060408051888152602081018890526001600160a01b03808b16928c821692918816917fc3d58168c5ae7397731d063d5bbf3d657854427343f4c083240f7aacaa2d0f62910160405180910390a461184e848a8a8a8a8a611d65565b505050505050505050565b60005b835181101561161d576118a684828151811061188857634e487b7160e01b600052603260045260246000fd5b60200260200101516000908152610130602052604090205460ff1690565b15611914576001600160a01b03861615806118c857506001600160a01b038516155b6119145760405162461bcd60e51b815260206004820152601b60248201527f536f756c626f756e642c204e6f6e2d5472616e7366657261626c650000000000604482015260640161044f565b61191d81612df1565b905061185c565b6001600160a01b0384163b156112625760405163bc197c8160e01b81526001600160a01b0385169063bc197c8190611968908990899088908890889060040161294b565b602060405180830381600087803b15801561198257600080fd5b505af19250505080156119b2575060408051601f3d908101601f191682019092526119af91810190612771565b60015b611a5f576119be612e38565b806308c379a014156119f857506119d3612e4f565b806119de57506119fa565b8060405162461bcd60e51b815260040161044f9190612a26565b505b60405162461bcd60e51b815260206004820152603460248201527f455243313135353a207472616e7366657220746f206e6f6e20455243313135356044820152732932b1b2b4bb32b91034b6b83632b6b2b73a32b960611b606482015260840161044f565b6001600160e01b0319811663bc197c8160e01b1461161d5760405162461bcd60e51b815260040161044f90612a88565b611a9761076a565b6106075760405162461bcd60e51b815260206004820152601460248201527314185d5cd8589b194e881b9bdd081c185d5cd95960621b604482015260640161044f565b611ae261076a565b156106075760405162461bcd60e51b815260206004820152601060248201526f14185d5cd8589b194e881c185d5cd95960821b604482015260640161044f565b600054610100900460ff16611b495760405162461bcd60e51b815260040161044f90612b5f565b60018055565b600054610100900460ff16611b765760405162461bcd60e51b815260040161044f90612b5f565b6065805460ff19169055565b600054610100900460ff16611ba95760405162461bcd60e51b815260040161044f90612b5f565b61138781611e3b565b600054610100900460ff16611bd95760405162461bcd60e51b815260040161044f90612b5f565b815160209283012081519190920120609791909155609855565b60006104cc7fc55f62129e0cc199e728b21213b6ff1e68e83d4365c320ade50ff25e2659ddbb611c238480612baa565b604051611c31929190612912565b604051908190039020611c476020860186612baa565b604051611c55929190612912565b6040518091039020856040016020810190611c709190612426565b866060013587608001358860a001358960c00135604051602001611cd5989796959493929190978852602088019690965260408701949094526001600160a01b03929092166060860152608085015260a084015260c083015260e08201526101000190565b60405160208183030381529060405280519060200120611e4e565b6000806000611cff8585611e9c565b9150915061076281611ee2565b60408051600180825281830190925260609160009190602080830190803683370190505090508281600081518110611d5457634e487b7160e01b600052603260045260246000fd5b602090810291909101015292915050565b6001600160a01b0384163b156112625760405163f23a6e6160e01b81526001600160a01b0385169063f23a6e6190611da990899089908890889088906004016129a9565b602060405180830381600087803b158015611dc357600080fd5b505af1925050508015611df3575060408051601f3d908101601f19168201909252611df091810190612771565b60015b611dff576119be612e38565b6001600160e01b0319811663f23a6e6160e01b1461161d5760405162461bcd60e51b815260040161044f90612a88565b60006107b68284612c29565b805161097e9060ff906020840190612252565b60006104cc611e5b6120e5565b8360405161190160f01b6020820152602281018390526042810182905260009060620160405160208183030381529060405280519060200120905092915050565b600080825160411415611ed35760208301516040840151606085015160001a611ec787828585612165565b94509450505050611edb565b506000905060025b9250929050565b6000816004811115611f0457634e487b7160e01b600052602160045260246000fd5b1415611f0f57611387565b6001816004811115611f3157634e487b7160e01b600052602160045260246000fd5b1415611f7f5760405162461bcd60e51b815260206004820152601860248201527f45434453413a20696e76616c6964207369676e61747572650000000000000000604482015260640161044f565b6002816004811115611fa157634e487b7160e01b600052602160045260246000fd5b1415611fef5760405162461bcd60e51b815260206004820152601f60248201527f45434453413a20696e76616c6964207369676e6174757265206c656e67746800604482015260640161044f565b600381600481111561201157634e487b7160e01b600052602160045260246000fd5b141561206a5760405162461bcd60e51b815260206004820152602260248201527f45434453413a20696e76616c6964207369676e6174757265202773272076616c604482015261756560f01b606482015260840161044f565b600481600481111561208c57634e487b7160e01b600052602160045260246000fd5b14156113875760405162461bcd60e51b815260206004820152602260248201527f45434453413a20696e76616c6964207369676e6174757265202776272076616c604482015261756560f01b606482015260840161044f565b60006121607f8b73c3c69bb8fe3d512ecc4cf759cc79239f7b179b0ffacaa9a75d522b39400f61211460975490565b6098546040805160208101859052908101839052606081018290524660808201523060a082015260009060c0016040516020818303038152906040528051906020012090509392505050565b905090565b6000807f7fffffffffffffffffffffffffffffff5d576e7357a4501ddfe92f46681b20a083111561219c5750600090506003612249565b8460ff16601b141580156121b457508460ff16601c14155b156121c55750600090506004612249565b6040805160008082526020820180845289905260ff881692820192909252606081018690526080810185905260019060a0016020604051602081039080840390855afa158015612219573d6000803e3d6000fd5b5050604051601f1901519150506001600160a01b03811661224257600060019250925050612249565b9150600090505b94509492505050565b82805461225e90612d8a565b90600052602060002090601f01602090048101928261228057600085556122c6565b82601f1061229957805160ff19168380011785556122c6565b828001600101855582156122c6579182015b828111156122c65782518255916020019190600101906122ab565b506122d29291506122d6565b5090565b5b808211156122d257600081556001016122d7565b80356001600160a01b03811681146104cf57600080fd5b60008083601f840112612313578182fd5b5081356001600160401b03811115612329578182fd5b6020830191508360208260051b8501011115611edb57600080fd5b600082601f830112612354578081fd5b8135602061236182612bee565b60405161236e8282612dc5565b8381528281019150858301600585901b8701840188101561238d578586fd5b855b858110156123ab5781358452928401929084019060010161238f565b5090979650505050505050565b600082601f8301126123c8578081fd5b81356001600160401b038111156123e1576123e1612e22565b6040516123f8601f8301601f191660200182612dc5565b81815284602083860101111561240c578283fd5b816020850160208301379081016020019190915292915050565b600060208284031215612437578081fd5b6107b6826122eb565b60008060408385031215612452578081fd5b61245b836122eb565b9150612469602084016122eb565b90509250929050565b600080600080600060a08688031215612489578081fd5b612492866122eb565b94506124a0602087016122eb565b935060408601356001600160401b03808211156124bb578283fd5b6124c789838a01612344565b945060608801359150808211156124dc578283fd5b6124e889838a01612344565b935060808801359150808211156124fd578283fd5b5061250a888289016123b8565b9150509295509295909350565b600080600080600060a0868803121561252e578081fd5b612537866122eb565b9450612545602087016122eb565b9350604086013592506060860135915060808601356001600160401b0381111561256d578182fd5b61250a888289016123b8565b6000806040838503121561258b578182fd5b612594836122eb565b9150602083013580151581146125a8578182fd5b809150509250929050565b6000806000606084860312156125c7578283fd5b6125d0846122eb565b925060208401356001600160401b03808211156125eb578384fd5b6125f7878388016123b8565b9350604086013591508082111561260c578283fd5b50612619868287016123b8565b9150509250925092565b60008060408385031215612635578182fd5b61263e836122eb565b946020939093013593505050565b6000806020838503121561265e578182fd5b82356001600160401b03811115612673578283fd5b61267f85828601612302565b90969095509350505050565b6000806040838503121561269d578182fd5b82356001600160401b03808211156126b3578384fd5b818501915085601f8301126126c6578384fd5b813560206126d382612bee565b6040516126e08282612dc5565b8381528281019150858301600585901b870184018b10156126ff578889fd5b8896505b8487101561272857612714816122eb565b835260019690960195918301918301612703565b509650508601359250508082111561273e578283fd5b5061274b85828601612344565b9150509250929050565b600060208284031215612766578081fd5b81356107b681612ee0565b600060208284031215612782578081fd5b81516107b681612ee0565b6000806000604084860312156127a1578081fd5b83356001600160401b03808211156127b7578283fd5b818601915086601f8301126127ca578283fd5b8135818111156127d8578384fd5b8760208285010111156127e9578384fd5b6020928301955093506127ff91860190506122eb565b90509250925092565b60008060006040848603121561281c578081fd5b83356001600160401b0380821115612832578283fd5b908501906101008288031215612846578283fd5b9093506020850135908082111561285b578283fd5b5061286886828701612302565b9497909650939450505050565b600060208284031215612886578081fd5b5035919050565b6000815180845260208085019450808401835b838110156128bc578151875295820195908201906001016128a0565b509495945050505050565b60008151808452815b818110156128ec576020818501810151868301820152016128d0565b818111156128fd5782602083870101525b50601f01601f19169290920160200192915050565b6000828483379101908152919050565b6000838583375060609190911b6bffffffffffffffffffffffff19169101908152601401919050565b6001600160a01b0386811682528516602082015260a0604082018190526000906129779083018661288d565b8281036060840152612989818661288d565b9050828103608084015261299d81856128c7565b98975050505050505050565b6001600160a01b03868116825285166020820152604081018490526060810183905260a0608082018190526000906129e3908301846128c7565b979650505050505050565b6000602082526107b6602083018461288d565b600060408252612a14604083018561288d565b82810360208401526116c6818561288d565b6000602082526107b660208301846128c7565b6020808252602f908201527f455243313135353a2063616c6c6572206973206e6f7420746f6b656e206f776e60408201526e195c881b9bdc88185c1c1c9bdd9959608a1b606082015260800190565b60208082526028908201527f455243313135353a204552433131353552656365697665722072656a656374656040820152676420746f6b656e7360c01b606082015260800190565b60208082526025908201527f455243313135353a207472616e7366657220746f20746865207a65726f206164604082015264647265737360d81b606082015260800190565b6020808252602a908201527f455243313135353a20696e73756666696369656e742062616c616e636520666f60408201526939103a3930b739b332b960b11b606082015260800190565b6020808252602b908201527f496e697469616c697a61626c653a20636f6e7472616374206973206e6f74206960408201526a6e697469616c697a696e6760a81b606082015260800190565b6000808335601e19843603018112612bc0578283fd5b8301803591506001600160401b03821115612bd9578283fd5b602001915036819003821315611edb57600080fd5b60006001600160401b03821115612c0757612c07612e22565b5060051b60200190565b60008219821115612c2457612c24612e0c565b500190565b600082612c4457634e487b7160e01b81526012600452602481fd5b500490565b80825b6001808611612c5b5750612249565b818704821115612c6d57612c6d612e0c565b80861615612c7a57918102915b9490941c938002612c4c565b60006107b66000198484600082612c9f575060016107b6565b81612cac575060006107b6565b8160018114612cc25760028114612ccc57612cf9565b60019150506107b6565b60ff841115612cdd57612cdd612e0c565b6001841b915084821115612cf357612cf3612e0c565b506107b6565b5060208310610133831016604e8410600b8410161715612d2c575081810a83811115612d2757612d27612e0c565b6107b6565b612d398484846001612c49565b808604821115612d4b57612d4b612e0c565b02949350505050565b6000816000190483118215151615612d6e57612d6e612e0c565b500290565b600082821015612d8557612d85612e0c565b500390565b600181811c90821680612d9e57607f821691505b60208210811415612dbf57634e487b7160e01b600052602260045260246000fd5b50919050565b601f8201601f191681016001600160401b0381118282101715612dea57612dea612e22565b6040525050565b6000600019821415612e0557612e05612e0c565b5060010190565b634e487b7160e01b600052601160045260246000fd5b634e487b7160e01b600052604160045260246000fd5b600060033d111561077157600481823e5160e01c90565b600060443d1015612e5f57610771565b6040516003193d81016004833e81513d6001600160401b038160248401118184111715612e90575050505050610771565b8285019150815181811115612eaa57505050505050610771565b843d8701016020828501011115612ec657505050505050610771565b612ed560208286010187612dc5565b509094505050505090565b6001600160e01b03198116811461138757600080fdfe68747470733a2f2f73746f726167652e676f6f676c65617069732e636f6d2f74687265642d70726f746f636f6c2e61707073706f742e636f6d2f736d6172742d7574696c732f7b69647d2e6a736f6ea2646970667358221220ae533ddbc35ae5824c589cf96c6fc4e9bbbb18144a849b91d23905aab5bd650764736f6c63430008030033",
  "linkReferences": {},
  "deployedLinkReferences": {}
}