{
  "_format": "hh-sol-artifact-1",
  "contractName": "ERC1155Upgradeable",
  "sourceName": "@openzeppelin/contracts-upgradeable/token/ERC1155/ERC1155Upgradeable.sol",
  "abi": [
    {
      "anonymous": false,
      "inputs": [
        {
          "indexed": true,
          "internalType": "address",
          "name": "account",
          "type": "address"
        },
        {
          "indexed": true,
          "internalType": "address",
          "name": "operator",
          "type": "address"
        },
        {
          "indexed": false,
          "internalType": "bool",
          "name": "approved",
          "type": "bool"
        }
      ],
      "name": "ApprovalForAll",
      "type": "event"
    },
    {
      "anonymous": false,
      "inputs": [
        {
          "indexed": false,
          "internalType": "uint8",
          "name": "version",
          "type": "uint8"
        }
      ],
      "name": "Initialized",
      "type": "event"
    },
    {
      "anonymous": false,
      "inputs": [
        {
          "indexed": true,
          "internalType": "address",
          "name": "operator",
          "type": "address"
        },
        {
          "indexed": true,
          "internalType": "address",
          "name": "from",
          "type": "address"
        },
        {
          "indexed": true,
          "internalType": "address",
          "name": "to",
          "type": "address"
        },
        {
          "indexed": false,
          "internalType": "uint256[]",
          "name": "ids",
          "type": "uint256[]"
        },
        {
          "indexed": false,
          "internalType": "uint256[]",
          "name": "values",
          "type": "uint256[]"
        }
      ],
      "name": "TransferBatch",
      "type": "event"
    },
    {
      "anonymous": false,
      "inputs": [
        {
          "indexed": true,
          "internalType": "address",
          "name": "operator",
          "type": "address"
        },
        {
          "indexed": true,
          "internalType": "address",
          "name": "from",
          "type": "address"
        },
        {
          "indexed": true,
          "internalType": "address",
          "name": "to",
          "type": "address"
        },
        {
          "indexed": false,
          "internalType": "uint256",
          "name": "id",
          "type": "uint256"
        },
        {
          "indexed": false,
          "internalType": "uint256",
          "name": "value",
          "type": "uint256"
        }
      ],
      "name": "TransferSingle",
      "type": "event"
    },
    {
      "anonymous": false,
      "inputs": [
        {
          "indexed": false,
          "internalType": "string",
          "name": "value",
          "type": "string"
        },
        {
          "indexed": true,
          "internalType": "uint256",
          "name": "id",
          "type": "uint256"
        }
      ],
      "name": "URI",
      "type": "event"
    },
    {
      "inputs": [
        {
          "internalType": "address",
          "name": "account",
          "type": "address"
        },
        {
          "internalType": "uint256",
          "name": "id",
          "type": "uint256"
        }
      ],
      "name": "balanceOf",
      "outputs": [
        {
          "internalType": "uint256",
          "name": "",
          "type": "uint256"
        }
      ],
      "stateMutability": "view",
      "type": "function"
    },
    {
      "inputs": [
        {
          "internalType": "address[]",
          "name": "accounts",
          "type": "address[]"
        },
        {
          "internalType": "uint256[]",
          "name": "ids",
          "type": "uint256[]"
        }
      ],
      "name": "balanceOfBatch",
      "outputs": [
        {
          "internalType": "uint256[]",
          "name": "",
          "type": "uint256[]"
        }
      ],
      "stateMutability": "view",
      "type": "function"
    },
    {
      "inputs": [
        {
          "internalType": "address",
          "name": "account",
          "type": "address"
        },
        {
          "internalType": "address",
          "name": "operator",
          "type": "address"
        }
      ],
      "name": "isApprovedForAll",
      "outputs": [
        {
          "internalType": "bool",
          "name": "",
          "type": "bool"
        }
      ],
      "stateMutability": "view",
      "type": "function"
    },
    {
      "inputs": [
        {
          "internalType": "address",
          "name": "from",
          "type": "address"
        },
        {
          "internalType": "address",
          "name": "to",
          "type": "address"
        },
        {
          "internalType": "uint256[]",
          "name": "ids",
          "type": "uint256[]"
        },
        {
          "internalType": "uint256[]",
          "name": "amounts",
          "type": "uint256[]"
        },
        {
          "internalType": "bytes",
          "name": "data",
          "type": "bytes"
        }
      ],
      "name": "safeBatchTransferFrom",
      "outputs": [],
      "stateMutability": "nonpayable",
      "type": "function"
    },
    {
      "inputs": [
        {
          "internalType": "address",
          "name": "from",
          "type": "address"
        },
        {
          "internalType": "address",
          "name": "to",
          "type": "address"
        },
        {
          "internalType": "uint256",
          "name": "id",
          "type": "uint256"
        },
        {
          "internalType": "uint256",
          "name": "amount",
          "type": "uint256"
        },
        {
          "internalType": "bytes",
          "name": "data",
          "type": "bytes"
        }
      ],
      "name": "safeTransferFrom",
      "outputs": [],
      "stateMutability": "nonpayable",
      "type": "function"
    },
    {
      "inputs": [
        {
          "internalType": "address",
          "name": "operator",
          "type": "address"
        },
        {
          "internalType": "bool",
          "name": "approved",
          "type": "bool"
        }
      ],
      "name": "setApprovalForAll",
      "outputs": [],
      "stateMutability": "nonpayable",
      "type": "function"
    },
    {
      "inputs": [
        {
          "internalType": "bytes4",
          "name": "interfaceId",
          "type": "bytes4"
        }
      ],
      "name": "supportsInterface",
      "outputs": [
        {
          "internalType": "bool",
          "name": "",
          "type": "bool"
        }
      ],
      "stateMutability": "view",
      "type": "function"
    },
    {
      "inputs": [
        {
          "internalType": "uint256",
          "name": "",
          "type": "uint256"
        }
      ],
      "name": "uri",
      "outputs": [
        {
          "internalType": "string",
          "name": "",
          "type": "string"
        }
      ],
      "stateMutability": "view",
      "type": "function"
    }
  ],
  "bytecode": "0x608060405234801561001057600080fd5b50611435806100206000396000f3fe608060405234801561001057600080fd5b50600436106100875760003560e01c80634e1273f41161005b5780634e1273f41461010a578063a22cb4651461012a578063e985e9c51461013d578063f242432a1461017957610087565b8062fdd58e1461008c57806301ffc9a7146100b25780630e89341c146100d55780632eb2c2d6146100f5575b600080fd5b61009f61009a366004610e65565b61018c565b6040519081526020015b60405180910390f35b6100c56100c0366004610f59565b610224565b60405190151581526020016100a9565b6100e86100e3366004610f98565b610278565b6040516100a99190611119565b610108610103366004610d22565b61030c565b005b61011d610118366004610e8e565b61036a565b6040516100a991906110d8565b610108610138366004610e2b565b6104cc565b6100c561014b366004610cf0565b6001600160a01b03918216600090815260666020908152604080832093909416825291909152205460ff1690565b610108610187366004610dc8565b6104e2565b60006001600160a01b0383166101fc5760405162461bcd60e51b815260206004820152602a60248201527f455243313135353a2061646472657373207a65726f206973206e6f742061207660448201526930b634b21037bbb732b960b11b60648201526084015b60405180910390fd5b5060009081526065602090815260408083206001600160a01b03949094168352929052205490565b60006001600160e01b03198216636cdb3d1360e11b148061025557506001600160e01b031982166303a24d0760e21b145b8061027057506301ffc9a760e01b6001600160e01b03198316145b90505b919050565b6060606780546102879061128e565b80601f01602080910402602001604051908101604052809291908181526020018280546102b39061128e565b80156103005780601f106102d557610100808354040283529160200191610300565b820191906000526020600020905b8154815290600101906020018083116102e357829003601f168201915b50505050509050919050565b610314610539565b6001600160a01b0316856001600160a01b0316148061033a575061033a8561014b610539565b6103565760405162461bcd60e51b81526004016101f39061112c565b610363858585858561053e565b5050505050565b606081518351146103cf5760405162461bcd60e51b815260206004820152602960248201527f455243313135353a206163636f756e747320616e6420696473206c656e677468604482015268040dad2e6dac2e8c6d60bb1b60648201526084016101f3565b6000835167ffffffffffffffff8111156103f957634e487b7160e01b600052604160045260246000fd5b604051908082528060200260200182016040528015610422578160200160208202803683370190505b50905060005b84518110156104c45761048985828151811061045457634e487b7160e01b600052603260045260246000fd5b602002602001015185838151811061047c57634e487b7160e01b600052603260045260246000fd5b602002602001015161018c565b8282815181106104a957634e487b7160e01b600052603260045260246000fd5b60209081029190910101526104bd816112f6565b9050610428565b509392505050565b6104de6104d7610539565b8383610745565b5050565b6104ea610539565b6001600160a01b0316856001600160a01b0316148061051057506105108561014b610539565b61052c5760405162461bcd60e51b81526004016101f39061112c565b6103638585858585610826565b335b90565b81518351146105a05760405162461bcd60e51b815260206004820152602860248201527f455243313135353a2069647320616e6420616d6f756e7473206c656e677468206044820152670dad2e6dac2e8c6d60c31b60648201526084016101f3565b6001600160a01b0384166105c65760405162461bcd60e51b81526004016101f3906111c3565b60006105d0610539565b905060005b84518110156106d757600085828151811061060057634e487b7160e01b600052603260045260246000fd5b60200260200101519050600085838151811061062c57634e487b7160e01b600052603260045260246000fd5b60209081029190910181015160008481526065835260408082206001600160a01b038e16835290935291909120549091508181101561067d5760405162461bcd60e51b81526004016101f390611208565b60008381526065602090815260408083206001600160a01b038e8116855292528083208585039055908b168252812080548492906106bc908490611276565b92505081905550505050806106d0906112f6565b90506105d5565b50846001600160a01b0316866001600160a01b0316826001600160a01b03167f4a39dc06d4c0dbc64b70af90fd698a233a518aa5d07e595d983b8c0526c8f7fb87876040516107279291906110eb565b60405180910390a461073d81878787878761095f565b505050505050565b816001600160a01b0316836001600160a01b031614156107b95760405162461bcd60e51b815260206004820152602960248201527f455243313135353a2073657474696e6720617070726f76616c20737461747573604482015268103337b91039b2b63360b91b60648201526084016101f3565b6001600160a01b03838116600081815260666020908152604080832094871680845294825291829020805460ff191686151590811790915591519182527f17307eab39ab6107e8899845ad3d59bd9653f200f220920489ca2b5937696c31910160405180910390a3505050565b6001600160a01b03841661084c5760405162461bcd60e51b81526004016101f3906111c3565b6000610856610539565b9050600061086385610ad3565b9050600061087085610ad3565b905060008681526065602090815260408083206001600160a01b038c168452909152902054858110156108b55760405162461bcd60e51b81526004016101f390611208565b60008781526065602090815260408083206001600160a01b038d8116855292528083208985039055908a168252812080548892906108f4908490611276565b909155505060408051888152602081018890526001600160a01b03808b16928c821692918816917fc3d58168c5ae7397731d063d5bbf3d657854427343f4c083240f7aacaa2d0f62910160405180910390a4610954848a8a8a8a8a610b2c565b505050505050505050565b6001600160a01b0384163b1561073d5760405163bc197c8160e01b81526001600160a01b0385169063bc197c81906109a39089908990889088908890600401611035565b602060405180830381600087803b1580156109bd57600080fd5b505af19250505080156109ed575060408051601f3d908101601f191682019092526109ea91810190610f7c565b60015b610a9a576109f961133d565b806308c379a01415610a335750610a0e611354565b80610a195750610a35565b8060405162461bcd60e51b81526004016101f39190611119565b505b60405162461bcd60e51b815260206004820152603460248201527f455243313135353a207472616e7366657220746f206e6f6e20455243313135356044820152732932b1b2b4bb32b91034b6b83632b6b2b73a32b960611b60648201526084016101f3565b6001600160e01b0319811663bc197c8160e01b14610aca5760405162461bcd60e51b81526004016101f39061117b565b50505050505050565b60408051600180825281830190925260609160009190602080830190803683370190505090508281600081518110610b1b57634e487b7160e01b600052603260045260246000fd5b602090810291909101015292915050565b6001600160a01b0384163b1561073d5760405163f23a6e6160e01b81526001600160a01b0385169063f23a6e6190610b709089908990889088908890600401611093565b602060405180830381600087803b158015610b8a57600080fd5b505af1925050508015610bba575060408051601f3d908101601f19168201909252610bb791810190610f7c565b60015b610bc6576109f961133d565b6001600160e01b0319811663f23a6e6160e01b14610aca5760405162461bcd60e51b81526004016101f39061117b565b80356001600160a01b038116811461027357600080fd5b600082601f830112610c1d578081fd5b81356020610c2a82611252565b604051610c3782826112c9565b8381528281019150858301600585901b87018401881015610c56578586fd5b855b85811015610c7457813584529284019290840190600101610c58565b5090979650505050505050565b600082601f830112610c91578081fd5b813567ffffffffffffffff811115610cab57610cab611327565b604051610cc2601f8301601f1916602001826112c9565b818152846020838601011115610cd6578283fd5b816020850160208301379081016020019190915292915050565b60008060408385031215610d02578182fd5b610d0b83610bf6565b9150610d1960208401610bf6565b90509250929050565b600080600080600060a08688031215610d39578081fd5b610d4286610bf6565b9450610d5060208701610bf6565b9350604086013567ffffffffffffffff80821115610d6c578283fd5b610d7889838a01610c0d565b94506060880135915080821115610d8d578283fd5b610d9989838a01610c0d565b93506080880135915080821115610dae578283fd5b50610dbb88828901610c81565b9150509295509295909350565b600080600080600060a08688031215610ddf578081fd5b610de886610bf6565b9450610df660208701610bf6565b93506040860135925060608601359150608086013567ffffffffffffffff811115610e1f578182fd5b610dbb88828901610c81565b60008060408385031215610e3d578182fd5b610e4683610bf6565b915060208301358015158114610e5a578182fd5b809150509250929050565b60008060408385031215610e77578182fd5b610e8083610bf6565b946020939093013593505050565b60008060408385031215610ea0578182fd5b823567ffffffffffffffff80821115610eb7578384fd5b818501915085601f830112610eca578384fd5b81356020610ed782611252565b604051610ee482826112c9565b8381528281019150858301600585901b870184018b1015610f03578889fd5b8896505b84871015610f2c57610f1881610bf6565b835260019690960195918301918301610f07565b5096505086013592505080821115610f42578283fd5b50610f4f85828601610c0d565b9150509250929050565b600060208284031215610f6a578081fd5b8135610f75816113e6565b9392505050565b600060208284031215610f8d578081fd5b8151610f75816113e6565b600060208284031215610fa9578081fd5b5035919050565b6000815180845260208085019450808401835b83811015610fdf57815187529582019590820190600101610fc3565b509495945050505050565b60008151808452815b8181101561100f57602081850181015186830182015201610ff3565b818111156110205782602083870101525b50601f01601f19169290920160200192915050565b6001600160a01b0386811682528516602082015260a06040820181905260009061106190830186610fb0565b82810360608401526110738186610fb0565b905082810360808401526110878185610fea565b98975050505050505050565b6001600160a01b03868116825285166020820152604081018490526060810183905260a0608082018190526000906110cd90830184610fea565b979650505050505050565b600060208252610f756020830184610fb0565b6000604082526110fe6040830185610fb0565b82810360208401526111108185610fb0565b95945050505050565b600060208252610f756020830184610fea565b6020808252602f908201527f455243313135353a2063616c6c6572206973206e6f7420746f6b656e206f776e60408201526e195c881b9bdc88185c1c1c9bdd9959608a1b606082015260800190565b60208082526028908201527f455243313135353a204552433131353552656365697665722072656a656374656040820152676420746f6b656e7360c01b606082015260800190565b60208082526025908201527f455243313135353a207472616e7366657220746f20746865207a65726f206164604082015264647265737360d81b606082015260800190565b6020808252602a908201527f455243313135353a20696e73756666696369656e742062616c616e636520666f60408201526939103a3930b739b332b960b11b606082015260800190565b600067ffffffffffffffff82111561126c5761126c611327565b5060051b60200190565b6000821982111561128957611289611311565b500190565b600181811c908216806112a257607f821691505b602082108114156112c357634e487b7160e01b600052602260045260246000fd5b50919050565b601f8201601f1916810167ffffffffffffffff811182821017156112ef576112ef611327565b6040525050565b600060001982141561130a5761130a611311565b5060010190565b634e487b7160e01b600052601160045260246000fd5b634e487b7160e01b600052604160045260246000fd5b600060033d111561053b57600481823e5160e01c90565b600060443d10156113645761053b565b6040516003193d81016004833e81513d67ffffffffffffffff816024840111818411171561139657505050505061053b565b82850191508151818111156113b05750505050505061053b565b843d87010160208285010111156113cc5750505050505061053b565b6113db602082860101876112c9565b509094505050505090565b6001600160e01b0319811681146113fc57600080fd5b5056fea2646970667358221220a40cf63c87d43c31b3b54a7ed2eb28b5e196dd30e4aa190fc93f7a43f3216b0664736f6c63430008030033",
  "linkReferences": {},
  "deployedLinkReferences": {}
}